{
  "contracts/core/CacheManagerAutomation.sol": {
    "CacheManagerAutomation": {
      "abi": [
        {
          "inputs": [
            {
              "internalType": "address",
              "name": "_cacheManager",
              "type": "address"
            },
            {
              "internalType": "address",
              "name": "_arbWasmCache",
              "type": "address"
            }
          ],
          "stateMutability": "nonpayable",
          "type": "constructor"
        },
        {
          "inputs": [],
          "name": "ContractAlreadyExists",
          "type": "error"
        },
        {
          "inputs": [],
          "name": "ContractNotFound",
          "type": "error"
        },
        {
          "inputs": [],
          "name": "ContractPaused",
          "type": "error"
        },
        {
          "inputs": [],
          "name": "ExceedsMaxUserFunds",
          "type": "error"
        },
        {
          "inputs": [],
          "name": "InsufficientBalance",
          "type": "error"
        },
        {
          "inputs": [],
          "name": "InvalidAddress",
          "type": "error"
        },
        {
          "inputs": [],
          "name": "InvalidBid",
          "type": "error"
        },
        {
          "inputs": [],
          "name": "InvalidFundAmount",
          "type": "error"
        },
        {
          "inputs": [],
          "name": "TooManyBids",
          "type": "error"
        },
        {
          "inputs": [],
          "name": "TooManyContracts",
          "type": "error"
        },
        {
          "anonymous": false,
          "inputs": [
            {
              "indexed": true,
              "internalType": "address",
              "name": "user",
              "type": "address"
            },
            {
              "indexed": false,
              "internalType": "uint256",
              "name": "newBalance",
              "type": "uint256"
            }
          ],
          "name": "BalanceUpdated",
          "type": "event"
        },
        {
          "anonymous": false,
          "inputs": [
            {
              "indexed": true,
              "internalType": "address",
              "name": "user",
              "type": "address"
            },
            {
              "indexed": true,
              "internalType": "address",
              "name": "contractAddress",
              "type": "address"
            },
            {
              "indexed": false,
              "internalType": "uint256",
              "name": "bid",
              "type": "uint256"
            },
            {
              "indexed": false,
              "internalType": "bool",
              "name": "success",
              "type": "bool"
            }
          ],
          "name": "BidAttempted",
          "type": "event"
        },
        {
          "anonymous": false,
          "inputs": [
            {
              "indexed": true,
              "internalType": "address",
              "name": "user",
              "type": "address"
            },
            {
              "indexed": true,
              "internalType": "address",
              "name": "contractAddress",
              "type": "address"
            },
            {
              "indexed": false,
              "internalType": "uint256",
              "name": "bidAmount",
              "type": "uint256"
            },
            {
              "indexed": false,
              "internalType": "uint256",
              "name": "minBid",
              "type": "uint256"
            },
            {
              "indexed": false,
              "internalType": "uint256",
              "name": "maxBid",
              "type": "uint256"
            },
            {
              "indexed": false,
              "internalType": "uint256",
              "name": "userBalance",
              "type": "uint256"
            },
            {
              "indexed": false,
              "internalType": "bool",
              "name": "success",
              "type": "bool"
            }
          ],
          "name": "BidDetails",
          "type": "event"
        },
        {
          "anonymous": false,
          "inputs": [
            {
              "indexed": true,
              "internalType": "address",
              "name": "user",
              "type": "address"
            },
            {
              "indexed": true,
              "internalType": "address",
              "name": "contractAddress",
              "type": "address"
            },
            {
              "indexed": false,
              "internalType": "uint256",
              "name": "bid",
              "type": "uint256"
            },
            {
              "indexed": false,
              "internalType": "string",
              "name": "reason",
              "type": "string"
            }
          ],
          "name": "BidError",
          "type": "event"
        },
        {
          "anonymous": false,
          "inputs": [
            {
              "indexed": false,
              "internalType": "uint192",
              "name": "oldValue",
              "type": "uint192"
            },
            {
              "indexed": false,
              "internalType": "uint192",
              "name": "newValue",
              "type": "uint192"
            }
          ],
          "name": "BidIncrementUpdated",
          "type": "event"
        },
        {
          "anonymous": false,
          "inputs": [
            {
              "indexed": true,
              "internalType": "address",
              "name": "user",
              "type": "address"
            },
            {
              "indexed": true,
              "internalType": "address",
              "name": "contractAddress",
              "type": "address"
            },
            {
              "indexed": false,
              "internalType": "uint256",
              "name": "bidAmount",
              "type": "uint256"
            },
            {
              "indexed": false,
              "internalType": "uint256",
              "name": "maxBid",
              "type": "uint256"
            },
            {
              "indexed": false,
              "internalType": "uint256",
              "name": "userBalance",
              "type": "uint256"
            }
          ],
          "name": "BidPlaced",
          "type": "event"
        },
        {
          "anonymous": false,
          "inputs": [
            {
              "indexed": false,
              "internalType": "uint256",
              "name": "oldValue",
              "type": "uint256"
            },
            {
              "indexed": false,
              "internalType": "uint256",
              "name": "newValue",
              "type": "uint256"
            }
          ],
          "name": "CacheThresholdUpdated",
          "type": "event"
        },
        {
          "anonymous": false,
          "inputs": [
            {
              "indexed": true,
              "internalType": "address",
              "name": "user",
              "type": "address"
            },
            {
              "indexed": true,
              "internalType": "address",
              "name": "contractAddress",
              "type": "address"
            },
            {
              "indexed": false,
              "internalType": "uint256",
              "name": "maxBid",
              "type": "uint256"
            }
          ],
          "name": "ContractAdded",
          "type": "event"
        },
        {
          "anonymous": false,
          "inputs": [
            {
              "indexed": true,
              "internalType": "address",
              "name": "user",
              "type": "address"
            },
            {
              "indexed": true,
              "internalType": "address",
              "name": "contractAddress",
              "type": "address"
            },
            {
              "indexed": false,
              "internalType": "string",
              "name": "operation",
              "type": "string"
            },
            {
              "indexed": false,
              "internalType": "uint256",
              "name": "timestamp",
              "type": "uint256"
            }
          ],
          "name": "ContractOperationPerformed",
          "type": "event"
        },
        {
          "anonymous": false,
          "inputs": [
            {
              "indexed": true,
              "internalType": "address",
              "name": "user",
              "type": "address"
            },
            {
              "indexed": true,
              "internalType": "address",
              "name": "contractAddress",
              "type": "address"
            }
          ],
          "name": "ContractRemoved",
          "type": "event"
        },
        {
          "anonymous": false,
          "inputs": [
            {
              "indexed": true,
              "internalType": "address",
              "name": "user",
              "type": "address"
            },
            {
              "indexed": true,
              "internalType": "address",
              "name": "contractAddress",
              "type": "address"
            },
            {
              "indexed": false,
              "internalType": "uint256",
              "name": "maxBid",
              "type": "uint256"
            }
          ],
          "name": "ContractUpdated",
          "type": "event"
        },
        {
          "anonymous": false,
          "inputs": [
            {
              "indexed": true,
              "internalType": "address",
              "name": "user",
              "type": "address"
            },
            {
              "indexed": true,
              "internalType": "address",
              "name": "contractAddress",
              "type": "address"
            },
            {
              "indexed": false,
              "internalType": "string",
              "name": "step",
              "type": "string"
            }
          ],
          "name": "DebugBidCheck",
          "type": "event"
        },
        {
          "anonymous": false,
          "inputs": [
            {
              "indexed": true,
              "internalType": "address",
              "name": "contractAddress",
              "type": "address"
            },
            {
              "indexed": false,
              "internalType": "uint192",
              "name": "minBid",
              "type": "uint192"
            },
            {
              "indexed": false,
              "internalType": "bool",
              "name": "success",
              "type": "bool"
            }
          ],
          "name": "DebugMinBidFetch",
          "type": "event"
        },
        {
          "anonymous": false,
          "inputs": [
            {
              "indexed": false,
              "internalType": "uint256",
              "name": "oldValue",
              "type": "uint256"
            },
            {
              "indexed": false,
              "internalType": "uint256",
              "name": "newValue",
              "type": "uint256"
            }
          ],
          "name": "HorizonSecondsUpdated",
          "type": "event"
        },
        {
          "anonymous": false,
          "inputs": [
            {
              "indexed": false,
              "internalType": "uint256",
              "name": "oldValue",
              "type": "uint256"
            },
            {
              "indexed": false,
              "internalType": "uint256",
              "name": "newValue",
              "type": "uint256"
            }
          ],
          "name": "MaxBidsPerIterationUpdated",
          "type": "event"
        },
        {
          "anonymous": false,
          "inputs": [
            {
              "indexed": false,
              "internalType": "uint256",
              "name": "oldValue",
              "type": "uint256"
            },
            {
              "indexed": false,
              "internalType": "uint256",
              "name": "newValue",
              "type": "uint256"
            }
          ],
          "name": "MaxContractsPerUserUpdated",
          "type": "event"
        },
        {
          "anonymous": false,
          "inputs": [
            {
              "indexed": false,
              "internalType": "uint256",
              "name": "oldValue",
              "type": "uint256"
            },
            {
              "indexed": false,
              "internalType": "uint256",
              "name": "newValue",
              "type": "uint256"
            }
          ],
          "name": "MaxUserFundsUpdated",
          "type": "event"
        },
        {
          "anonymous": false,
          "inputs": [
            {
              "indexed": false,
              "internalType": "uint256",
              "name": "oldValue",
              "type": "uint256"
            },
            {
              "indexed": false,
              "internalType": "uint256",
              "name": "newValue",
              "type": "uint256"
            }
          ],
          "name": "MaxUsersPerPageUpdated",
          "type": "event"
        },
        {
          "anonymous": false,
          "inputs": [
            {
              "indexed": true,
              "internalType": "address",
              "name": "contractAddress",
              "type": "address"
            },
            {
              "indexed": false,
              "internalType": "uint256",
              "name": "minBid",
              "type": "uint256"
            }
          ],
          "name": "MinBidCheck",
          "type": "event"
        },
        {
          "anonymous": false,
          "inputs": [
            {
              "indexed": false,
              "internalType": "uint256",
              "name": "oldValue",
              "type": "uint256"
            },
            {
              "indexed": false,
              "internalType": "uint256",
              "name": "newValue",
              "type": "uint256"
            }
          ],
          "name": "MinFundAmountUpdated",
          "type": "event"
        },
        {
          "anonymous": false,
          "inputs": [
            {
              "indexed": false,
              "internalType": "uint256",
              "name": "oldValue",
              "type": "uint256"
            },
            {
              "indexed": false,
              "internalType": "uint256",
              "name": "newValue",
              "type": "uint256"
            }
          ],
          "name": "MinMaxBidAmountUpdated",
          "type": "event"
        },
        {
          "anonymous": false,
          "inputs": [
            {
              "indexed": true,
              "internalType": "address",
              "name": "previousOwner",
              "type": "address"
            },
            {
              "indexed": true,
              "internalType": "address",
              "name": "newOwner",
              "type": "address"
            }
          ],
          "name": "OwnershipTransferred",
          "type": "event"
        },
        {
          "anonymous": false,
          "inputs": [
            {
              "indexed": true,
              "internalType": "address",
              "name": "account",
              "type": "address"
            }
          ],
          "name": "Paused",
          "type": "event"
        },
        {
          "anonymous": false,
          "inputs": [
            {
              "indexed": true,
              "internalType": "address",
              "name": "account",
              "type": "address"
            }
          ],
          "name": "Unpaused",
          "type": "event"
        },
        {
          "anonymous": false,
          "inputs": [
            {
              "indexed": false,
              "internalType": "uint256",
              "name": "totalContracts",
              "type": "uint256"
            },
            {
              "indexed": false,
              "internalType": "uint256",
              "name": "successfulBids",
              "type": "uint256"
            },
            {
              "indexed": false,
              "internalType": "uint256",
              "name": "failedBids",
              "type": "uint256"
            },
            {
              "indexed": false,
              "internalType": "uint256",
              "name": "timestamp",
              "type": "uint256"
            }
          ],
          "name": "UpkeepPerformed",
          "type": "event"
        },
        {
          "anonymous": false,
          "inputs": [
            {
              "indexed": true,
              "internalType": "address",
              "name": "user",
              "type": "address"
            },
            {
              "indexed": false,
              "internalType": "string",
              "name": "operation",
              "type": "string"
            },
            {
              "indexed": false,
              "internalType": "uint256",
              "name": "amount",
              "type": "uint256"
            },
            {
              "indexed": false,
              "internalType": "uint256",
              "name": "newBalance",
              "type": "uint256"
            },
            {
              "indexed": false,
              "internalType": "uint256",
              "name": "timestamp",
              "type": "uint256"
            }
          ],
          "name": "UserBalanceOperation",
          "type": "event"
        },
        {
          "inputs": [],
          "name": "arbWasmCache",
          "outputs": [
            {
              "internalType": "contract IArbWasmCache",
              "name": "",
              "type": "address"
            }
          ],
          "stateMutability": "view",
          "type": "function"
        },
        {
          "inputs": [],
          "name": "bidIncrement",
          "outputs": [
            {
              "internalType": "uint192",
              "name": "",
              "type": "uint192"
            }
          ],
          "stateMutability": "view",
          "type": "function"
        },
        {
          "inputs": [],
          "name": "cacheManager",
          "outputs": [
            {
              "internalType": "contract ICacheManager",
              "name": "",
              "type": "address"
            }
          ],
          "stateMutability": "view",
          "type": "function"
        },
        {
          "inputs": [],
          "name": "cacheThreshold",
          "outputs": [
            {
              "internalType": "uint256",
              "name": "",
              "type": "uint256"
            }
          ],
          "stateMutability": "view",
          "type": "function"
        },
        {
          "inputs": [],
          "name": "escrow",
          "outputs": [
            {
              "internalType": "contract BiddingEscrow",
              "name": "",
              "type": "address"
            }
          ],
          "stateMutability": "view",
          "type": "function"
        },
        {
          "inputs": [],
          "name": "fundBalance",
          "outputs": [],
          "stateMutability": "payable",
          "type": "function"
        },
        {
          "inputs": [],
          "name": "getContracts",
          "outputs": [
            {
              "components": [
                {
                  "internalType": "address",
                  "name": "user",
                  "type": "address"
                },
                {
                  "components": [
                    {
                      "internalType": "address",
                      "name": "contractAddress",
                      "type": "address"
                    },
                    {
                      "internalType": "uint256",
                      "name": "maxBid",
                      "type": "uint256"
                    },
                    {
                      "internalType": "bool",
                      "name": "enabled",
                      "type": "bool"
                    }
                  ],
                  "internalType": "struct ICacheManagerAutomation.ContractConfig[]",
                  "name": "contracts",
                  "type": "tuple[]"
                }
              ],
              "internalType": "struct ICacheManagerAutomation.UserContractsData[]",
              "name": "",
              "type": "tuple[]"
            }
          ],
          "stateMutability": "view",
          "type": "function"
        },
        {
          "inputs": [
            {
              "internalType": "uint256",
              "name": "offset",
              "type": "uint256"
            },
            {
              "internalType": "uint256",
              "name": "limit",
              "type": "uint256"
            }
          ],
          "name": "getContractsPaginated",
          "outputs": [
            {
              "components": [
                {
                  "internalType": "address",
                  "name": "user",
                  "type": "address"
                },
                {
                  "components": [
                    {
                      "internalType": "address",
                      "name": "contractAddress",
                      "type": "address"
                    },
                    {
                      "internalType": "uint256",
                      "name": "maxBid",
                      "type": "uint256"
                    },
                    {
                      "internalType": "bool",
                      "name": "enabled",
                      "type": "bool"
                    }
                  ],
                  "internalType": "struct ICacheManagerAutomation.ContractConfig[]",
                  "name": "contracts",
                  "type": "tuple[]"
                }
              ],
              "internalType": "struct ICacheManagerAutomation.UserContractsData[]",
              "name": "userData",
              "type": "tuple[]"
            },
            {
              "internalType": "bool",
              "name": "hasMore",
              "type": "bool"
            }
          ],
          "stateMutability": "view",
          "type": "function"
        },
        {
          "inputs": [],
          "name": "getTotalUsersCount",
          "outputs": [
            {
              "internalType": "uint256",
              "name": "",
              "type": "uint256"
            }
          ],
          "stateMutability": "view",
          "type": "function"
        },
        {
          "inputs": [
            {
              "internalType": "uint256",
              "name": "index",
              "type": "uint256"
            }
          ],
          "name": "getUserAtIndex",
          "outputs": [
            {
              "internalType": "address",
              "name": "",
              "type": "address"
            }
          ],
          "stateMutability": "view",
          "type": "function"
        },
        {
          "inputs": [],
          "name": "getUserBalance",
          "outputs": [
            {
              "internalType": "uint256",
              "name": "",
              "type": "uint256"
            }
          ],
          "stateMutability": "view",
          "type": "function"
        },
        {
          "inputs": [],
          "name": "getUserContracts",
          "outputs": [
            {
              "components": [
                {
                  "internalType": "address",
                  "name": "contractAddress",
                  "type": "address"
                },
                {
                  "internalType": "uint256",
                  "name": "maxBid",
                  "type": "uint256"
                },
                {
                  "internalType": "bool",
                  "name": "enabled",
                  "type": "bool"
                }
              ],
              "internalType": "struct ICacheManagerAutomation.ContractConfig[]",
              "name": "",
              "type": "tuple[]"
            }
          ],
          "stateMutability": "view",
          "type": "function"
        },
        {
          "inputs": [],
          "name": "horizonSeconds",
          "outputs": [
            {
              "internalType": "uint256",
              "name": "",
              "type": "uint256"
            }
          ],
          "stateMutability": "view",
          "type": "function"
        },
        {
          "inputs": [
            {
              "internalType": "address",
              "name": "_contract",
              "type": "address"
            },
            {
              "internalType": "uint256",
              "name": "_maxBid",
              "type": "uint256"
            },
            {
              "internalType": "bool",
              "name": "_enabled",
              "type": "bool"
            }
          ],
          "name": "insertContract",
          "outputs": [],
          "stateMutability": "payable",
          "type": "function"
        },
        {
          "inputs": [],
          "name": "maxBidsPerIteration",
          "outputs": [
            {
              "internalType": "uint256",
              "name": "",
              "type": "uint256"
            }
          ],
          "stateMutability": "view",
          "type": "function"
        },
        {
          "inputs": [],
          "name": "maxContractsPerUser",
          "outputs": [
            {
              "internalType": "uint256",
              "name": "",
              "type": "uint256"
            }
          ],
          "stateMutability": "view",
          "type": "function"
        },
        {
          "inputs": [],
          "name": "maxUserFunds",
          "outputs": [
            {
              "internalType": "uint256",
              "name": "",
              "type": "uint256"
            }
          ],
          "stateMutability": "view",
          "type": "function"
        },
        {
          "inputs": [],
          "name": "maxUsersPerPage",
          "outputs": [
            {
              "internalType": "uint256",
              "name": "",
              "type": "uint256"
            }
          ],
          "stateMutability": "view",
          "type": "function"
        },
        {
          "inputs": [],
          "name": "minFundAmount",
          "outputs": [
            {
              "internalType": "uint256",
              "name": "",
              "type": "uint256"
            }
          ],
          "stateMutability": "view",
          "type": "function"
        },
        {
          "inputs": [],
          "name": "minMaxBidAmount",
          "outputs": [
            {
              "internalType": "uint256",
              "name": "",
              "type": "uint256"
            }
          ],
          "stateMutability": "view",
          "type": "function"
        },
        {
          "inputs": [],
          "name": "owner",
          "outputs": [
            {
              "internalType": "address",
              "name": "",
              "type": "address"
            }
          ],
          "stateMutability": "view",
          "type": "function"
        },
        {
          "inputs": [
            {
              "components": [
                {
                  "internalType": "address",
                  "name": "user",
                  "type": "address"
                },
                {
                  "internalType": "address",
                  "name": "contractAddress",
                  "type": "address"
                }
              ],
              "internalType": "struct ICacheManagerAutomation.BidRequest[]",
              "name": "_bidRequests",
              "type": "tuple[]"
            }
          ],
          "name": "placeBids",
          "outputs": [],
          "stateMutability": "nonpayable",
          "type": "function"
        },
        {
          "inputs": [],
          "name": "removeAllContracts",
          "outputs": [],
          "stateMutability": "nonpayable",
          "type": "function"
        },
        {
          "inputs": [
            {
              "internalType": "address",
              "name": "_contract",
              "type": "address"
            }
          ],
          "name": "removeContract",
          "outputs": [],
          "stateMutability": "nonpayable",
          "type": "function"
        },
        {
          "inputs": [],
          "name": "renounceOwnership",
          "outputs": [],
          "stateMutability": "nonpayable",
          "type": "function"
        },
        {
          "inputs": [
            {
              "internalType": "uint192",
              "name": "_bidIncrement",
              "type": "uint192"
            }
          ],
          "name": "setBidIncrement",
          "outputs": [],
          "stateMutability": "nonpayable",
          "type": "function"
        },
        {
          "inputs": [
            {
              "internalType": "uint256",
              "name": "_cacheThreshold",
              "type": "uint256"
            }
          ],
          "name": "setCacheThreshold",
          "outputs": [],
          "stateMutability": "nonpayable",
          "type": "function"
        },
        {
          "inputs": [
            {
              "internalType": "uint256",
              "name": "_horizonSeconds",
              "type": "uint256"
            }
          ],
          "name": "setHorizonSeconds",
          "outputs": [],
          "stateMutability": "nonpayable",
          "type": "function"
        },
        {
          "inputs": [
            {
              "internalType": "uint256",
              "name": "_maxBidsPerIteration",
              "type": "uint256"
            }
          ],
          "name": "setMaxBidsPerIteration",
          "outputs": [],
          "stateMutability": "nonpayable",
          "type": "function"
        },
        {
          "inputs": [
            {
              "internalType": "uint256",
              "name": "_maxContractsPerUser",
              "type": "uint256"
            }
          ],
          "name": "setMaxContractsPerUser",
          "outputs": [],
          "stateMutability": "nonpayable",
          "type": "function"
        },
        {
          "inputs": [
            {
              "internalType": "uint256",
              "name": "_maxUserFunds",
              "type": "uint256"
            }
          ],
          "name": "setMaxUserFunds",
          "outputs": [],
          "stateMutability": "nonpayable",
          "type": "function"
        },
        {
          "inputs": [
            {
              "internalType": "uint256",
              "name": "_maxUsersPerPage",
              "type": "uint256"
            }
          ],
          "name": "setMaxUsersPerPage",
          "outputs": [],
          "stateMutability": "nonpayable",
          "type": "function"
        },
        {
          "inputs": [
            {
              "internalType": "uint256",
              "name": "_minFundAmount",
              "type": "uint256"
            }
          ],
          "name": "setMinFundAmount",
          "outputs": [],
          "stateMutability": "nonpayable",
          "type": "function"
        },
        {
          "inputs": [
            {
              "internalType": "uint256",
              "name": "_minMaxBidAmount",
              "type": "uint256"
            }
          ],
          "name": "setMinMaxBidAmount",
          "outputs": [],
          "stateMutability": "nonpayable",
          "type": "function"
        },
        {
          "inputs": [
            {
              "internalType": "address",
              "name": "newOwner",
              "type": "address"
            }
          ],
          "name": "transferOwnership",
          "outputs": [],
          "stateMutability": "nonpayable",
          "type": "function"
        },
        {
          "inputs": [
            {
              "internalType": "address",
              "name": "_contract",
              "type": "address"
            },
            {
              "internalType": "uint256",
              "name": "_maxBid",
              "type": "uint256"
            },
            {
              "internalType": "bool",
              "name": "_enabled",
              "type": "bool"
            }
          ],
          "name": "updateContract",
          "outputs": [],
          "stateMutability": "nonpayable",
          "type": "function"
        },
        {
          "inputs": [
            {
              "internalType": "address",
              "name": "",
              "type": "address"
            },
            {
              "internalType": "uint256",
              "name": "",
              "type": "uint256"
            }
          ],
          "name": "userContracts",
          "outputs": [
            {
              "internalType": "address",
              "name": "contractAddress",
              "type": "address"
            },
            {
              "internalType": "uint256",
              "name": "maxBid",
              "type": "uint256"
            },
            {
              "internalType": "bool",
              "name": "enabled",
              "type": "bool"
            }
          ],
          "stateMutability": "view",
          "type": "function"
        },
        {
          "inputs": [],
          "name": "withdrawBalance",
          "outputs": [],
          "stateMutability": "nonpayable",
          "type": "function"
        },
        {
          "stateMutability": "payable",
          "type": "receive"
        }
      ],
      "evm": {
        "bytecode": {
          "linkReferences": {},
          "object": "608060405234801561001057600080fd5b506040516138ff3803806138ff83398101604081905261002f916101cc565b61003833610153565b600180556001600160a01b0382166100635760405163e6c4247b60e01b815260040160405180910390fd5b6001600160a01b03811661008a5760405163e6c4247b60e01b815260040160405180910390fd5b600c80546001600160a01b038085166001600160a01b031992831617909255600d8054928416929091169190911790556040516100c6906101a3565b604051809103906000f0801580156100e2573d6000803e3d6000fd5b50600280546001600160a01b0319166001600160a01b0392909216919091179055505060326003819055600160048190556005819055670de0b6b3a76400006006556007919091556064600855606260095562278d00600a55600b80546001600160c01b03191690911790556101ff565b600080546001600160a01b038381166001600160a01b0319831681178455604051919092169283917f8be0079c531659141344cd1fd0a4f28419497f9722a3daafe3b4186f6b6457e09190a35050565b610704806131fb83390190565b80516001600160a01b03811681146101c757600080fd5b919050565b600080604083850312156101df57600080fd5b6101e8836101b0565b91506101f6602084016101b0565b90509250929050565b612fed8061020e6000396000f3fe6080604052600436106102295760003560e01c80639d0dd05011610123578063d1993526116100ab578063f2fde38b1161006f578063f2fde38b1461062f578063f76dfcc71461064f578063fb5842f314610665578063fec4ea1b14610685578063ffcc7bbf146106a557600080fd5b8063d19935261461058d578063dfc41f44146105ad578063e2fdcc17146105cf578063e6d5a326146105ef578063e8cc05d71461060f57600080fd5b8063ba4d35b3116100f2578063ba4d35b314610509578063c375c2ef1461051f578063c3a2a93a1461053f578063cd46d43214610561578063cf0649f01461057757600080fd5b80639d0dd05014610455578063b3cc167a14610475578063b7013dc1146104ad578063b789003d146104c257600080fd5b80633c067945116101b15780635fd8c710116101755780635fd8c710146103d75780636fa1bb9e146103ec578063715018a6146104025780637f02fd94146104175780638da5cb5b1461043757600080fd5b80633c067945146103405780633d4d838814610348578063467ea9f41461035e578063483ece061461037157806359838a151461039f57600080fd5b80631fa4840d116101f85780631fa4840d146102bf57806325221a16146102d557806326b2eb6e146102eb5780633347f4c01461030b578063339322601461032057600080fd5b80630208ef67146102355780630561010c14610257578063081657b71461027f578063152533ad1461029f57600080fd5b3661023057005b600080fd5b34801561024157600080fd5b50610255610250366004612b1e565b6106c5565b005b34801561026357600080fd5b5061026c610776565b6040519081526020015b60405180910390f35b34801561028b57600080fd5b5061025561029a366004612b1e565b610787565b3480156102ab57600080fd5b506102556102ba366004612b4c565b61082c565b3480156102cb57600080fd5b5061026c60065481565b3480156102e157600080fd5b5061026c600a5481565b3480156102f757600080fd5b50610255610306366004612b1e565b6108f3565b34801561031757600080fd5b50610255610998565b34801561032c57600080fd5b5061025561033b366004612b69565b610a5e565b610255610b12565b34801561035457600080fd5b5061026c60075481565b61025561036c366004612c0a565b610bde565b34801561037d57600080fd5b5061039161038c366004612c4a565b610da2565b604051610276929190612d35565b3480156103ab57600080fd5b50600c546103bf906001600160a01b031681565b6040516001600160a01b039091168152602001610276565b3480156103e357600080fd5b50610255610faa565b3480156103f857600080fd5b5061026c60085481565b34801561040e57600080fd5b506102556110e1565b34801561042357600080fd5b50610255610432366004612b1e565b6110f3565b34801561044357600080fd5b506000546001600160a01b03166103bf565b34801561046157600080fd5b50610255610470366004612b1e565b61119f565b34801561048157600080fd5b50600b54610495906001600160c01b031681565b6040516001600160c01b039091168152602001610276565b3480156104b957600080fd5b5061026c611236565b3480156104ce57600080fd5b506104e26104dd366004612d59565b6112a3565b604080516001600160a01b0390941684526020840192909252151590820152606001610276565b34801561051557600080fd5b5061026c60055481565b34801561052b57600080fd5b5061025561053a366004612d83565b6112f2565b34801561054b57600080fd5b506105546114ba565b6040516102769190612d9e565b34801561056d57600080fd5b5061026c60045481565b34801561058357600080fd5b5061026c60035481565b34801561059957600080fd5b506102556105a8366004612b1e565b61161a565b3480156105b957600080fd5b506105c26116c6565b6040516102769190612db1565b3480156105db57600080fd5b506002546103bf906001600160a01b031681565b3480156105fb57600080fd5b5061025561060a366004612b1e565b611758565b34801561061b57600080fd5b50600d546103bf906001600160a01b031681565b34801561063b57600080fd5b5061025561064a366004612d83565b611800565b34801561065b57600080fd5b5061026c60095481565b34801561067157600080fd5b50610255610680366004612c0a565b611876565b34801561069157600080fd5b506102556106a0366004612b1e565b6119a6565b3480156106b157600080fd5b506103bf6106c0366004612b1e565b611a4e565b6106cd611aaf565b600081116107305760405162461bcd60e51b815260206004820152602560248201527f4d617820757365722066756e6473206d75737420626520677265617465722074604482015264068616e20360dc1b60648201526084015b60405180910390fd5b600680549082905560408051828152602081018490527f8d7dd002c29d5c7754125d40f0fd8ea6a5295fac2a15989828ebb34c2574bb1b91015b60405180910390a15050565b6000610782600f611b09565b905090565b61078f611aaf565b600081116107ee5760405162461bcd60e51b815260206004820152602660248201527f486f72697a6f6e207365636f6e6473206d75737420626520677265617465722060448201526507468616e20360d41b6064820152608401610727565b600a80549082905560408051828152602081018490527f38a8d0753ba6b901cded33e5e04c0ab1bcda469bbfd7c0cd1166494c993ff800910161076a565b610834611aaf565b6000816001600160c01b0316116108995760405162461bcd60e51b8152602060048201526024808201527f42696420696e6372656d656e74206d75737420626520677265617465722074686044820152630616e20360e41b6064820152608401610727565b600b80546001600160c01b038381166001600160c01b031983168117909355604080519190921680825260208201939093527facd8f567a39ff757b074ca0bb782e22ea3724549d59106ac580d9ae8a3d404cd910161076a565b6108fb611aaf565b6000811161095a5760405162461bcd60e51b815260206004820152602660248201527f4d696e2066756e6420616d6f756e74206d75737420626520677265617465722060448201526507468616e20360d41b6064820152608401610727565b600580549082905560408051828152602081018490527f0d299cb67a04c232267b4f89fefd9c0ecf3337461ea4364d9c0c6cefa315b04c910161076a565b336000908152600e60205260408120805490918190036109cb57604051633b56498960e21b815260040160405180910390fd5b60005b81811015610a35578281815481106109e8576109e8612e18565b600091825260208220600390910201546040516001600160a01b039091169133917f1de42a421eef953b12e8dffca9f7ba12e7962c982fc649e5e2c32ea0e7e3ca649190a36001016109ce565b50336000908152600e60205260408120610a4e91612acc565b610a59600f33611b13565b505050565b600754811115610a815760405163f9910d2b60e01b815260040160405180910390fd5b60005b81811015610a59576000610abf848484818110610aa357610aa3612e18565b905060400201803603810190610ab99190612e44565b83611b2f565b8051909150610ace5750610b0a565b610b08848484818110610ae357610ae3612e18565b610af99260206040909202019081019150612d83565b8260200151836040015161209c565b505b600101610a84565b600554341015610b355760405163213cf26b60e01b815260040160405180910390fd5b6002546040516371d4ed8d60e11b81523360048201526000916001600160a01b03169063e3a9db1a90602401602060405180830381865afa158015610b7e573d6000803e3d6000fd5b505050506040513d601f19601f82011682018060405250810190610ba29190612eaf565b600654909150610bb23483612ede565b1115610bd1576040516303b4225160e11b815260040160405180910390fd5b610bdb3334612571565b50565b6001600160a01b038316610c055760405163e6c4247b60e01b815260040160405180910390fd5b600454821015610c285760405163c6388ef760e01b815260040160405180910390fd5b336000908152600e60205260409020600354815410610c5a57604051632990b15f60e11b815260040160405180910390fd5b60005b8154811015610cc257846001600160a01b0316828281548110610c8257610c82612e18565b60009182526020909120600390910201546001600160a01b031603610cba5760405163e8dc2ba560e01b815260040160405180910390fd5b600101610c5d565b508054600003610cd957610cd7600f3361267a565b505b604080516060810182526001600160a01b03868116825260208083018781528615159484019485528554600180820188556000888152939093209451600390910290940180546001600160a01b0319169490931693909317825591519181019190915590516002909101805460ff1916911515919091179055610d5c3334612571565b6040518381526001600160a01b0385169033907f059d7576e9633bca7696f2c9a469531f9ac98e62b3160b7fffcd804d18a7fc609060200160405180910390a350505050565b6060600080610db1600f611b09565b9050808510610e05576040805160008082526020820190925290610df8565b604080518082019091526000815260606020820152815260200190600190039081610dd05790505b5060009250925050610fa3565b600854841580610e1457508085115b15610e1d578094505b6000610e298784612ef1565b90506000868210610e3a5786610e3c565b815b90508067ffffffffffffffff811115610e5757610e57612e2e565b604051908082528060200260200182016040528015610e9d57816020015b604080518082019091526000815260606020820152815260200190600190039081610e755790505b50955060005b81811015610f8f576000610ec2610eba838c612ede565b600f9061268f565b6040805180820182526001600160a01b0383168082526000908152600e602090815283822080548551818402810184019096528086529596509294818601949392909184015b82821015610f62576000848152602090819020604080516060810182526003860290920180546001600160a01b031683526001808201548486015260029091015460ff161515918301919091529083529092019101610f08565b50505050815250888381518110610f7b57610f7b612e18565b602090810291909101015250600101610ea3565b5083610f9b828a612ede565b109450505050505b9250929050565b610fb261269b565b6002546040516371d4ed8d60e11b81523360048201526000916001600160a01b03169063e3a9db1a90602401602060405180830381865afa158015610ffb573d6000803e3d6000fd5b505050506040513d601f19601f8201168201806040525081019061101f9190612eaf565b90508060000361104257604051631e9acf1760e31b815260040160405180910390fd5b6040516000815233907f8ad64a0ac7700dd8425ab0499f107cb6e2cd1581d803c5b8c1c79dcb8190b1af9060200160405180910390a26002546040516351cff8d960e01b81523360048201526001600160a01b03909116906351cff8d990602401600060405180830381600087803b1580156110bd57600080fd5b505af11580156110d1573d6000803e3d6000fd5b50505050506110df60018055565b565b6110e9611aaf565b6110df60006126f4565b6110fb611aaf565b600081116111615760405162461bcd60e51b815260206004820152602d60248201527f4d617820636f6e747261637473207065722075736572206d757374206265206760448201526c0726561746572207468616e203609c1b6064820152608401610727565b600380549082905560408051828152602081018490527f44e02a301945994207391809c15b881ec01d97ff7327e0f67100c48218b5189d910161076a565b6111a7611aaf565b60648111156111f85760405162461bcd60e51b815260206004820152601e60248201527f4361636865207468726573686f6c64206d757374206265203c3d2031303000006044820152606401610727565b600980549082905560408051828152602081018490527fc927a23cb32fd9270062ee0ddec499f9ef996e0cec15b1f1378c92f831366be1910161076a565b6002546040516371d4ed8d60e11b81523360048201526000916001600160a01b03169063e3a9db1a90602401602060405180830381865afa15801561127f573d6000803e3d6000fd5b505050506040513d601f19601f820116820180604052508101906107829190612eaf565b600e60205281600052604060002081815481106112bf57600080fd5b60009182526020909120600390910201805460018201546002909201546001600160a01b03909116935090915060ff1683565b336000908152600e60205260408120805490910361132357604051633b56498960e21b815260040160405180910390fd5b60005b81548110156114a057826001600160a01b031682828154811061134b5761134b612e18565b60009182526020909120600390910201546001600160a01b031603611498578154829061137a90600190612ef1565b8154811061138a5761138a612e18565b90600052602060002090600302018282815481106113aa576113aa612e18565b60009182526020909120825460039092020180546001600160a01b0319166001600160a01b03909216919091178155600180830154908201556002918201549101805460ff909216151560ff19909216919091179055815482908061141157611411612f04565b60008281526020812060036000199093019283020180546001600160a01b031916815560018101829055600201805460ff1916905591558254900361145d5761145b600f33611b13565b505b6040516001600160a01b0384169033907f1de42a421eef953b12e8dffca9f7ba12e7962c982fc649e5e2c32ea0e7e3ca6490600090a3505050565b600101611326565b50604051633b56498960e21b815260040160405180910390fd5b606060006114c8600f611b09565b905060008167ffffffffffffffff8111156114e5576114e5612e2e565b60405190808252806020026020018201604052801561152b57816020015b6040805180820190915260008152606060208201528152602001906001900390816115035790505b50905060005b82811015611613576000611546600f8361268f565b6040805180820182526001600160a01b0383168082526000908152600e602090815283822080548551818402810184019096528086529596509294818601949392909184015b828210156115e6576000848152602090819020604080516060810182526003860290920180546001600160a01b031683526001808201548486015260029091015460ff16151591830191909152908352909201910161158c565b505050508152508383815181106115ff576115ff612e18565b602090810291909101015250600101611531565b5092915050565b611622611aaf565b600081116116885760405162461bcd60e51b815260206004820152602d60248201527f4d617820626964732070657220697465726174696f6e206d757374206265206760448201526c0726561746572207468616e203609c1b6064820152608401610727565b600780549082905560408051828152602081018490527fed0eeaa73981dbc606388e5f4f81ae59c756ee0f3d6e5206e7f6b1faf7db7ac4910161076a565b336000908152600e60209081526040808320805482518185028101850190935280835260609492939192909184015b8282101561174f576000848152602090819020604080516060810182526003860290920180546001600160a01b031683526001808201548486015260029091015460ff1615159183019190915290835290920191016116f5565b50505050905090565b611760611aaf565b600081116117c25760405162461bcd60e51b815260206004820152602960248201527f4d696e206d61782062696420616d6f756e74206d75737420626520677265617460448201526806572207468616e20360bc1b6064820152608401610727565b600480549082905560408051828152602081018490527fa0eff73c4fe94eb23de18add767883c0d2dd17baade44357c4408b57fd5832d5910161076a565b611808611aaf565b6001600160a01b03811661186d5760405162461bcd60e51b815260206004820152602660248201527f4f776e61626c653a206e6577206f776e657220697320746865207a65726f206160448201526564647265737360d01b6064820152608401610727565b610bdb816126f4565b6001600160a01b03831661189d5760405163e6c4247b60e01b815260040160405180910390fd5b336000908152600e60205260408120905b815481101561199f57846001600160a01b03168282815481106118d3576118d3612e18565b60009182526020909120600390910201546001600160a01b031603611997578382828154811061190557611905612e18565b9060005260206000209060030201600101819055508282828154811061192d5761192d612e18565b600091825260209182902060039190910201600201805460ff1916921515929092179091556040518581526001600160a01b0387169133917f95b3377e475434fff4b527743f79205fc694d9d2f1383dc0945f103a74eabb45910160405180910390a35050505050565b6001016118ae565b5050505050565b6119ae611aaf565b60008111611a105760405162461bcd60e51b815260206004820152602960248201527f4d6178207573657273207065722070616765206d75737420626520677265617460448201526806572207468616e20360bc1b6064820152608401610727565b600880549082905560408051828152602081018490527f15bd919a7060564dedfccc62817342f55aee1a22c1332688db82f187b883a4e4910161076a565b6000611a5a600f611b09565b8210611a9e5760405162461bcd60e51b8152602060048201526013602482015272496e646578206f7574206f6620626f756e647360681b6044820152606401610727565b611aa9600f8361268f565b92915050565b6000546001600160a01b031633146110df5760405162461bcd60e51b815260206004820181905260248201527f4f776e61626c653a2063616c6c6572206973206e6f7420746865206f776e65726044820152606401610727565b6000611aa9825490565b6000611b28836001600160a01b038416612744565b9392505050565b611b6a604080516060808201835260008083528351918201845280825260208281018290529382015290918201908152600060209091015290565b825160208401516001600160a01b0382161580611b8e57506001600160a01b038116155b15611bd157505060408051606080820183526000808352835191820184528082526020828101829052828501829052830191909152918101919091529050611aa9565b600d5460405163a72f179b60e01b81526001600160a01b038381163f60048301529091169063a72f179b90602401602060405180830381865afa158015611c1c573d6000803e3d6000fd5b505050506040513d601f19601f82011682018060405250810190611c409190612f1a565b15611c8357505060408051606080820183526000808352835191820184528082526020828101829052828501829052830191909152918101919091529050611aa9565b6001600160a01b0382166000908152600e60205260408120905b815481101561205c57826001600160a01b0316828281548110611cc257611cc2612e18565b60009182526020909120600390910201546001600160a01b03160361205457818181548110611cf357611cf3612e18565b600091825260209091206002600390920201015460ff16611d87576040518060600160405280600015158152602001838381548110611d3457611d34612e18565b6000918252602080832060408051606081018252600390940290910180546001600160a01b031684526001810154848401526002015460ff1615159083015290835291909101529450611aa99350505050565b600c546040516332052a9b60e01b81526001600160a01b03858116600483015260009216906332052a9b90602401602060405180830381865afa158015611dd2573d6000803e3d6000fd5b505050506040513d601f19601f82011682018060405250810190611df69190612f37565b90506000611e28848481548110611e0f57611e0f612e18565b9060005260206000209060030201600101548984612837565b9050816001600160c01b0316816001600160c01b03161015611ebf576040518060600160405280600015158152602001858581548110611e6a57611e6a612e18565b6000918252602080832060408051606081018252600390940290910180546001600160a01b031684526001810154848401526002015460ff1615159083015290835291909101529650611aa995505050505050565b6001600160c01b03811615611fce576002546040516371d4ed8d60e11b81526001600160a01b038881166004830152600092169063e3a9db1a90602401602060405180830381865afa158015611f19573d6000803e3d6000fd5b505050506040513d601f19601f82011682018060405250810190611f3d9190612eaf565b905080826001600160c01b03161115611fcc576040518060600160405280600015158152602001868681548110611f7657611f76612e18565b6000918252602080832060408051606081018252600390940290910180546001600160a01b031684526001810154848401526002015460ff1615159083015290835291909101529750611aa99650505050505050565b505b6040518060600160405280600115158152602001858581548110611ff457611ff4612e18565b600091825260209182902060408051606081018252600390930290910180546001600160a01b031683526001810154838501526002015460ff1615159082015282526001600160c01b039093169201919091529550611aa9945050505050565b600101611c9d565b5050604080516060808201835260008083528351918201845280825260208083018290528285018290528301919091529181019190915295945050505050565b815160208301516001600160c01b03831660000361226557600c5460405163e494015760e01b81526001600160a01b0384811660048301529091169063e4940157906000906024016000604051808303818588803b1580156120fd57600080fd5b505af19350505050801561210f575060015b61219b57816001600160a01b0316856001600160a01b03167f1bea1426429dd9b3da9c9ea7ba8cba69ac192c6431969d36b16f67da9dd75022600060405161218e9181526040602082018190526019908201527f467265652062696420706c6163656d656e74206661696c656400000000000000606082015260800190565b60405180910390a361199f565b6002546040516371d4ed8d60e11b81526001600160a01b038781166004830152600092169063e3a9db1a90602401602060405180830381865afa1580156121e6573d6000803e3d6000fd5b505050506040513d601f19601f8201168201806040525081019061220a9190612eaf565b6040805160008152602081018590529081018290529091506001600160a01b0380851691908816907fd8c744a00b9e0131cbbabb5774cdf1db85f1ee81c1aada72b5c667b6168da7b89060600160405180910390a35061199f565b60025460405163f98b209360e01b81526001600160a01b0387811660048301526001600160c01b03861660248301529091169063f98b209390604401600060405180830381600087803b1580156122bb57600080fd5b505af19250505080156122cc575060015b61234e57816001600160a01b0316856001600160a01b03167f1bea1426429dd9b3da9c9ea7ba8cba69ac192c6431969d36b16f67da9dd750228560405161218e91906001600160c01b0391909116815260406020820181905260149082015273496e73756666696369656e742062616c616e636560601b606082015260800190565b600c5460405163e494015760e01b81526001600160a01b0384811660048301529091169063e4940157906001600160c01b038616906024016000604051808303818588803b15801561239f57600080fd5b505af1935050505080156123b1575060015b61249d5760025460405163f340fa0160e01b81526001600160a01b0387811660048301529091169063f340fa01906001600160c01b038616906024016000604051808303818588803b15801561240657600080fd5b505af115801561241a573d6000803e3d6000fd5b5050505050816001600160a01b0316856001600160a01b03167f1bea1426429dd9b3da9c9ea7ba8cba69ac192c6431969d36b16f67da9dd750228560405161218e91906001600160c01b0391909116815260406020820181905260149082015273109a59081c1b1858d95b595b9d0819985a5b195960621b606082015260800190565b6002546040516371d4ed8d60e11b81526001600160a01b038781166004830152600092169063e3a9db1a90602401602060405180830381865afa1580156124e8573d6000803e3d6000fd5b505050506040513d601f19601f8201168201806040525081019061250c9190612eaf565b604080516001600160c01b0387168152602081018590529081018290529091506001600160a01b0380851691908816907fd8c744a00b9e0131cbbabb5774cdf1db85f1ee81c1aada72b5c667b6168da7b89060600160405180910390a3505050505050565b60025460405163f340fa0160e01b81526001600160a01b0384811660048301529091169063f340fa019083906024016000604051808303818588803b1580156125b957600080fd5b505af11580156125cd573d6000803e3d6000fd5b50506002546040516371d4ed8d60e11b81526001600160a01b038781166004830181905295507f8ad64a0ac7700dd8425ab0499f107cb6e2cd1581d803c5b8c1c79dcb8190b1af9450909116915063e3a9db1a90602401602060405180830381865afa158015612641573d6000803e3d6000fd5b505050506040513d601f19601f820116820180604052508101906126659190612eaf565b60405190815260200160405180910390a25050565b6000611b28836001600160a01b038416612a53565b6000611b288383612aa2565b6002600154036126ed5760405162461bcd60e51b815260206004820152601f60248201527f5265656e7472616e637947756172643a207265656e7472616e742063616c6c006044820152606401610727565b6002600155565b600080546001600160a01b038381166001600160a01b0319831681178455604051919092169283917f8be0079c531659141344cd1fd0a4f28419497f9722a3daafe3b4186f6b6457e09190a35050565b6000818152600183016020526040812054801561282d576000612768600183612ef1565b855490915060009061277c90600190612ef1565b90508181146127e157600086600001828154811061279c5761279c612e18565b90600052602060002001549050808760000184815481106127bf576127bf612e18565b6000918252602080832090910192909255918252600188019052604090208390555b85548690806127f2576127f2612f04565b600190038181906000526020600020016000905590558560010160008681526020019081526020016000206000905560019350505050611aa9565b6000915050611aa9565b600c546040805163033a532760e51b8152905160009283926001600160a01b039091169163674a64e0916004808201926020929091908290030181865afa9250505080156128a2575060408051601f3d908101601f1916820190925261289f91810190612f54565b60015b1561295e57600c60009054906101000a90046001600160a01b03166001600160a01b031663bae6c2ad6040518163ffffffff1660e01b8152600401602060405180830381865afa925050508015612916575060408051601f3d908101601f1916820190925261291391810190612f54565b60015b1561295c5767ffffffffffffffff82161561295a578167ffffffffffffffff168167ffffffffffffffff16606461294d9190612f7e565b6129579190612f95565b92505b505b505b600954811015612972576000915050611b28565b600c54604080516354fac91960e01b815290516000926001600160a01b0316916354fac9199160048083019260209291908290030181865afa9250505080156129d8575060408051601f3d908101601f191682019092526129d591810190612f54565b60015b6129e4575060006129e7565b90505b600b54600090612a00906001600160c01b031687612f7e565b600a54612a179067ffffffffffffffff8516612f7e565b612a2a906001600160c01b038816612ede565b612a349190612ede565b90506000878210612a455787612a47565b815b98975050505050505050565b6000818152600183016020526040812054612a9a57508154600181810184556000848152602080822090930184905584548482528286019093526040902091909155611aa9565b506000611aa9565b6000826000018281548110612ab957612ab9612e18565b9060005260206000200154905092915050565b5080546000825560030290600052602060002090810190610bdb91905b80821115612b1a5780546001600160a01b03191681556000600182015560028101805460ff19169055600301612ae9565b5090565b600060208284031215612b3057600080fd5b5035919050565b6001600160c01b0381168114610bdb57600080fd5b600060208284031215612b5e57600080fd5b8135611b2881612b37565b60008060208385031215612b7c57600080fd5b823567ffffffffffffffff811115612b9357600080fd5b8301601f81018513612ba457600080fd5b803567ffffffffffffffff811115612bbb57600080fd5b8560208260061b8401011115612bd057600080fd5b6020919091019590945092505050565b80356001600160a01b0381168114612bf757600080fd5b919050565b8015158114610bdb57600080fd5b600080600060608486031215612c1f57600080fd5b612c2884612be0565b9250602084013591506040840135612c3f81612bfc565b809150509250925092565b60008060408385031215612c5d57600080fd5b50508035926020909101359150565b600082825180855260208501945060208160051b8301016020850160005b83811015612d2957848303601f19018852815180516001600160a01b031684526020908101516040828601819052815190860181905291019060009060608601905b80831015612d1057835180516001600160a01b0316835260208082015190840152604090810151151590830152606082019150602084019350600183019250612ccc565b5060209a8b019a90955093909301925050600101612c8a565b50909695505050505050565b604081526000612d486040830185612c6c565b905082151560208301529392505050565b60008060408385031215612d6c57600080fd5b612d7583612be0565b946020939093013593505050565b600060208284031215612d9557600080fd5b611b2882612be0565b602081526000611b286020830184612c6c565b602080825282518282018190526000918401906040840190835b81811015612e0d57835180516001600160a01b031684526020808201519085015260409081015115159084015260608301602094909401939250600101612dcb565b509095945050505050565b634e487b7160e01b600052603260045260246000fd5b634e487b7160e01b600052604160045260246000fd5b60006040828403128015612e5757600080fd5b506040805190810167ffffffffffffffff81118282101715612e8957634e487b7160e01b600052604160045260246000fd5b604052612e9583612be0565b8152612ea360208401612be0565b60208201529392505050565b600060208284031215612ec157600080fd5b5051919050565b634e487b7160e01b600052601160045260246000fd5b80820180821115611aa957611aa9612ec8565b81810381811115611aa957611aa9612ec8565b634e487b7160e01b600052603160045260246000fd5b600060208284031215612f2c57600080fd5b8151611b2881612bfc565b600060208284031215612f4957600080fd5b8151611b2881612b37565b600060208284031215612f6657600080fd5b815167ffffffffffffffff81168114611b2857600080fd5b8082028115828204841417611aa957611aa9612ec8565b600082612fb257634e487b7160e01b600052601260045260246000fd5b50049056fea2646970667358221220453f55129723cdb23f416e71b25902fc1f7cf16140e4452d0209b3a68578561064736f6c634300081e00336080604052348015600f57600080fd5b50601733601b565b606b565b600080546001600160a01b038381166001600160a01b0319831681178455604051919092169283917f8be0079c531659141344cd1fd0a4f28419497f9722a3daafe3b4186f6b6457e09190a35050565b61068a8061007a6000396000f3fe6080604052600436106100705760003560e01c8063e3a9db1a1161004e578063e3a9db1a146100d9578063f2fde38b1461011d578063f340fa011461013d578063f98b20931461015057600080fd5b806351cff8d914610075578063715018a6146100975780638da5cb5b146100ac575b600080fd5b34801561008157600080fd5b506100956100903660046105c2565b610170565b005b3480156100a357600080fd5b506100956101e7565b3480156100b857600080fd5b506000546040516001600160a01b0390911681526020015b60405180910390f35b3480156100e557600080fd5b5061010f6100f43660046105c2565b6001600160a01b031660009081526001602052604090205490565b6040519081526020016100d0565b34801561012957600080fd5b506100956101383660046105c2565b6101fb565b61009561014b3660046105c2565b610279565b34801561015c57600080fd5b5061009561016b3660046105e6565b6102eb565b6101786103e5565b6001600160a01b03811660008181526001602052604081208054919055906101a0908261043f565b816001600160a01b03167f7084f5476618d8e60b11ef0d7d3f06914655adb8793e28ff7f018d4c76d505d5826040516101db91815260200190565b60405180910390a25050565b6101ef6103e5565b6101f9600061055d565b565b6102036103e5565b6001600160a01b03811661026d5760405162461bcd60e51b815260206004820152602660248201527f4f776e61626c653a206e6577206f776e657220697320746865207a65726f206160448201526564647265737360d01b60648201526084015b60405180910390fd5b6102768161055d565b50565b6102816103e5565b6001600160a01b0381166000908152600160205260408120805434928392916102ab908490610628565b90915550506040518181526001600160a01b038316907f2da466a7b24304f47e87fa2e1e5a81b9831ce54fec19055ce277ca2f39ba42c4906020016101db565b6102f36103e5565b6001600160a01b038216600090815260016020526040902054808211156103555760405162461bcd60e51b8152602060048201526016602482015275416d6f756e7420657863656564732062616c616e636560501b6044820152606401610264565b61035f8282610641565b6001600160a01b03841660009081526001602052604090205561039d8261038e6000546001600160a01b031690565b6001600160a01b03169061043f565b826001600160a01b03167f7084f5476618d8e60b11ef0d7d3f06914655adb8793e28ff7f018d4c76d505d5836040516103d891815260200190565b60405180910390a2505050565b6000546001600160a01b031633146101f95760405162461bcd60e51b815260206004820181905260248201527f4f776e61626c653a2063616c6c6572206973206e6f7420746865206f776e65726044820152606401610264565b8047101561048f5760405162461bcd60e51b815260206004820152601d60248201527f416464726573733a20696e73756666696369656e742062616c616e63650000006044820152606401610264565b6000826001600160a01b03168260405160006040518083038185875af1925050503d80600081146104dc576040519150601f19603f3d011682016040523d82523d6000602084013e6104e1565b606091505b50509050806105585760405162461bcd60e51b815260206004820152603a60248201527f416464726573733a20756e61626c6520746f2073656e642076616c75652c207260448201527f6563697069656e74206d617920686176652072657665727465640000000000006064820152608401610264565b505050565b600080546001600160a01b038381166001600160a01b0319831681178455604051919092169283917f8be0079c531659141344cd1fd0a4f28419497f9722a3daafe3b4186f6b6457e09190a35050565b6001600160a01b038116811461027657600080fd5b6000602082840312156105d457600080fd5b81356105df816105ad565b9392505050565b600080604083850312156105f957600080fd5b8235610604816105ad565b946020939093013593505050565b634e487b7160e01b600052601160045260246000fd5b8082018082111561063b5761063b610612565b92915050565b8181038181111561063b5761063b61061256fea264697066735822122018c752b440c890c79cc776d03196960293901a78fc2348ff89dc58681508afb964736f6c634300081e0033",
          "opcodes": "PUSH1 0x80 PUSH1 0x40 MSTORE CALLVALUE DUP1 ISZERO PUSH2 0x10 JUMPI PUSH1 0x0 DUP1 REVERT JUMPDEST POP PUSH1 0x40 MLOAD PUSH2 0x38FF CODESIZE SUB DUP1 PUSH2 0x38FF DUP4 CODECOPY DUP2 ADD PUSH1 0x40 DUP2 SWAP1 MSTORE PUSH2 0x2F SWAP2 PUSH2 0x1CC JUMP JUMPDEST PUSH2 0x38 CALLER PUSH2 0x153 JUMP JUMPDEST PUSH1 0x1 DUP1 SSTORE PUSH1 0x1 PUSH1 0x1 PUSH1 0xA0 SHL SUB DUP3 AND PUSH2 0x63 JUMPI PUSH1 0x40 MLOAD PUSH4 0xE6C4247B PUSH1 0xE0 SHL DUP2 MSTORE PUSH1 0x4 ADD PUSH1 0x40 MLOAD DUP1 SWAP2 SUB SWAP1 REVERT JUMPDEST PUSH1 0x1 PUSH1 0x1 PUSH1 0xA0 SHL SUB DUP2 AND PUSH2 0x8A JUMPI PUSH1 0x40 MLOAD PUSH4 0xE6C4247B PUSH1 0xE0 SHL DUP2 MSTORE PUSH1 0x4 ADD PUSH1 0x40 MLOAD DUP1 SWAP2 SUB SWAP1 REVERT JUMPDEST PUSH1 0xC DUP1 SLOAD PUSH1 0x1 PUSH1 0x1 PUSH1 0xA0 SHL SUB DUP1 DUP6 AND PUSH1 0x1 PUSH1 0x1 PUSH1 0xA0 SHL SUB NOT SWAP3 DUP4 AND OR SWAP1 SWAP3 SSTORE PUSH1 0xD DUP1 SLOAD SWAP3 DUP5 AND SWAP3 SWAP1 SWAP2 AND SWAP2 SWAP1 SWAP2 OR SWAP1 SSTORE PUSH1 0x40 MLOAD PUSH2 0xC6 SWAP1 PUSH2 0x1A3 JUMP JUMPDEST PUSH1 0x40 MLOAD DUP1 SWAP2 SUB SWAP1 PUSH1 0x0 CREATE DUP1 ISZERO DUP1 ISZERO PUSH2 0xE2 JUMPI RETURNDATASIZE PUSH1 0x0 DUP1 RETURNDATACOPY RETURNDATASIZE PUSH1 0x0 REVERT JUMPDEST POP PUSH1 0x2 DUP1 SLOAD PUSH1 0x1 PUSH1 0x1 PUSH1 0xA0 SHL SUB NOT AND PUSH1 0x1 PUSH1 0x1 PUSH1 0xA0 SHL SUB SWAP3 SWAP1 SWAP3 AND SWAP2 SWAP1 SWAP2 OR SWAP1 SSTORE POP POP PUSH1 0x32 PUSH1 0x3 DUP2 SWAP1 SSTORE PUSH1 0x1 PUSH1 0x4 DUP2 SWAP1 SSTORE PUSH1 0x5 DUP2 SWAP1 SSTORE PUSH8 0xDE0B6B3A7640000 PUSH1 0x6 SSTORE PUSH1 0x7 SWAP2 SWAP1 SWAP2 SSTORE PUSH1 0x64 PUSH1 0x8 SSTORE PUSH1 0x62 PUSH1 0x9 SSTORE PUSH3 0x278D00 PUSH1 0xA SSTORE PUSH1 0xB DUP1 SLOAD PUSH1 0x1 PUSH1 0x1 PUSH1 0xC0 SHL SUB NOT AND SWAP1 SWAP2 OR SWAP1 SSTORE PUSH2 0x1FF JUMP JUMPDEST PUSH1 0x0 DUP1 SLOAD PUSH1 0x1 PUSH1 0x1 PUSH1 0xA0 SHL SUB DUP4 DUP2 AND PUSH1 0x1 PUSH1 0x1 PUSH1 0xA0 SHL SUB NOT DUP4 AND DUP2 OR DUP5 SSTORE PUSH1 0x40 MLOAD SWAP2 SWAP1 SWAP3 AND SWAP3 DUP4 SWAP2 PUSH32 0x8BE0079C531659141344CD1FD0A4F28419497F9722A3DAAFE3B4186F6B6457E0 SWAP2 SWAP1 LOG3 POP POP JUMP JUMPDEST PUSH2 0x704 DUP1 PUSH2 0x31FB DUP4 CODECOPY ADD SWAP1 JUMP JUMPDEST DUP1 MLOAD PUSH1 0x1 PUSH1 0x1 PUSH1 0xA0 SHL SUB DUP2 AND DUP2 EQ PUSH2 0x1C7 JUMPI PUSH1 0x0 DUP1 REVERT JUMPDEST SWAP2 SWAP1 POP JUMP JUMPDEST PUSH1 0x0 DUP1 PUSH1 0x40 DUP4 DUP6 SUB SLT ISZERO PUSH2 0x1DF JUMPI PUSH1 0x0 DUP1 REVERT JUMPDEST PUSH2 0x1E8 DUP4 PUSH2 0x1B0 JUMP JUMPDEST SWAP2 POP PUSH2 0x1F6 PUSH1 0x20 DUP5 ADD PUSH2 0x1B0 JUMP JUMPDEST SWAP1 POP SWAP3 POP SWAP3 SWAP1 POP JUMP JUMPDEST PUSH2 0x2FED DUP1 PUSH2 0x20E PUSH1 0x0 CODECOPY PUSH1 0x0 RETURN INVALID PUSH1 0x80 PUSH1 0x40 MSTORE PUSH1 0x4 CALLDATASIZE LT PUSH2 0x229 JUMPI PUSH1 0x0 CALLDATALOAD PUSH1 0xE0 SHR DUP1 PUSH4 0x9D0DD050 GT PUSH2 0x123 JUMPI DUP1 PUSH4 0xD1993526 GT PUSH2 0xAB JUMPI DUP1 PUSH4 0xF2FDE38B GT PUSH2 0x6F JUMPI DUP1 PUSH4 0xF2FDE38B EQ PUSH2 0x62F JUMPI DUP1 PUSH4 0xF76DFCC7 EQ PUSH2 0x64F JUMPI DUP1 PUSH4 0xFB5842F3 EQ PUSH2 0x665 JUMPI DUP1 PUSH4 0xFEC4EA1B EQ PUSH2 0x685 JUMPI DUP1 PUSH4 0xFFCC7BBF EQ PUSH2 0x6A5 JUMPI PUSH1 0x0 DUP1 REVERT JUMPDEST DUP1 PUSH4 0xD1993526 EQ PUSH2 0x58D JUMPI DUP1 PUSH4 0xDFC41F44 EQ PUSH2 0x5AD JUMPI DUP1 PUSH4 0xE2FDCC17 EQ PUSH2 0x5CF JUMPI DUP1 PUSH4 0xE6D5A326 EQ PUSH2 0x5EF JUMPI DUP1 PUSH4 0xE8CC05D7 EQ PUSH2 0x60F JUMPI PUSH1 0x0 DUP1 REVERT JUMPDEST DUP1 PUSH4 0xBA4D35B3 GT PUSH2 0xF2 JUMPI DUP1 PUSH4 0xBA4D35B3 EQ PUSH2 0x509 JUMPI DUP1 PUSH4 0xC375C2EF EQ PUSH2 0x51F JUMPI DUP1 PUSH4 0xC3A2A93A EQ PUSH2 0x53F JUMPI DUP1 PUSH4 0xCD46D432 EQ PUSH2 0x561 JUMPI DUP1 PUSH4 0xCF0649F0 EQ PUSH2 0x577 JUMPI PUSH1 0x0 DUP1 REVERT JUMPDEST DUP1 PUSH4 0x9D0DD050 EQ PUSH2 0x455 JUMPI DUP1 PUSH4 0xB3CC167A EQ PUSH2 0x475 JUMPI DUP1 PUSH4 0xB7013DC1 EQ PUSH2 0x4AD JUMPI DUP1 PUSH4 0xB789003D EQ PUSH2 0x4C2 JUMPI PUSH1 0x0 DUP1 REVERT JUMPDEST DUP1 PUSH4 0x3C067945 GT PUSH2 0x1B1 JUMPI DUP1 PUSH4 0x5FD8C710 GT PUSH2 0x175 JUMPI DUP1 PUSH4 0x5FD8C710 EQ PUSH2 0x3D7 JUMPI DUP1 PUSH4 0x6FA1BB9E EQ PUSH2 0x3EC JUMPI DUP1 PUSH4 0x715018A6 EQ PUSH2 0x402 JUMPI DUP1 PUSH4 0x7F02FD94 EQ PUSH2 0x417 JUMPI DUP1 PUSH4 0x8DA5CB5B EQ PUSH2 0x437 JUMPI PUSH1 0x0 DUP1 REVERT JUMPDEST DUP1 PUSH4 0x3C067945 EQ PUSH2 0x340 JUMPI DUP1 PUSH4 0x3D4D8388 EQ PUSH2 0x348 JUMPI DUP1 PUSH4 0x467EA9F4 EQ PUSH2 0x35E JUMPI DUP1 PUSH4 0x483ECE06 EQ PUSH2 0x371 JUMPI DUP1 PUSH4 0x59838A15 EQ PUSH2 0x39F JUMPI PUSH1 0x0 DUP1 REVERT JUMPDEST DUP1 PUSH4 0x1FA4840D GT PUSH2 0x1F8 JUMPI DUP1 PUSH4 0x1FA4840D EQ PUSH2 0x2BF JUMPI DUP1 PUSH4 0x25221A16 EQ PUSH2 0x2D5 JUMPI DUP1 PUSH4 0x26B2EB6E EQ PUSH2 0x2EB JUMPI DUP1 PUSH4 0x3347F4C0 EQ PUSH2 0x30B JUMPI DUP1 PUSH4 0x33932260 EQ PUSH2 0x320 JUMPI PUSH1 0x0 DUP1 REVERT JUMPDEST DUP1 PUSH4 0x208EF67 EQ PUSH2 0x235 JUMPI DUP1 PUSH4 0x561010C EQ PUSH2 0x257 JUMPI DUP1 PUSH4 0x81657B7 EQ PUSH2 0x27F JUMPI DUP1 PUSH4 0x152533AD EQ PUSH2 0x29F JUMPI PUSH1 0x0 DUP1 REVERT JUMPDEST CALLDATASIZE PUSH2 0x230 JUMPI STOP JUMPDEST PUSH1 0x0 DUP1 REVERT JUMPDEST CALLVALUE DUP1 ISZERO PUSH2 0x241 JUMPI PUSH1 0x0 DUP1 REVERT JUMPDEST POP PUSH2 0x255 PUSH2 0x250 CALLDATASIZE PUSH1 0x4 PUSH2 0x2B1E JUMP JUMPDEST PUSH2 0x6C5 JUMP JUMPDEST STOP JUMPDEST CALLVALUE DUP1 ISZERO PUSH2 0x263 JUMPI PUSH1 0x0 DUP1 REVERT JUMPDEST POP PUSH2 0x26C PUSH2 0x776 JUMP JUMPDEST PUSH1 0x40 MLOAD SWAP1 DUP2 MSTORE PUSH1 0x20 ADD JUMPDEST PUSH1 0x40 MLOAD DUP1 SWAP2 SUB SWAP1 RETURN JUMPDEST CALLVALUE DUP1 ISZERO PUSH2 0x28B JUMPI PUSH1 0x0 DUP1 REVERT JUMPDEST POP PUSH2 0x255 PUSH2 0x29A CALLDATASIZE PUSH1 0x4 PUSH2 0x2B1E JUMP JUMPDEST PUSH2 0x787 JUMP JUMPDEST CALLVALUE DUP1 ISZERO PUSH2 0x2AB JUMPI PUSH1 0x0 DUP1 REVERT JUMPDEST POP PUSH2 0x255 PUSH2 0x2BA CALLDATASIZE PUSH1 0x4 PUSH2 0x2B4C JUMP JUMPDEST PUSH2 0x82C JUMP JUMPDEST CALLVALUE DUP1 ISZERO PUSH2 0x2CB JUMPI PUSH1 0x0 DUP1 REVERT JUMPDEST POP PUSH2 0x26C PUSH1 0x6 SLOAD DUP2 JUMP JUMPDEST CALLVALUE DUP1 ISZERO PUSH2 0x2E1 JUMPI PUSH1 0x0 DUP1 REVERT JUMPDEST POP PUSH2 0x26C PUSH1 0xA SLOAD DUP2 JUMP JUMPDEST CALLVALUE DUP1 ISZERO PUSH2 0x2F7 JUMPI PUSH1 0x0 DUP1 REVERT JUMPDEST POP PUSH2 0x255 PUSH2 0x306 CALLDATASIZE PUSH1 0x4 PUSH2 0x2B1E JUMP JUMPDEST PUSH2 0x8F3 JUMP JUMPDEST CALLVALUE DUP1 ISZERO PUSH2 0x317 JUMPI PUSH1 0x0 DUP1 REVERT JUMPDEST POP PUSH2 0x255 PUSH2 0x998 JUMP JUMPDEST CALLVALUE DUP1 ISZERO PUSH2 0x32C JUMPI PUSH1 0x0 DUP1 REVERT JUMPDEST POP PUSH2 0x255 PUSH2 0x33B CALLDATASIZE PUSH1 0x4 PUSH2 0x2B69 JUMP JUMPDEST PUSH2 0xA5E JUMP JUMPDEST PUSH2 0x255 PUSH2 0xB12 JUMP JUMPDEST CALLVALUE DUP1 ISZERO PUSH2 0x354 JUMPI PUSH1 0x0 DUP1 REVERT JUMPDEST POP PUSH2 0x26C PUSH1 0x7 SLOAD DUP2 JUMP JUMPDEST PUSH2 0x255 PUSH2 0x36C CALLDATASIZE PUSH1 0x4 PUSH2 0x2C0A JUMP JUMPDEST PUSH2 0xBDE JUMP JUMPDEST CALLVALUE DUP1 ISZERO PUSH2 0x37D JUMPI PUSH1 0x0 DUP1 REVERT JUMPDEST POP PUSH2 0x391 PUSH2 0x38C CALLDATASIZE PUSH1 0x4 PUSH2 0x2C4A JUMP JUMPDEST PUSH2 0xDA2 JUMP JUMPDEST PUSH1 0x40 MLOAD PUSH2 0x276 SWAP3 SWAP2 SWAP1 PUSH2 0x2D35 JUMP JUMPDEST CALLVALUE DUP1 ISZERO PUSH2 0x3AB JUMPI PUSH1 0x0 DUP1 REVERT JUMPDEST POP PUSH1 0xC SLOAD PUSH2 0x3BF SWAP1 PUSH1 0x1 PUSH1 0x1 PUSH1 0xA0 SHL SUB AND DUP2 JUMP JUMPDEST PUSH1 0x40 MLOAD PUSH1 0x1 PUSH1 0x1 PUSH1 0xA0 SHL SUB SWAP1 SWAP2 AND DUP2 MSTORE PUSH1 0x20 ADD PUSH2 0x276 JUMP JUMPDEST CALLVALUE DUP1 ISZERO PUSH2 0x3E3 JUMPI PUSH1 0x0 DUP1 REVERT JUMPDEST POP PUSH2 0x255 PUSH2 0xFAA JUMP JUMPDEST CALLVALUE DUP1 ISZERO PUSH2 0x3F8 JUMPI PUSH1 0x0 DUP1 REVERT JUMPDEST POP PUSH2 0x26C PUSH1 0x8 SLOAD DUP2 JUMP JUMPDEST CALLVALUE DUP1 ISZERO PUSH2 0x40E JUMPI PUSH1 0x0 DUP1 REVERT JUMPDEST POP PUSH2 0x255 PUSH2 0x10E1 JUMP JUMPDEST CALLVALUE DUP1 ISZERO PUSH2 0x423 JUMPI PUSH1 0x0 DUP1 REVERT JUMPDEST POP PUSH2 0x255 PUSH2 0x432 CALLDATASIZE PUSH1 0x4 PUSH2 0x2B1E JUMP JUMPDEST PUSH2 0x10F3 JUMP JUMPDEST CALLVALUE DUP1 ISZERO PUSH2 0x443 JUMPI PUSH1 0x0 DUP1 REVERT JUMPDEST POP PUSH1 0x0 SLOAD PUSH1 0x1 PUSH1 0x1 PUSH1 0xA0 SHL SUB AND PUSH2 0x3BF JUMP JUMPDEST CALLVALUE DUP1 ISZERO PUSH2 0x461 JUMPI PUSH1 0x0 DUP1 REVERT JUMPDEST POP PUSH2 0x255 PUSH2 0x470 CALLDATASIZE PUSH1 0x4 PUSH2 0x2B1E JUMP JUMPDEST PUSH2 0x119F JUMP JUMPDEST CALLVALUE DUP1 ISZERO PUSH2 0x481 JUMPI PUSH1 0x0 DUP1 REVERT JUMPDEST POP PUSH1 0xB SLOAD PUSH2 0x495 SWAP1 PUSH1 0x1 PUSH1 0x1 PUSH1 0xC0 SHL SUB AND DUP2 JUMP JUMPDEST PUSH1 0x40 MLOAD PUSH1 0x1 PUSH1 0x1 PUSH1 0xC0 SHL SUB SWAP1 SWAP2 AND DUP2 MSTORE PUSH1 0x20 ADD PUSH2 0x276 JUMP JUMPDEST CALLVALUE DUP1 ISZERO PUSH2 0x4B9 JUMPI PUSH1 0x0 DUP1 REVERT JUMPDEST POP PUSH2 0x26C PUSH2 0x1236 JUMP JUMPDEST CALLVALUE DUP1 ISZERO PUSH2 0x4CE JUMPI PUSH1 0x0 DUP1 REVERT JUMPDEST POP PUSH2 0x4E2 PUSH2 0x4DD CALLDATASIZE PUSH1 0x4 PUSH2 0x2D59 JUMP JUMPDEST PUSH2 0x12A3 JUMP JUMPDEST PUSH1 0x40 DUP1 MLOAD PUSH1 0x1 PUSH1 0x1 PUSH1 0xA0 SHL SUB SWAP1 SWAP5 AND DUP5 MSTORE PUSH1 0x20 DUP5 ADD SWAP3 SWAP1 SWAP3 MSTORE ISZERO ISZERO SWAP1 DUP3 ADD MSTORE PUSH1 0x60 ADD PUSH2 0x276 JUMP JUMPDEST CALLVALUE DUP1 ISZERO PUSH2 0x515 JUMPI PUSH1 0x0 DUP1 REVERT JUMPDEST POP PUSH2 0x26C PUSH1 0x5 SLOAD DUP2 JUMP JUMPDEST CALLVALUE DUP1 ISZERO PUSH2 0x52B JUMPI PUSH1 0x0 DUP1 REVERT JUMPDEST POP PUSH2 0x255 PUSH2 0x53A CALLDATASIZE PUSH1 0x4 PUSH2 0x2D83 JUMP JUMPDEST PUSH2 0x12F2 JUMP JUMPDEST CALLVALUE DUP1 ISZERO PUSH2 0x54B JUMPI PUSH1 0x0 DUP1 REVERT JUMPDEST POP PUSH2 0x554 PUSH2 0x14BA JUMP JUMPDEST PUSH1 0x40 MLOAD PUSH2 0x276 SWAP2 SWAP1 PUSH2 0x2D9E JUMP JUMPDEST CALLVALUE DUP1 ISZERO PUSH2 0x56D JUMPI PUSH1 0x0 DUP1 REVERT JUMPDEST POP PUSH2 0x26C PUSH1 0x4 SLOAD DUP2 JUMP JUMPDEST CALLVALUE DUP1 ISZERO PUSH2 0x583 JUMPI PUSH1 0x0 DUP1 REVERT JUMPDEST POP PUSH2 0x26C PUSH1 0x3 SLOAD DUP2 JUMP JUMPDEST CALLVALUE DUP1 ISZERO PUSH2 0x599 JUMPI PUSH1 0x0 DUP1 REVERT JUMPDEST POP PUSH2 0x255 PUSH2 0x5A8 CALLDATASIZE PUSH1 0x4 PUSH2 0x2B1E JUMP JUMPDEST PUSH2 0x161A JUMP JUMPDEST CALLVALUE DUP1 ISZERO PUSH2 0x5B9 JUMPI PUSH1 0x0 DUP1 REVERT JUMPDEST POP PUSH2 0x5C2 PUSH2 0x16C6 JUMP JUMPDEST PUSH1 0x40 MLOAD PUSH2 0x276 SWAP2 SWAP1 PUSH2 0x2DB1 JUMP JUMPDEST CALLVALUE DUP1 ISZERO PUSH2 0x5DB JUMPI PUSH1 0x0 DUP1 REVERT JUMPDEST POP PUSH1 0x2 SLOAD PUSH2 0x3BF SWAP1 PUSH1 0x1 PUSH1 0x1 PUSH1 0xA0 SHL SUB AND DUP2 JUMP JUMPDEST CALLVALUE DUP1 ISZERO PUSH2 0x5FB JUMPI PUSH1 0x0 DUP1 REVERT JUMPDEST POP PUSH2 0x255 PUSH2 0x60A CALLDATASIZE PUSH1 0x4 PUSH2 0x2B1E JUMP JUMPDEST PUSH2 0x1758 JUMP JUMPDEST CALLVALUE DUP1 ISZERO PUSH2 0x61B JUMPI PUSH1 0x0 DUP1 REVERT JUMPDEST POP PUSH1 0xD SLOAD PUSH2 0x3BF SWAP1 PUSH1 0x1 PUSH1 0x1 PUSH1 0xA0 SHL SUB AND DUP2 JUMP JUMPDEST CALLVALUE DUP1 ISZERO PUSH2 0x63B JUMPI PUSH1 0x0 DUP1 REVERT JUMPDEST POP PUSH2 0x255 PUSH2 0x64A CALLDATASIZE PUSH1 0x4 PUSH2 0x2D83 JUMP JUMPDEST PUSH2 0x1800 JUMP JUMPDEST CALLVALUE DUP1 ISZERO PUSH2 0x65B JUMPI PUSH1 0x0 DUP1 REVERT JUMPDEST POP PUSH2 0x26C PUSH1 0x9 SLOAD DUP2 JUMP JUMPDEST CALLVALUE DUP1 ISZERO PUSH2 0x671 JUMPI PUSH1 0x0 DUP1 REVERT JUMPDEST POP PUSH2 0x255 PUSH2 0x680 CALLDATASIZE PUSH1 0x4 PUSH2 0x2C0A JUMP JUMPDEST PUSH2 0x1876 JUMP JUMPDEST CALLVALUE DUP1 ISZERO PUSH2 0x691 JUMPI PUSH1 0x0 DUP1 REVERT JUMPDEST POP PUSH2 0x255 PUSH2 0x6A0 CALLDATASIZE PUSH1 0x4 PUSH2 0x2B1E JUMP JUMPDEST PUSH2 0x19A6 JUMP JUMPDEST CALLVALUE DUP1 ISZERO PUSH2 0x6B1 JUMPI PUSH1 0x0 DUP1 REVERT JUMPDEST POP PUSH2 0x3BF PUSH2 0x6C0 CALLDATASIZE PUSH1 0x4 PUSH2 0x2B1E JUMP JUMPDEST PUSH2 0x1A4E JUMP JUMPDEST PUSH2 0x6CD PUSH2 0x1AAF JUMP JUMPDEST PUSH1 0x0 DUP2 GT PUSH2 0x730 JUMPI PUSH1 0x40 MLOAD PUSH3 0x461BCD PUSH1 0xE5 SHL DUP2 MSTORE PUSH1 0x20 PUSH1 0x4 DUP3 ADD MSTORE PUSH1 0x25 PUSH1 0x24 DUP3 ADD MSTORE PUSH32 0x4D617820757365722066756E6473206D75737420626520677265617465722074 PUSH1 0x44 DUP3 ADD MSTORE PUSH5 0x68616E203 PUSH1 0xDC SHL PUSH1 0x64 DUP3 ADD MSTORE PUSH1 0x84 ADD JUMPDEST PUSH1 0x40 MLOAD DUP1 SWAP2 SUB SWAP1 REVERT JUMPDEST PUSH1 0x6 DUP1 SLOAD SWAP1 DUP3 SWAP1 SSTORE PUSH1 0x40 DUP1 MLOAD DUP3 DUP2 MSTORE PUSH1 0x20 DUP2 ADD DUP5 SWAP1 MSTORE PUSH32 0x8D7DD002C29D5C7754125D40F0FD8EA6A5295FAC2A15989828EBB34C2574BB1B SWAP2 ADD JUMPDEST PUSH1 0x40 MLOAD DUP1 SWAP2 SUB SWAP1 LOG1 POP POP JUMP JUMPDEST PUSH1 0x0 PUSH2 0x782 PUSH1 0xF PUSH2 0x1B09 JUMP JUMPDEST SWAP1 POP SWAP1 JUMP JUMPDEST PUSH2 0x78F PUSH2 0x1AAF JUMP JUMPDEST PUSH1 0x0 DUP2 GT PUSH2 0x7EE JUMPI PUSH1 0x40 MLOAD PUSH3 0x461BCD PUSH1 0xE5 SHL DUP2 MSTORE PUSH1 0x20 PUSH1 0x4 DUP3 ADD MSTORE PUSH1 0x26 PUSH1 0x24 DUP3 ADD MSTORE PUSH32 0x486F72697A6F6E207365636F6E6473206D757374206265206772656174657220 PUSH1 0x44 DUP3 ADD MSTORE PUSH6 0x7468616E203 PUSH1 0xD4 SHL PUSH1 0x64 DUP3 ADD MSTORE PUSH1 0x84 ADD PUSH2 0x727 JUMP JUMPDEST PUSH1 0xA DUP1 SLOAD SWAP1 DUP3 SWAP1 SSTORE PUSH1 0x40 DUP1 MLOAD DUP3 DUP2 MSTORE PUSH1 0x20 DUP2 ADD DUP5 SWAP1 MSTORE PUSH32 0x38A8D0753BA6B901CDED33E5E04C0AB1BCDA469BBFD7C0CD1166494C993FF800 SWAP2 ADD PUSH2 0x76A JUMP JUMPDEST PUSH2 0x834 PUSH2 0x1AAF JUMP JUMPDEST PUSH1 0x0 DUP2 PUSH1 0x1 PUSH1 0x1 PUSH1 0xC0 SHL SUB AND GT PUSH2 0x899 JUMPI PUSH1 0x40 MLOAD PUSH3 0x461BCD PUSH1 0xE5 SHL DUP2 MSTORE PUSH1 0x20 PUSH1 0x4 DUP3 ADD MSTORE PUSH1 0x24 DUP1 DUP3 ADD MSTORE PUSH32 0x42696420696E6372656D656E74206D7573742062652067726561746572207468 PUSH1 0x44 DUP3 ADD MSTORE PUSH4 0x616E203 PUSH1 0xE4 SHL PUSH1 0x64 DUP3 ADD MSTORE PUSH1 0x84 ADD PUSH2 0x727 JUMP JUMPDEST PUSH1 0xB DUP1 SLOAD PUSH1 0x1 PUSH1 0x1 PUSH1 0xC0 SHL SUB DUP4 DUP2 AND PUSH1 0x1 PUSH1 0x1 PUSH1 0xC0 SHL SUB NOT DUP4 AND DUP2 OR SWAP1 SWAP4 SSTORE PUSH1 0x40 DUP1 MLOAD SWAP2 SWAP1 SWAP3 AND DUP1 DUP3 MSTORE PUSH1 0x20 DUP3 ADD SWAP4 SWAP1 SWAP4 MSTORE PUSH32 0xACD8F567A39FF757B074CA0BB782E22EA3724549D59106AC580D9AE8A3D404CD SWAP2 ADD PUSH2 0x76A JUMP JUMPDEST PUSH2 0x8FB PUSH2 0x1AAF JUMP JUMPDEST PUSH1 0x0 DUP2 GT PUSH2 0x95A JUMPI PUSH1 0x40 MLOAD PUSH3 0x461BCD PUSH1 0xE5 SHL DUP2 MSTORE PUSH1 0x20 PUSH1 0x4 DUP3 ADD MSTORE PUSH1 0x26 PUSH1 0x24 DUP3 ADD MSTORE PUSH32 0x4D696E2066756E6420616D6F756E74206D757374206265206772656174657220 PUSH1 0x44 DUP3 ADD MSTORE PUSH6 0x7468616E203 PUSH1 0xD4 SHL PUSH1 0x64 DUP3 ADD MSTORE PUSH1 0x84 ADD PUSH2 0x727 JUMP JUMPDEST PUSH1 0x5 DUP1 SLOAD SWAP1 DUP3 SWAP1 SSTORE PUSH1 0x40 DUP1 MLOAD DUP3 DUP2 MSTORE PUSH1 0x20 DUP2 ADD DUP5 SWAP1 MSTORE PUSH32 0xD299CB67A04C232267B4F89FEFD9C0ECF3337461EA4364D9C0C6CEFA315B04C SWAP2 ADD PUSH2 0x76A JUMP JUMPDEST CALLER PUSH1 0x0 SWAP1 DUP2 MSTORE PUSH1 0xE PUSH1 0x20 MSTORE PUSH1 0x40 DUP2 KECCAK256 DUP1 SLOAD SWAP1 SWAP2 DUP2 SWAP1 SUB PUSH2 0x9CB JUMPI PUSH1 0x40 MLOAD PUSH4 0x3B564989 PUSH1 0xE2 SHL DUP2 MSTORE PUSH1 0x4 ADD PUSH1 0x40 MLOAD DUP1 SWAP2 SUB SWAP1 REVERT JUMPDEST PUSH1 0x0 JUMPDEST DUP2 DUP2 LT ISZERO PUSH2 0xA35 JUMPI DUP3 DUP2 DUP2 SLOAD DUP2 LT PUSH2 0x9E8 JUMPI PUSH2 0x9E8 PUSH2 0x2E18 JUMP JUMPDEST PUSH1 0x0 SWAP2 DUP3 MSTORE PUSH1 0x20 DUP3 KECCAK256 PUSH1 0x3 SWAP1 SWAP2 MUL ADD SLOAD PUSH1 0x40 MLOAD PUSH1 0x1 PUSH1 0x1 PUSH1 0xA0 SHL SUB SWAP1 SWAP2 AND SWAP2 CALLER SWAP2 PUSH32 0x1DE42A421EEF953B12E8DFFCA9F7BA12E7962C982FC649E5E2C32EA0E7E3CA64 SWAP2 SWAP1 LOG3 PUSH1 0x1 ADD PUSH2 0x9CE JUMP JUMPDEST POP CALLER PUSH1 0x0 SWAP1 DUP2 MSTORE PUSH1 0xE PUSH1 0x20 MSTORE PUSH1 0x40 DUP2 KECCAK256 PUSH2 0xA4E SWAP2 PUSH2 0x2ACC JUMP JUMPDEST PUSH2 0xA59 PUSH1 0xF CALLER PUSH2 0x1B13 JUMP JUMPDEST POP POP POP JUMP JUMPDEST PUSH1 0x7 SLOAD DUP2 GT ISZERO PUSH2 0xA81 JUMPI PUSH1 0x40 MLOAD PUSH4 0xF9910D2B PUSH1 0xE0 SHL DUP2 MSTORE PUSH1 0x4 ADD PUSH1 0x40 MLOAD DUP1 SWAP2 SUB SWAP1 REVERT JUMPDEST PUSH1 0x0 JUMPDEST DUP2 DUP2 LT ISZERO PUSH2 0xA59 JUMPI PUSH1 0x0 PUSH2 0xABF DUP5 DUP5 DUP5 DUP2 DUP2 LT PUSH2 0xAA3 JUMPI PUSH2 0xAA3 PUSH2 0x2E18 JUMP JUMPDEST SWAP1 POP PUSH1 0x40 MUL ADD DUP1 CALLDATASIZE SUB DUP2 ADD SWAP1 PUSH2 0xAB9 SWAP2 SWAP1 PUSH2 0x2E44 JUMP JUMPDEST DUP4 PUSH2 0x1B2F JUMP JUMPDEST DUP1 MLOAD SWAP1 SWAP2 POP PUSH2 0xACE JUMPI POP PUSH2 0xB0A JUMP JUMPDEST PUSH2 0xB08 DUP5 DUP5 DUP5 DUP2 DUP2 LT PUSH2 0xAE3 JUMPI PUSH2 0xAE3 PUSH2 0x2E18 JUMP JUMPDEST PUSH2 0xAF9 SWAP3 PUSH1 0x20 PUSH1 0x40 SWAP1 SWAP3 MUL ADD SWAP1 DUP2 ADD SWAP2 POP PUSH2 0x2D83 JUMP JUMPDEST DUP3 PUSH1 0x20 ADD MLOAD DUP4 PUSH1 0x40 ADD MLOAD PUSH2 0x209C JUMP JUMPDEST POP JUMPDEST PUSH1 0x1 ADD PUSH2 0xA84 JUMP JUMPDEST PUSH1 0x5 SLOAD CALLVALUE LT ISZERO PUSH2 0xB35 JUMPI PUSH1 0x40 MLOAD PUSH4 0x213CF26B PUSH1 0xE0 SHL DUP2 MSTORE PUSH1 0x4 ADD PUSH1 0x40 MLOAD DUP1 SWAP2 SUB SWAP1 REVERT JUMPDEST PUSH1 0x2 SLOAD PUSH1 0x40 MLOAD PUSH4 0x71D4ED8D PUSH1 0xE1 SHL DUP2 MSTORE CALLER PUSH1 0x4 DUP3 ADD MSTORE PUSH1 0x0 SWAP2 PUSH1 0x1 PUSH1 0x1 PUSH1 0xA0 SHL SUB AND SWAP1 PUSH4 0xE3A9DB1A SWAP1 PUSH1 0x24 ADD PUSH1 0x20 PUSH1 0x40 MLOAD DUP1 DUP4 SUB DUP2 DUP7 GAS STATICCALL ISZERO DUP1 ISZERO PUSH2 0xB7E JUMPI RETURNDATASIZE PUSH1 0x0 DUP1 RETURNDATACOPY RETURNDATASIZE PUSH1 0x0 REVERT JUMPDEST POP POP POP POP PUSH1 0x40 MLOAD RETURNDATASIZE PUSH1 0x1F NOT PUSH1 0x1F DUP3 ADD AND DUP3 ADD DUP1 PUSH1 0x40 MSTORE POP DUP2 ADD SWAP1 PUSH2 0xBA2 SWAP2 SWAP1 PUSH2 0x2EAF JUMP JUMPDEST PUSH1 0x6 SLOAD SWAP1 SWAP2 POP PUSH2 0xBB2 CALLVALUE DUP4 PUSH2 0x2EDE JUMP JUMPDEST GT ISZERO PUSH2 0xBD1 JUMPI PUSH1 0x40 MLOAD PUSH4 0x3B42251 PUSH1 0xE1 SHL DUP2 MSTORE PUSH1 0x4 ADD PUSH1 0x40 MLOAD DUP1 SWAP2 SUB SWAP1 REVERT JUMPDEST PUSH2 0xBDB CALLER CALLVALUE PUSH2 0x2571 JUMP JUMPDEST POP JUMP JUMPDEST PUSH1 0x1 PUSH1 0x1 PUSH1 0xA0 SHL SUB DUP4 AND PUSH2 0xC05 JUMPI PUSH1 0x40 MLOAD PUSH4 0xE6C4247B PUSH1 0xE0 SHL DUP2 MSTORE PUSH1 0x4 ADD PUSH1 0x40 MLOAD DUP1 SWAP2 SUB SWAP1 REVERT JUMPDEST PUSH1 0x4 SLOAD DUP3 LT ISZERO PUSH2 0xC28 JUMPI PUSH1 0x40 MLOAD PUSH4 0xC6388EF7 PUSH1 0xE0 SHL DUP2 MSTORE PUSH1 0x4 ADD PUSH1 0x40 MLOAD DUP1 SWAP2 SUB SWAP1 REVERT JUMPDEST CALLER PUSH1 0x0 SWAP1 DUP2 MSTORE PUSH1 0xE PUSH1 0x20 MSTORE PUSH1 0x40 SWAP1 KECCAK256 PUSH1 0x3 SLOAD DUP2 SLOAD LT PUSH2 0xC5A JUMPI PUSH1 0x40 MLOAD PUSH4 0x2990B15F PUSH1 0xE1 SHL DUP2 MSTORE PUSH1 0x4 ADD PUSH1 0x40 MLOAD DUP1 SWAP2 SUB SWAP1 REVERT JUMPDEST PUSH1 0x0 JUMPDEST DUP2 SLOAD DUP2 LT ISZERO PUSH2 0xCC2 JUMPI DUP5 PUSH1 0x1 PUSH1 0x1 PUSH1 0xA0 SHL SUB AND DUP3 DUP3 DUP2 SLOAD DUP2 LT PUSH2 0xC82 JUMPI PUSH2 0xC82 PUSH2 0x2E18 JUMP JUMPDEST PUSH1 0x0 SWAP2 DUP3 MSTORE PUSH1 0x20 SWAP1 SWAP2 KECCAK256 PUSH1 0x3 SWAP1 SWAP2 MUL ADD SLOAD PUSH1 0x1 PUSH1 0x1 PUSH1 0xA0 SHL SUB AND SUB PUSH2 0xCBA JUMPI PUSH1 0x40 MLOAD PUSH4 0xE8DC2BA5 PUSH1 0xE0 SHL DUP2 MSTORE PUSH1 0x4 ADD PUSH1 0x40 MLOAD DUP1 SWAP2 SUB SWAP1 REVERT JUMPDEST PUSH1 0x1 ADD PUSH2 0xC5D JUMP JUMPDEST POP DUP1 SLOAD PUSH1 0x0 SUB PUSH2 0xCD9 JUMPI PUSH2 0xCD7 PUSH1 0xF CALLER PUSH2 0x267A JUMP JUMPDEST POP JUMPDEST PUSH1 0x40 DUP1 MLOAD PUSH1 0x60 DUP2 ADD DUP3 MSTORE PUSH1 0x1 PUSH1 0x1 PUSH1 0xA0 SHL SUB DUP7 DUP2 AND DUP3 MSTORE PUSH1 0x20 DUP1 DUP4 ADD DUP8 DUP2 MSTORE DUP7 ISZERO ISZERO SWAP5 DUP5 ADD SWAP5 DUP6 MSTORE DUP6 SLOAD PUSH1 0x1 DUP1 DUP3 ADD DUP9 SSTORE PUSH1 0x0 DUP9 DUP2 MSTORE SWAP4 SWAP1 SWAP4 KECCAK256 SWAP5 MLOAD PUSH1 0x3 SWAP1 SWAP2 MUL SWAP1 SWAP5 ADD DUP1 SLOAD PUSH1 0x1 PUSH1 0x1 PUSH1 0xA0 SHL SUB NOT AND SWAP5 SWAP1 SWAP4 AND SWAP4 SWAP1 SWAP4 OR DUP3 SSTORE SWAP2 MLOAD SWAP2 DUP2 ADD SWAP2 SWAP1 SWAP2 SSTORE SWAP1 MLOAD PUSH1 0x2 SWAP1 SWAP2 ADD DUP1 SLOAD PUSH1 0xFF NOT AND SWAP2 ISZERO ISZERO SWAP2 SWAP1 SWAP2 OR SWAP1 SSTORE PUSH2 0xD5C CALLER CALLVALUE PUSH2 0x2571 JUMP JUMPDEST PUSH1 0x40 MLOAD DUP4 DUP2 MSTORE PUSH1 0x1 PUSH1 0x1 PUSH1 0xA0 SHL SUB DUP6 AND SWAP1 CALLER SWAP1 PUSH32 0x59D7576E9633BCA7696F2C9A469531F9AC98E62B3160B7FFFCD804D18A7FC60 SWAP1 PUSH1 0x20 ADD PUSH1 0x40 MLOAD DUP1 SWAP2 SUB SWAP1 LOG3 POP POP POP POP JUMP JUMPDEST PUSH1 0x60 PUSH1 0x0 DUP1 PUSH2 0xDB1 PUSH1 0xF PUSH2 0x1B09 JUMP JUMPDEST SWAP1 POP DUP1 DUP6 LT PUSH2 0xE05 JUMPI PUSH1 0x40 DUP1 MLOAD PUSH1 0x0 DUP1 DUP3 MSTORE PUSH1 0x20 DUP3 ADD SWAP1 SWAP3 MSTORE SWAP1 PUSH2 0xDF8 JUMP JUMPDEST PUSH1 0x40 DUP1 MLOAD DUP1 DUP3 ADD SWAP1 SWAP2 MSTORE PUSH1 0x0 DUP2 MSTORE PUSH1 0x60 PUSH1 0x20 DUP3 ADD MSTORE DUP2 MSTORE PUSH1 0x20 ADD SWAP1 PUSH1 0x1 SWAP1 SUB SWAP1 DUP2 PUSH2 0xDD0 JUMPI SWAP1 POP JUMPDEST POP PUSH1 0x0 SWAP3 POP SWAP3 POP POP PUSH2 0xFA3 JUMP JUMPDEST PUSH1 0x8 SLOAD DUP5 ISZERO DUP1 PUSH2 0xE14 JUMPI POP DUP1 DUP6 GT JUMPDEST ISZERO PUSH2 0xE1D JUMPI DUP1 SWAP5 POP JUMPDEST PUSH1 0x0 PUSH2 0xE29 DUP8 DUP5 PUSH2 0x2EF1 JUMP JUMPDEST SWAP1 POP PUSH1 0x0 DUP7 DUP3 LT PUSH2 0xE3A JUMPI DUP7 PUSH2 0xE3C JUMP JUMPDEST DUP2 JUMPDEST SWAP1 POP DUP1 PUSH8 0xFFFFFFFFFFFFFFFF DUP2 GT ISZERO PUSH2 0xE57 JUMPI PUSH2 0xE57 PUSH2 0x2E2E JUMP JUMPDEST PUSH1 0x40 MLOAD SWAP1 DUP1 DUP3 MSTORE DUP1 PUSH1 0x20 MUL PUSH1 0x20 ADD DUP3 ADD PUSH1 0x40 MSTORE DUP1 ISZERO PUSH2 0xE9D JUMPI DUP2 PUSH1 0x20 ADD JUMPDEST PUSH1 0x40 DUP1 MLOAD DUP1 DUP3 ADD SWAP1 SWAP2 MSTORE PUSH1 0x0 DUP2 MSTORE PUSH1 0x60 PUSH1 0x20 DUP3 ADD MSTORE DUP2 MSTORE PUSH1 0x20 ADD SWAP1 PUSH1 0x1 SWAP1 SUB SWAP1 DUP2 PUSH2 0xE75 JUMPI SWAP1 POP JUMPDEST POP SWAP6 POP PUSH1 0x0 JUMPDEST DUP2 DUP2 LT ISZERO PUSH2 0xF8F JUMPI PUSH1 0x0 PUSH2 0xEC2 PUSH2 0xEBA DUP4 DUP13 PUSH2 0x2EDE JUMP JUMPDEST PUSH1 0xF SWAP1 PUSH2 0x268F JUMP JUMPDEST PUSH1 0x40 DUP1 MLOAD DUP1 DUP3 ADD DUP3 MSTORE PUSH1 0x1 PUSH1 0x1 PUSH1 0xA0 SHL SUB DUP4 AND DUP1 DUP3 MSTORE PUSH1 0x0 SWAP1 DUP2 MSTORE PUSH1 0xE PUSH1 0x20 SWAP1 DUP2 MSTORE DUP4 DUP3 KECCAK256 DUP1 SLOAD DUP6 MLOAD DUP2 DUP5 MUL DUP2 ADD DUP5 ADD SWAP1 SWAP7 MSTORE DUP1 DUP7 MSTORE SWAP6 SWAP7 POP SWAP3 SWAP5 DUP2 DUP7 ADD SWAP5 SWAP4 SWAP3 SWAP1 SWAP2 DUP5 ADD JUMPDEST DUP3 DUP3 LT ISZERO PUSH2 0xF62 JUMPI PUSH1 0x0 DUP5 DUP2 MSTORE PUSH1 0x20 SWAP1 DUP2 SWAP1 KECCAK256 PUSH1 0x40 DUP1 MLOAD PUSH1 0x60 DUP2 ADD DUP3 MSTORE PUSH1 0x3 DUP7 MUL SWAP1 SWAP3 ADD DUP1 SLOAD PUSH1 0x1 PUSH1 0x1 PUSH1 0xA0 SHL SUB AND DUP4 MSTORE PUSH1 0x1 DUP1 DUP3 ADD SLOAD DUP5 DUP7 ADD MSTORE PUSH1 0x2 SWAP1 SWAP2 ADD SLOAD PUSH1 0xFF AND ISZERO ISZERO SWAP2 DUP4 ADD SWAP2 SWAP1 SWAP2 MSTORE SWAP1 DUP4 MSTORE SWAP1 SWAP3 ADD SWAP2 ADD PUSH2 0xF08 JUMP JUMPDEST POP POP POP POP DUP2 MSTORE POP DUP9 DUP4 DUP2 MLOAD DUP2 LT PUSH2 0xF7B JUMPI PUSH2 0xF7B PUSH2 0x2E18 JUMP JUMPDEST PUSH1 0x20 SWAP1 DUP2 MUL SWAP2 SWAP1 SWAP2 ADD ADD MSTORE POP PUSH1 0x1 ADD PUSH2 0xEA3 JUMP JUMPDEST POP DUP4 PUSH2 0xF9B DUP3 DUP11 PUSH2 0x2EDE JUMP JUMPDEST LT SWAP5 POP POP POP POP POP JUMPDEST SWAP3 POP SWAP3 SWAP1 POP JUMP JUMPDEST PUSH2 0xFB2 PUSH2 0x269B JUMP JUMPDEST PUSH1 0x2 SLOAD PUSH1 0x40 MLOAD PUSH4 0x71D4ED8D PUSH1 0xE1 SHL DUP2 MSTORE CALLER PUSH1 0x4 DUP3 ADD MSTORE PUSH1 0x0 SWAP2 PUSH1 0x1 PUSH1 0x1 PUSH1 0xA0 SHL SUB AND SWAP1 PUSH4 0xE3A9DB1A SWAP1 PUSH1 0x24 ADD PUSH1 0x20 PUSH1 0x40 MLOAD DUP1 DUP4 SUB DUP2 DUP7 GAS STATICCALL ISZERO DUP1 ISZERO PUSH2 0xFFB JUMPI RETURNDATASIZE PUSH1 0x0 DUP1 RETURNDATACOPY RETURNDATASIZE PUSH1 0x0 REVERT JUMPDEST POP POP POP POP PUSH1 0x40 MLOAD RETURNDATASIZE PUSH1 0x1F NOT PUSH1 0x1F DUP3 ADD AND DUP3 ADD DUP1 PUSH1 0x40 MSTORE POP DUP2 ADD SWAP1 PUSH2 0x101F SWAP2 SWAP1 PUSH2 0x2EAF JUMP JUMPDEST SWAP1 POP DUP1 PUSH1 0x0 SUB PUSH2 0x1042 JUMPI PUSH1 0x40 MLOAD PUSH4 0x1E9ACF17 PUSH1 0xE3 SHL DUP2 MSTORE PUSH1 0x4 ADD PUSH1 0x40 MLOAD DUP1 SWAP2 SUB SWAP1 REVERT JUMPDEST PUSH1 0x40 MLOAD PUSH1 0x0 DUP2 MSTORE CALLER SWAP1 PUSH32 0x8AD64A0AC7700DD8425AB0499F107CB6E2CD1581D803C5B8C1C79DCB8190B1AF SWAP1 PUSH1 0x20 ADD PUSH1 0x40 MLOAD DUP1 SWAP2 SUB SWAP1 LOG2 PUSH1 0x2 SLOAD PUSH1 0x40 MLOAD PUSH4 0x51CFF8D9 PUSH1 0xE0 SHL DUP2 MSTORE CALLER PUSH1 0x4 DUP3 ADD MSTORE PUSH1 0x1 PUSH1 0x1 PUSH1 0xA0 SHL SUB SWAP1 SWAP2 AND SWAP1 PUSH4 0x51CFF8D9 SWAP1 PUSH1 0x24 ADD PUSH1 0x0 PUSH1 0x40 MLOAD DUP1 DUP4 SUB DUP2 PUSH1 0x0 DUP8 DUP1 EXTCODESIZE ISZERO DUP1 ISZERO PUSH2 0x10BD JUMPI PUSH1 0x0 DUP1 REVERT JUMPDEST POP GAS CALL ISZERO DUP1 ISZERO PUSH2 0x10D1 JUMPI RETURNDATASIZE PUSH1 0x0 DUP1 RETURNDATACOPY RETURNDATASIZE PUSH1 0x0 REVERT JUMPDEST POP POP POP POP POP PUSH2 0x10DF PUSH1 0x1 DUP1 SSTORE JUMP JUMPDEST JUMP JUMPDEST PUSH2 0x10E9 PUSH2 0x1AAF JUMP JUMPDEST PUSH2 0x10DF PUSH1 0x0 PUSH2 0x26F4 JUMP JUMPDEST PUSH2 0x10FB PUSH2 0x1AAF JUMP JUMPDEST PUSH1 0x0 DUP2 GT PUSH2 0x1161 JUMPI PUSH1 0x40 MLOAD PUSH3 0x461BCD PUSH1 0xE5 SHL DUP2 MSTORE PUSH1 0x20 PUSH1 0x4 DUP3 ADD MSTORE PUSH1 0x2D PUSH1 0x24 DUP3 ADD MSTORE PUSH32 0x4D617820636F6E747261637473207065722075736572206D7573742062652067 PUSH1 0x44 DUP3 ADD MSTORE PUSH13 0x726561746572207468616E203 PUSH1 0x9C SHL PUSH1 0x64 DUP3 ADD MSTORE PUSH1 0x84 ADD PUSH2 0x727 JUMP JUMPDEST PUSH1 0x3 DUP1 SLOAD SWAP1 DUP3 SWAP1 SSTORE PUSH1 0x40 DUP1 MLOAD DUP3 DUP2 MSTORE PUSH1 0x20 DUP2 ADD DUP5 SWAP1 MSTORE PUSH32 0x44E02A301945994207391809C15B881EC01D97FF7327E0F67100C48218B5189D SWAP2 ADD PUSH2 0x76A JUMP JUMPDEST PUSH2 0x11A7 PUSH2 0x1AAF JUMP JUMPDEST PUSH1 0x64 DUP2 GT ISZERO PUSH2 0x11F8 JUMPI PUSH1 0x40 MLOAD PUSH3 0x461BCD PUSH1 0xE5 SHL DUP2 MSTORE PUSH1 0x20 PUSH1 0x4 DUP3 ADD MSTORE PUSH1 0x1E PUSH1 0x24 DUP3 ADD MSTORE PUSH32 0x4361636865207468726573686F6C64206D757374206265203C3D203130300000 PUSH1 0x44 DUP3 ADD MSTORE PUSH1 0x64 ADD PUSH2 0x727 JUMP JUMPDEST PUSH1 0x9 DUP1 SLOAD SWAP1 DUP3 SWAP1 SSTORE PUSH1 0x40 DUP1 MLOAD DUP3 DUP2 MSTORE PUSH1 0x20 DUP2 ADD DUP5 SWAP1 MSTORE PUSH32 0xC927A23CB32FD9270062EE0DDEC499F9EF996E0CEC15B1F1378C92F831366BE1 SWAP2 ADD PUSH2 0x76A JUMP JUMPDEST PUSH1 0x2 SLOAD PUSH1 0x40 MLOAD PUSH4 0x71D4ED8D PUSH1 0xE1 SHL DUP2 MSTORE CALLER PUSH1 0x4 DUP3 ADD MSTORE PUSH1 0x0 SWAP2 PUSH1 0x1 PUSH1 0x1 PUSH1 0xA0 SHL SUB AND SWAP1 PUSH4 0xE3A9DB1A SWAP1 PUSH1 0x24 ADD PUSH1 0x20 PUSH1 0x40 MLOAD DUP1 DUP4 SUB DUP2 DUP7 GAS STATICCALL ISZERO DUP1 ISZERO PUSH2 0x127F JUMPI RETURNDATASIZE PUSH1 0x0 DUP1 RETURNDATACOPY RETURNDATASIZE PUSH1 0x0 REVERT JUMPDEST POP POP POP POP PUSH1 0x40 MLOAD RETURNDATASIZE PUSH1 0x1F NOT PUSH1 0x1F DUP3 ADD AND DUP3 ADD DUP1 PUSH1 0x40 MSTORE POP DUP2 ADD SWAP1 PUSH2 0x782 SWAP2 SWAP1 PUSH2 0x2EAF JUMP JUMPDEST PUSH1 0xE PUSH1 0x20 MSTORE DUP2 PUSH1 0x0 MSTORE PUSH1 0x40 PUSH1 0x0 KECCAK256 DUP2 DUP2 SLOAD DUP2 LT PUSH2 0x12BF JUMPI PUSH1 0x0 DUP1 REVERT JUMPDEST PUSH1 0x0 SWAP2 DUP3 MSTORE PUSH1 0x20 SWAP1 SWAP2 KECCAK256 PUSH1 0x3 SWAP1 SWAP2 MUL ADD DUP1 SLOAD PUSH1 0x1 DUP3 ADD SLOAD PUSH1 0x2 SWAP1 SWAP3 ADD SLOAD PUSH1 0x1 PUSH1 0x1 PUSH1 0xA0 SHL SUB SWAP1 SWAP2 AND SWAP4 POP SWAP1 SWAP2 POP PUSH1 0xFF AND DUP4 JUMP JUMPDEST CALLER PUSH1 0x0 SWAP1 DUP2 MSTORE PUSH1 0xE PUSH1 0x20 MSTORE PUSH1 0x40 DUP2 KECCAK256 DUP1 SLOAD SWAP1 SWAP2 SUB PUSH2 0x1323 JUMPI PUSH1 0x40 MLOAD PUSH4 0x3B564989 PUSH1 0xE2 SHL DUP2 MSTORE PUSH1 0x4 ADD PUSH1 0x40 MLOAD DUP1 SWAP2 SUB SWAP1 REVERT JUMPDEST PUSH1 0x0 JUMPDEST DUP2 SLOAD DUP2 LT ISZERO PUSH2 0x14A0 JUMPI DUP3 PUSH1 0x1 PUSH1 0x1 PUSH1 0xA0 SHL SUB AND DUP3 DUP3 DUP2 SLOAD DUP2 LT PUSH2 0x134B JUMPI PUSH2 0x134B PUSH2 0x2E18 JUMP JUMPDEST PUSH1 0x0 SWAP2 DUP3 MSTORE PUSH1 0x20 SWAP1 SWAP2 KECCAK256 PUSH1 0x3 SWAP1 SWAP2 MUL ADD SLOAD PUSH1 0x1 PUSH1 0x1 PUSH1 0xA0 SHL SUB AND SUB PUSH2 0x1498 JUMPI DUP2 SLOAD DUP3 SWAP1 PUSH2 0x137A SWAP1 PUSH1 0x1 SWAP1 PUSH2 0x2EF1 JUMP JUMPDEST DUP2 SLOAD DUP2 LT PUSH2 0x138A JUMPI PUSH2 0x138A PUSH2 0x2E18 JUMP JUMPDEST SWAP1 PUSH1 0x0 MSTORE PUSH1 0x20 PUSH1 0x0 KECCAK256 SWAP1 PUSH1 0x3 MUL ADD DUP3 DUP3 DUP2 SLOAD DUP2 LT PUSH2 0x13AA JUMPI PUSH2 0x13AA PUSH2 0x2E18 JUMP JUMPDEST PUSH1 0x0 SWAP2 DUP3 MSTORE PUSH1 0x20 SWAP1 SWAP2 KECCAK256 DUP3 SLOAD PUSH1 0x3 SWAP1 SWAP3 MUL ADD DUP1 SLOAD PUSH1 0x1 PUSH1 0x1 PUSH1 0xA0 SHL SUB NOT AND PUSH1 0x1 PUSH1 0x1 PUSH1 0xA0 SHL SUB SWAP1 SWAP3 AND SWAP2 SWAP1 SWAP2 OR DUP2 SSTORE PUSH1 0x1 DUP1 DUP4 ADD SLOAD SWAP1 DUP3 ADD SSTORE PUSH1 0x2 SWAP2 DUP3 ADD SLOAD SWAP2 ADD DUP1 SLOAD PUSH1 0xFF SWAP1 SWAP3 AND ISZERO ISZERO PUSH1 0xFF NOT SWAP1 SWAP3 AND SWAP2 SWAP1 SWAP2 OR SWAP1 SSTORE DUP2 SLOAD DUP3 SWAP1 DUP1 PUSH2 0x1411 JUMPI PUSH2 0x1411 PUSH2 0x2F04 JUMP JUMPDEST PUSH1 0x0 DUP3 DUP2 MSTORE PUSH1 0x20 DUP2 KECCAK256 PUSH1 0x3 PUSH1 0x0 NOT SWAP1 SWAP4 ADD SWAP3 DUP4 MUL ADD DUP1 SLOAD PUSH1 0x1 PUSH1 0x1 PUSH1 0xA0 SHL SUB NOT AND DUP2 SSTORE PUSH1 0x1 DUP2 ADD DUP3 SWAP1 SSTORE PUSH1 0x2 ADD DUP1 SLOAD PUSH1 0xFF NOT AND SWAP1 SSTORE SWAP2 SSTORE DUP3 SLOAD SWAP1 SUB PUSH2 0x145D JUMPI PUSH2 0x145B PUSH1 0xF CALLER PUSH2 0x1B13 JUMP JUMPDEST POP JUMPDEST PUSH1 0x40 MLOAD PUSH1 0x1 PUSH1 0x1 PUSH1 0xA0 SHL SUB DUP5 AND SWAP1 CALLER SWAP1 PUSH32 0x1DE42A421EEF953B12E8DFFCA9F7BA12E7962C982FC649E5E2C32EA0E7E3CA64 SWAP1 PUSH1 0x0 SWAP1 LOG3 POP POP POP JUMP JUMPDEST PUSH1 0x1 ADD PUSH2 0x1326 JUMP JUMPDEST POP PUSH1 0x40 MLOAD PUSH4 0x3B564989 PUSH1 0xE2 SHL DUP2 MSTORE PUSH1 0x4 ADD PUSH1 0x40 MLOAD DUP1 SWAP2 SUB SWAP1 REVERT JUMPDEST PUSH1 0x60 PUSH1 0x0 PUSH2 0x14C8 PUSH1 0xF PUSH2 0x1B09 JUMP JUMPDEST SWAP1 POP PUSH1 0x0 DUP2 PUSH8 0xFFFFFFFFFFFFFFFF DUP2 GT ISZERO PUSH2 0x14E5 JUMPI PUSH2 0x14E5 PUSH2 0x2E2E JUMP JUMPDEST PUSH1 0x40 MLOAD SWAP1 DUP1 DUP3 MSTORE DUP1 PUSH1 0x20 MUL PUSH1 0x20 ADD DUP3 ADD PUSH1 0x40 MSTORE DUP1 ISZERO PUSH2 0x152B JUMPI DUP2 PUSH1 0x20 ADD JUMPDEST PUSH1 0x40 DUP1 MLOAD DUP1 DUP3 ADD SWAP1 SWAP2 MSTORE PUSH1 0x0 DUP2 MSTORE PUSH1 0x60 PUSH1 0x20 DUP3 ADD MSTORE DUP2 MSTORE PUSH1 0x20 ADD SWAP1 PUSH1 0x1 SWAP1 SUB SWAP1 DUP2 PUSH2 0x1503 JUMPI SWAP1 POP JUMPDEST POP SWAP1 POP PUSH1 0x0 JUMPDEST DUP3 DUP2 LT ISZERO PUSH2 0x1613 JUMPI PUSH1 0x0 PUSH2 0x1546 PUSH1 0xF DUP4 PUSH2 0x268F JUMP JUMPDEST PUSH1 0x40 DUP1 MLOAD DUP1 DUP3 ADD DUP3 MSTORE PUSH1 0x1 PUSH1 0x1 PUSH1 0xA0 SHL SUB DUP4 AND DUP1 DUP3 MSTORE PUSH1 0x0 SWAP1 DUP2 MSTORE PUSH1 0xE PUSH1 0x20 SWAP1 DUP2 MSTORE DUP4 DUP3 KECCAK256 DUP1 SLOAD DUP6 MLOAD DUP2 DUP5 MUL DUP2 ADD DUP5 ADD SWAP1 SWAP7 MSTORE DUP1 DUP7 MSTORE SWAP6 SWAP7 POP SWAP3 SWAP5 DUP2 DUP7 ADD SWAP5 SWAP4 SWAP3 SWAP1 SWAP2 DUP5 ADD JUMPDEST DUP3 DUP3 LT ISZERO PUSH2 0x15E6 JUMPI PUSH1 0x0 DUP5 DUP2 MSTORE PUSH1 0x20 SWAP1 DUP2 SWAP1 KECCAK256 PUSH1 0x40 DUP1 MLOAD PUSH1 0x60 DUP2 ADD DUP3 MSTORE PUSH1 0x3 DUP7 MUL SWAP1 SWAP3 ADD DUP1 SLOAD PUSH1 0x1 PUSH1 0x1 PUSH1 0xA0 SHL SUB AND DUP4 MSTORE PUSH1 0x1 DUP1 DUP3 ADD SLOAD DUP5 DUP7 ADD MSTORE PUSH1 0x2 SWAP1 SWAP2 ADD SLOAD PUSH1 0xFF AND ISZERO ISZERO SWAP2 DUP4 ADD SWAP2 SWAP1 SWAP2 MSTORE SWAP1 DUP4 MSTORE SWAP1 SWAP3 ADD SWAP2 ADD PUSH2 0x158C JUMP JUMPDEST POP POP POP POP DUP2 MSTORE POP DUP4 DUP4 DUP2 MLOAD DUP2 LT PUSH2 0x15FF JUMPI PUSH2 0x15FF PUSH2 0x2E18 JUMP JUMPDEST PUSH1 0x20 SWAP1 DUP2 MUL SWAP2 SWAP1 SWAP2 ADD ADD MSTORE POP PUSH1 0x1 ADD PUSH2 0x1531 JUMP JUMPDEST POP SWAP3 SWAP2 POP POP JUMP JUMPDEST PUSH2 0x1622 PUSH2 0x1AAF JUMP JUMPDEST PUSH1 0x0 DUP2 GT PUSH2 0x1688 JUMPI PUSH1 0x40 MLOAD PUSH3 0x461BCD PUSH1 0xE5 SHL DUP2 MSTORE PUSH1 0x20 PUSH1 0x4 DUP3 ADD MSTORE PUSH1 0x2D PUSH1 0x24 DUP3 ADD MSTORE PUSH32 0x4D617820626964732070657220697465726174696F6E206D7573742062652067 PUSH1 0x44 DUP3 ADD MSTORE PUSH13 0x726561746572207468616E203 PUSH1 0x9C SHL PUSH1 0x64 DUP3 ADD MSTORE PUSH1 0x84 ADD PUSH2 0x727 JUMP JUMPDEST PUSH1 0x7 DUP1 SLOAD SWAP1 DUP3 SWAP1 SSTORE PUSH1 0x40 DUP1 MLOAD DUP3 DUP2 MSTORE PUSH1 0x20 DUP2 ADD DUP5 SWAP1 MSTORE PUSH32 0xED0EEAA73981DBC606388E5F4F81AE59C756EE0F3D6E5206E7F6B1FAF7DB7AC4 SWAP2 ADD PUSH2 0x76A JUMP JUMPDEST CALLER PUSH1 0x0 SWAP1 DUP2 MSTORE PUSH1 0xE PUSH1 0x20 SWAP1 DUP2 MSTORE PUSH1 0x40 DUP1 DUP4 KECCAK256 DUP1 SLOAD DUP3 MLOAD DUP2 DUP6 MUL DUP2 ADD DUP6 ADD SWAP1 SWAP4 MSTORE DUP1 DUP4 MSTORE PUSH1 0x60 SWAP5 SWAP3 SWAP4 SWAP2 SWAP3 SWAP1 SWAP2 DUP5 ADD JUMPDEST DUP3 DUP3 LT ISZERO PUSH2 0x174F JUMPI PUSH1 0x0 DUP5 DUP2 MSTORE PUSH1 0x20 SWAP1 DUP2 SWAP1 KECCAK256 PUSH1 0x40 DUP1 MLOAD PUSH1 0x60 DUP2 ADD DUP3 MSTORE PUSH1 0x3 DUP7 MUL SWAP1 SWAP3 ADD DUP1 SLOAD PUSH1 0x1 PUSH1 0x1 PUSH1 0xA0 SHL SUB AND DUP4 MSTORE PUSH1 0x1 DUP1 DUP3 ADD SLOAD DUP5 DUP7 ADD MSTORE PUSH1 0x2 SWAP1 SWAP2 ADD SLOAD PUSH1 0xFF AND ISZERO ISZERO SWAP2 DUP4 ADD SWAP2 SWAP1 SWAP2 MSTORE SWAP1 DUP4 MSTORE SWAP1 SWAP3 ADD SWAP2 ADD PUSH2 0x16F5 JUMP JUMPDEST POP POP POP POP SWAP1 POP SWAP1 JUMP JUMPDEST PUSH2 0x1760 PUSH2 0x1AAF JUMP JUMPDEST PUSH1 0x0 DUP2 GT PUSH2 0x17C2 JUMPI PUSH1 0x40 MLOAD PUSH3 0x461BCD PUSH1 0xE5 SHL DUP2 MSTORE PUSH1 0x20 PUSH1 0x4 DUP3 ADD MSTORE PUSH1 0x29 PUSH1 0x24 DUP3 ADD MSTORE PUSH32 0x4D696E206D61782062696420616D6F756E74206D757374206265206772656174 PUSH1 0x44 DUP3 ADD MSTORE PUSH9 0x6572207468616E203 PUSH1 0xBC SHL PUSH1 0x64 DUP3 ADD MSTORE PUSH1 0x84 ADD PUSH2 0x727 JUMP JUMPDEST PUSH1 0x4 DUP1 SLOAD SWAP1 DUP3 SWAP1 SSTORE PUSH1 0x40 DUP1 MLOAD DUP3 DUP2 MSTORE PUSH1 0x20 DUP2 ADD DUP5 SWAP1 MSTORE PUSH32 0xA0EFF73C4FE94EB23DE18ADD767883C0D2DD17BAADE44357C4408B57FD5832D5 SWAP2 ADD PUSH2 0x76A JUMP JUMPDEST PUSH2 0x1808 PUSH2 0x1AAF JUMP JUMPDEST PUSH1 0x1 PUSH1 0x1 PUSH1 0xA0 SHL SUB DUP2 AND PUSH2 0x186D JUMPI PUSH1 0x40 MLOAD PUSH3 0x461BCD PUSH1 0xE5 SHL DUP2 MSTORE PUSH1 0x20 PUSH1 0x4 DUP3 ADD MSTORE PUSH1 0x26 PUSH1 0x24 DUP3 ADD MSTORE PUSH32 0x4F776E61626C653A206E6577206F776E657220697320746865207A65726F2061 PUSH1 0x44 DUP3 ADD MSTORE PUSH6 0x646472657373 PUSH1 0xD0 SHL PUSH1 0x64 DUP3 ADD MSTORE PUSH1 0x84 ADD PUSH2 0x727 JUMP JUMPDEST PUSH2 0xBDB DUP2 PUSH2 0x26F4 JUMP JUMPDEST PUSH1 0x1 PUSH1 0x1 PUSH1 0xA0 SHL SUB DUP4 AND PUSH2 0x189D JUMPI PUSH1 0x40 MLOAD PUSH4 0xE6C4247B PUSH1 0xE0 SHL DUP2 MSTORE PUSH1 0x4 ADD PUSH1 0x40 MLOAD DUP1 SWAP2 SUB SWAP1 REVERT JUMPDEST CALLER PUSH1 0x0 SWAP1 DUP2 MSTORE PUSH1 0xE PUSH1 0x20 MSTORE PUSH1 0x40 DUP2 KECCAK256 SWAP1 JUMPDEST DUP2 SLOAD DUP2 LT ISZERO PUSH2 0x199F JUMPI DUP5 PUSH1 0x1 PUSH1 0x1 PUSH1 0xA0 SHL SUB AND DUP3 DUP3 DUP2 SLOAD DUP2 LT PUSH2 0x18D3 JUMPI PUSH2 0x18D3 PUSH2 0x2E18 JUMP JUMPDEST PUSH1 0x0 SWAP2 DUP3 MSTORE PUSH1 0x20 SWAP1 SWAP2 KECCAK256 PUSH1 0x3 SWAP1 SWAP2 MUL ADD SLOAD PUSH1 0x1 PUSH1 0x1 PUSH1 0xA0 SHL SUB AND SUB PUSH2 0x1997 JUMPI DUP4 DUP3 DUP3 DUP2 SLOAD DUP2 LT PUSH2 0x1905 JUMPI PUSH2 0x1905 PUSH2 0x2E18 JUMP JUMPDEST SWAP1 PUSH1 0x0 MSTORE PUSH1 0x20 PUSH1 0x0 KECCAK256 SWAP1 PUSH1 0x3 MUL ADD PUSH1 0x1 ADD DUP2 SWAP1 SSTORE POP DUP3 DUP3 DUP3 DUP2 SLOAD DUP2 LT PUSH2 0x192D JUMPI PUSH2 0x192D PUSH2 0x2E18 JUMP JUMPDEST PUSH1 0x0 SWAP2 DUP3 MSTORE PUSH1 0x20 SWAP2 DUP3 SWAP1 KECCAK256 PUSH1 0x3 SWAP2 SWAP1 SWAP2 MUL ADD PUSH1 0x2 ADD DUP1 SLOAD PUSH1 0xFF NOT AND SWAP3 ISZERO ISZERO SWAP3 SWAP1 SWAP3 OR SWAP1 SWAP2 SSTORE PUSH1 0x40 MLOAD DUP6 DUP2 MSTORE PUSH1 0x1 PUSH1 0x1 PUSH1 0xA0 SHL SUB DUP8 AND SWAP2 CALLER SWAP2 PUSH32 0x95B3377E475434FFF4B527743F79205FC694D9D2F1383DC0945F103A74EABB45 SWAP2 ADD PUSH1 0x40 MLOAD DUP1 SWAP2 SUB SWAP1 LOG3 POP POP POP POP POP JUMP JUMPDEST PUSH1 0x1 ADD PUSH2 0x18AE JUMP JUMPDEST POP POP POP POP POP JUMP JUMPDEST PUSH2 0x19AE PUSH2 0x1AAF JUMP JUMPDEST PUSH1 0x0 DUP2 GT PUSH2 0x1A10 JUMPI PUSH1 0x40 MLOAD PUSH3 0x461BCD PUSH1 0xE5 SHL DUP2 MSTORE PUSH1 0x20 PUSH1 0x4 DUP3 ADD MSTORE PUSH1 0x29 PUSH1 0x24 DUP3 ADD MSTORE PUSH32 0x4D6178207573657273207065722070616765206D757374206265206772656174 PUSH1 0x44 DUP3 ADD MSTORE PUSH9 0x6572207468616E203 PUSH1 0xBC SHL PUSH1 0x64 DUP3 ADD MSTORE PUSH1 0x84 ADD PUSH2 0x727 JUMP JUMPDEST PUSH1 0x8 DUP1 SLOAD SWAP1 DUP3 SWAP1 SSTORE PUSH1 0x40 DUP1 MLOAD DUP3 DUP2 MSTORE PUSH1 0x20 DUP2 ADD DUP5 SWAP1 MSTORE PUSH32 0x15BD919A7060564DEDFCCC62817342F55AEE1A22C1332688DB82F187B883A4E4 SWAP2 ADD PUSH2 0x76A JUMP JUMPDEST PUSH1 0x0 PUSH2 0x1A5A PUSH1 0xF PUSH2 0x1B09 JUMP JUMPDEST DUP3 LT PUSH2 0x1A9E JUMPI PUSH1 0x40 MLOAD PUSH3 0x461BCD PUSH1 0xE5 SHL DUP2 MSTORE PUSH1 0x20 PUSH1 0x4 DUP3 ADD MSTORE PUSH1 0x13 PUSH1 0x24 DUP3 ADD MSTORE PUSH19 0x496E646578206F7574206F6620626F756E6473 PUSH1 0x68 SHL PUSH1 0x44 DUP3 ADD MSTORE PUSH1 0x64 ADD PUSH2 0x727 JUMP JUMPDEST PUSH2 0x1AA9 PUSH1 0xF DUP4 PUSH2 0x268F JUMP JUMPDEST SWAP3 SWAP2 POP POP JUMP JUMPDEST PUSH1 0x0 SLOAD PUSH1 0x1 PUSH1 0x1 PUSH1 0xA0 SHL SUB AND CALLER EQ PUSH2 0x10DF JUMPI PUSH1 0x40 MLOAD PUSH3 0x461BCD PUSH1 0xE5 SHL DUP2 MSTORE PUSH1 0x20 PUSH1 0x4 DUP3 ADD DUP2 SWAP1 MSTORE PUSH1 0x24 DUP3 ADD MSTORE PUSH32 0x4F776E61626C653A2063616C6C6572206973206E6F7420746865206F776E6572 PUSH1 0x44 DUP3 ADD MSTORE PUSH1 0x64 ADD PUSH2 0x727 JUMP JUMPDEST PUSH1 0x0 PUSH2 0x1AA9 DUP3 SLOAD SWAP1 JUMP JUMPDEST PUSH1 0x0 PUSH2 0x1B28 DUP4 PUSH1 0x1 PUSH1 0x1 PUSH1 0xA0 SHL SUB DUP5 AND PUSH2 0x2744 JUMP JUMPDEST SWAP4 SWAP3 POP POP POP JUMP JUMPDEST PUSH2 0x1B6A PUSH1 0x40 DUP1 MLOAD PUSH1 0x60 DUP1 DUP3 ADD DUP4 MSTORE PUSH1 0x0 DUP1 DUP4 MSTORE DUP4 MLOAD SWAP2 DUP3 ADD DUP5 MSTORE DUP1 DUP3 MSTORE PUSH1 0x20 DUP3 DUP2 ADD DUP3 SWAP1 MSTORE SWAP4 DUP3 ADD MSTORE SWAP1 SWAP2 DUP3 ADD SWAP1 DUP2 MSTORE PUSH1 0x0 PUSH1 0x20 SWAP1 SWAP2 ADD MSTORE SWAP1 JUMP JUMPDEST DUP3 MLOAD PUSH1 0x20 DUP5 ADD MLOAD PUSH1 0x1 PUSH1 0x1 PUSH1 0xA0 SHL SUB DUP3 AND ISZERO DUP1 PUSH2 0x1B8E JUMPI POP PUSH1 0x1 PUSH1 0x1 PUSH1 0xA0 SHL SUB DUP2 AND ISZERO JUMPDEST ISZERO PUSH2 0x1BD1 JUMPI POP POP PUSH1 0x40 DUP1 MLOAD PUSH1 0x60 DUP1 DUP3 ADD DUP4 MSTORE PUSH1 0x0 DUP1 DUP4 MSTORE DUP4 MLOAD SWAP2 DUP3 ADD DUP5 MSTORE DUP1 DUP3 MSTORE PUSH1 0x20 DUP3 DUP2 ADD DUP3 SWAP1 MSTORE DUP3 DUP6 ADD DUP3 SWAP1 MSTORE DUP4 ADD SWAP2 SWAP1 SWAP2 MSTORE SWAP2 DUP2 ADD SWAP2 SWAP1 SWAP2 MSTORE SWAP1 POP PUSH2 0x1AA9 JUMP JUMPDEST PUSH1 0xD SLOAD PUSH1 0x40 MLOAD PUSH4 0xA72F179B PUSH1 0xE0 SHL DUP2 MSTORE PUSH1 0x1 PUSH1 0x1 PUSH1 0xA0 SHL SUB DUP4 DUP2 AND EXTCODEHASH PUSH1 0x4 DUP4 ADD MSTORE SWAP1 SWAP2 AND SWAP1 PUSH4 0xA72F179B SWAP1 PUSH1 0x24 ADD PUSH1 0x20 PUSH1 0x40 MLOAD DUP1 DUP4 SUB DUP2 DUP7 GAS STATICCALL ISZERO DUP1 ISZERO PUSH2 0x1C1C JUMPI RETURNDATASIZE PUSH1 0x0 DUP1 RETURNDATACOPY RETURNDATASIZE PUSH1 0x0 REVERT JUMPDEST POP POP POP POP PUSH1 0x40 MLOAD RETURNDATASIZE PUSH1 0x1F NOT PUSH1 0x1F DUP3 ADD AND DUP3 ADD DUP1 PUSH1 0x40 MSTORE POP DUP2 ADD SWAP1 PUSH2 0x1C40 SWAP2 SWAP1 PUSH2 0x2F1A JUMP JUMPDEST ISZERO PUSH2 0x1C83 JUMPI POP POP PUSH1 0x40 DUP1 MLOAD PUSH1 0x60 DUP1 DUP3 ADD DUP4 MSTORE PUSH1 0x0 DUP1 DUP4 MSTORE DUP4 MLOAD SWAP2 DUP3 ADD DUP5 MSTORE DUP1 DUP3 MSTORE PUSH1 0x20 DUP3 DUP2 ADD DUP3 SWAP1 MSTORE DUP3 DUP6 ADD DUP3 SWAP1 MSTORE DUP4 ADD SWAP2 SWAP1 SWAP2 MSTORE SWAP2 DUP2 ADD SWAP2 SWAP1 SWAP2 MSTORE SWAP1 POP PUSH2 0x1AA9 JUMP JUMPDEST PUSH1 0x1 PUSH1 0x1 PUSH1 0xA0 SHL SUB DUP3 AND PUSH1 0x0 SWAP1 DUP2 MSTORE PUSH1 0xE PUSH1 0x20 MSTORE PUSH1 0x40 DUP2 KECCAK256 SWAP1 JUMPDEST DUP2 SLOAD DUP2 LT ISZERO PUSH2 0x205C JUMPI DUP3 PUSH1 0x1 PUSH1 0x1 PUSH1 0xA0 SHL SUB AND DUP3 DUP3 DUP2 SLOAD DUP2 LT PUSH2 0x1CC2 JUMPI PUSH2 0x1CC2 PUSH2 0x2E18 JUMP JUMPDEST PUSH1 0x0 SWAP2 DUP3 MSTORE PUSH1 0x20 SWAP1 SWAP2 KECCAK256 PUSH1 0x3 SWAP1 SWAP2 MUL ADD SLOAD PUSH1 0x1 PUSH1 0x1 PUSH1 0xA0 SHL SUB AND SUB PUSH2 0x2054 JUMPI DUP2 DUP2 DUP2 SLOAD DUP2 LT PUSH2 0x1CF3 JUMPI PUSH2 0x1CF3 PUSH2 0x2E18 JUMP JUMPDEST PUSH1 0x0 SWAP2 DUP3 MSTORE PUSH1 0x20 SWAP1 SWAP2 KECCAK256 PUSH1 0x2 PUSH1 0x3 SWAP1 SWAP3 MUL ADD ADD SLOAD PUSH1 0xFF AND PUSH2 0x1D87 JUMPI PUSH1 0x40 MLOAD DUP1 PUSH1 0x60 ADD PUSH1 0x40 MSTORE DUP1 PUSH1 0x0 ISZERO ISZERO DUP2 MSTORE PUSH1 0x20 ADD DUP4 DUP4 DUP2 SLOAD DUP2 LT PUSH2 0x1D34 JUMPI PUSH2 0x1D34 PUSH2 0x2E18 JUMP JUMPDEST PUSH1 0x0 SWAP2 DUP3 MSTORE PUSH1 0x20 DUP1 DUP4 KECCAK256 PUSH1 0x40 DUP1 MLOAD PUSH1 0x60 DUP2 ADD DUP3 MSTORE PUSH1 0x3 SWAP1 SWAP5 MUL SWAP1 SWAP2 ADD DUP1 SLOAD PUSH1 0x1 PUSH1 0x1 PUSH1 0xA0 SHL SUB AND DUP5 MSTORE PUSH1 0x1 DUP2 ADD SLOAD DUP5 DUP5 ADD MSTORE PUSH1 0x2 ADD SLOAD PUSH1 0xFF AND ISZERO ISZERO SWAP1 DUP4 ADD MSTORE SWAP1 DUP4 MSTORE SWAP2 SWAP1 SWAP2 ADD MSTORE SWAP5 POP PUSH2 0x1AA9 SWAP4 POP POP POP POP JUMP JUMPDEST PUSH1 0xC SLOAD PUSH1 0x40 MLOAD PUSH4 0x32052A9B PUSH1 0xE0 SHL DUP2 MSTORE PUSH1 0x1 PUSH1 0x1 PUSH1 0xA0 SHL SUB DUP6 DUP2 AND PUSH1 0x4 DUP4 ADD MSTORE PUSH1 0x0 SWAP3 AND SWAP1 PUSH4 0x32052A9B SWAP1 PUSH1 0x24 ADD PUSH1 0x20 PUSH1 0x40 MLOAD DUP1 DUP4 SUB DUP2 DUP7 GAS STATICCALL ISZERO DUP1 ISZERO PUSH2 0x1DD2 JUMPI RETURNDATASIZE PUSH1 0x0 DUP1 RETURNDATACOPY RETURNDATASIZE PUSH1 0x0 REVERT JUMPDEST POP POP POP POP PUSH1 0x40 MLOAD RETURNDATASIZE PUSH1 0x1F NOT PUSH1 0x1F DUP3 ADD AND DUP3 ADD DUP1 PUSH1 0x40 MSTORE POP DUP2 ADD SWAP1 PUSH2 0x1DF6 SWAP2 SWAP1 PUSH2 0x2F37 JUMP JUMPDEST SWAP1 POP PUSH1 0x0 PUSH2 0x1E28 DUP5 DUP5 DUP2 SLOAD DUP2 LT PUSH2 0x1E0F JUMPI PUSH2 0x1E0F PUSH2 0x2E18 JUMP JUMPDEST SWAP1 PUSH1 0x0 MSTORE PUSH1 0x20 PUSH1 0x0 KECCAK256 SWAP1 PUSH1 0x3 MUL ADD PUSH1 0x1 ADD SLOAD DUP10 DUP5 PUSH2 0x2837 JUMP JUMPDEST SWAP1 POP DUP2 PUSH1 0x1 PUSH1 0x1 PUSH1 0xC0 SHL SUB AND DUP2 PUSH1 0x1 PUSH1 0x1 PUSH1 0xC0 SHL SUB AND LT ISZERO PUSH2 0x1EBF JUMPI PUSH1 0x40 MLOAD DUP1 PUSH1 0x60 ADD PUSH1 0x40 MSTORE DUP1 PUSH1 0x0 ISZERO ISZERO DUP2 MSTORE PUSH1 0x20 ADD DUP6 DUP6 DUP2 SLOAD DUP2 LT PUSH2 0x1E6A JUMPI PUSH2 0x1E6A PUSH2 0x2E18 JUMP JUMPDEST PUSH1 0x0 SWAP2 DUP3 MSTORE PUSH1 0x20 DUP1 DUP4 KECCAK256 PUSH1 0x40 DUP1 MLOAD PUSH1 0x60 DUP2 ADD DUP3 MSTORE PUSH1 0x3 SWAP1 SWAP5 MUL SWAP1 SWAP2 ADD DUP1 SLOAD PUSH1 0x1 PUSH1 0x1 PUSH1 0xA0 SHL SUB AND DUP5 MSTORE PUSH1 0x1 DUP2 ADD SLOAD DUP5 DUP5 ADD MSTORE PUSH1 0x2 ADD SLOAD PUSH1 0xFF AND ISZERO ISZERO SWAP1 DUP4 ADD MSTORE SWAP1 DUP4 MSTORE SWAP2 SWAP1 SWAP2 ADD MSTORE SWAP7 POP PUSH2 0x1AA9 SWAP6 POP POP POP POP POP POP JUMP JUMPDEST PUSH1 0x1 PUSH1 0x1 PUSH1 0xC0 SHL SUB DUP2 AND ISZERO PUSH2 0x1FCE JUMPI PUSH1 0x2 SLOAD PUSH1 0x40 MLOAD PUSH4 0x71D4ED8D PUSH1 0xE1 SHL DUP2 MSTORE PUSH1 0x1 PUSH1 0x1 PUSH1 0xA0 SHL SUB DUP9 DUP2 AND PUSH1 0x4 DUP4 ADD MSTORE PUSH1 0x0 SWAP3 AND SWAP1 PUSH4 0xE3A9DB1A SWAP1 PUSH1 0x24 ADD PUSH1 0x20 PUSH1 0x40 MLOAD DUP1 DUP4 SUB DUP2 DUP7 GAS STATICCALL ISZERO DUP1 ISZERO PUSH2 0x1F19 JUMPI RETURNDATASIZE PUSH1 0x0 DUP1 RETURNDATACOPY RETURNDATASIZE PUSH1 0x0 REVERT JUMPDEST POP POP POP POP PUSH1 0x40 MLOAD RETURNDATASIZE PUSH1 0x1F NOT PUSH1 0x1F DUP3 ADD AND DUP3 ADD DUP1 PUSH1 0x40 MSTORE POP DUP2 ADD SWAP1 PUSH2 0x1F3D SWAP2 SWAP1 PUSH2 0x2EAF JUMP JUMPDEST SWAP1 POP DUP1 DUP3 PUSH1 0x1 PUSH1 0x1 PUSH1 0xC0 SHL SUB AND GT ISZERO PUSH2 0x1FCC JUMPI PUSH1 0x40 MLOAD DUP1 PUSH1 0x60 ADD PUSH1 0x40 MSTORE DUP1 PUSH1 0x0 ISZERO ISZERO DUP2 MSTORE PUSH1 0x20 ADD DUP7 DUP7 DUP2 SLOAD DUP2 LT PUSH2 0x1F76 JUMPI PUSH2 0x1F76 PUSH2 0x2E18 JUMP JUMPDEST PUSH1 0x0 SWAP2 DUP3 MSTORE PUSH1 0x20 DUP1 DUP4 KECCAK256 PUSH1 0x40 DUP1 MLOAD PUSH1 0x60 DUP2 ADD DUP3 MSTORE PUSH1 0x3 SWAP1 SWAP5 MUL SWAP1 SWAP2 ADD DUP1 SLOAD PUSH1 0x1 PUSH1 0x1 PUSH1 0xA0 SHL SUB AND DUP5 MSTORE PUSH1 0x1 DUP2 ADD SLOAD DUP5 DUP5 ADD MSTORE PUSH1 0x2 ADD SLOAD PUSH1 0xFF AND ISZERO ISZERO SWAP1 DUP4 ADD MSTORE SWAP1 DUP4 MSTORE SWAP2 SWAP1 SWAP2 ADD MSTORE SWAP8 POP PUSH2 0x1AA9 SWAP7 POP POP POP POP POP POP POP JUMP JUMPDEST POP JUMPDEST PUSH1 0x40 MLOAD DUP1 PUSH1 0x60 ADD PUSH1 0x40 MSTORE DUP1 PUSH1 0x1 ISZERO ISZERO DUP2 MSTORE PUSH1 0x20 ADD DUP6 DUP6 DUP2 SLOAD DUP2 LT PUSH2 0x1FF4 JUMPI PUSH2 0x1FF4 PUSH2 0x2E18 JUMP JUMPDEST PUSH1 0x0 SWAP2 DUP3 MSTORE PUSH1 0x20 SWAP2 DUP3 SWAP1 KECCAK256 PUSH1 0x40 DUP1 MLOAD PUSH1 0x60 DUP2 ADD DUP3 MSTORE PUSH1 0x3 SWAP1 SWAP4 MUL SWAP1 SWAP2 ADD DUP1 SLOAD PUSH1 0x1 PUSH1 0x1 PUSH1 0xA0 SHL SUB AND DUP4 MSTORE PUSH1 0x1 DUP2 ADD SLOAD DUP4 DUP6 ADD MSTORE PUSH1 0x2 ADD SLOAD PUSH1 0xFF AND ISZERO ISZERO SWAP1 DUP3 ADD MSTORE DUP3 MSTORE PUSH1 0x1 PUSH1 0x1 PUSH1 0xC0 SHL SUB SWAP1 SWAP4 AND SWAP3 ADD SWAP2 SWAP1 SWAP2 MSTORE SWAP6 POP PUSH2 0x1AA9 SWAP5 POP POP POP POP POP JUMP JUMPDEST PUSH1 0x1 ADD PUSH2 0x1C9D JUMP JUMPDEST POP POP PUSH1 0x40 DUP1 MLOAD PUSH1 0x60 DUP1 DUP3 ADD DUP4 MSTORE PUSH1 0x0 DUP1 DUP4 MSTORE DUP4 MLOAD SWAP2 DUP3 ADD DUP5 MSTORE DUP1 DUP3 MSTORE PUSH1 0x20 DUP1 DUP4 ADD DUP3 SWAP1 MSTORE DUP3 DUP6 ADD DUP3 SWAP1 MSTORE DUP4 ADD SWAP2 SWAP1 SWAP2 MSTORE SWAP2 DUP2 ADD SWAP2 SWAP1 SWAP2 MSTORE SWAP6 SWAP5 POP POP POP POP POP JUMP JUMPDEST DUP2 MLOAD PUSH1 0x20 DUP4 ADD MLOAD PUSH1 0x1 PUSH1 0x1 PUSH1 0xC0 SHL SUB DUP4 AND PUSH1 0x0 SUB PUSH2 0x2265 JUMPI PUSH1 0xC SLOAD PUSH1 0x40 MLOAD PUSH4 0xE4940157 PUSH1 0xE0 SHL DUP2 MSTORE PUSH1 0x1 PUSH1 0x1 PUSH1 0xA0 SHL SUB DUP5 DUP2 AND PUSH1 0x4 DUP4 ADD MSTORE SWAP1 SWAP2 AND SWAP1 PUSH4 0xE4940157 SWAP1 PUSH1 0x0 SWAP1 PUSH1 0x24 ADD PUSH1 0x0 PUSH1 0x40 MLOAD DUP1 DUP4 SUB DUP2 DUP6 DUP9 DUP1 EXTCODESIZE ISZERO DUP1 ISZERO PUSH2 0x20FD JUMPI PUSH1 0x0 DUP1 REVERT JUMPDEST POP GAS CALL SWAP4 POP POP POP POP DUP1 ISZERO PUSH2 0x210F JUMPI POP PUSH1 0x1 JUMPDEST PUSH2 0x219B JUMPI DUP2 PUSH1 0x1 PUSH1 0x1 PUSH1 0xA0 SHL SUB AND DUP6 PUSH1 0x1 PUSH1 0x1 PUSH1 0xA0 SHL SUB AND PUSH32 0x1BEA1426429DD9B3DA9C9EA7BA8CBA69AC192C6431969D36B16F67DA9DD75022 PUSH1 0x0 PUSH1 0x40 MLOAD PUSH2 0x218E SWAP2 DUP2 MSTORE PUSH1 0x40 PUSH1 0x20 DUP3 ADD DUP2 SWAP1 MSTORE PUSH1 0x19 SWAP1 DUP3 ADD MSTORE PUSH32 0x467265652062696420706C6163656D656E74206661696C656400000000000000 PUSH1 0x60 DUP3 ADD MSTORE PUSH1 0x80 ADD SWAP1 JUMP JUMPDEST PUSH1 0x40 MLOAD DUP1 SWAP2 SUB SWAP1 LOG3 PUSH2 0x199F JUMP JUMPDEST PUSH1 0x2 SLOAD PUSH1 0x40 MLOAD PUSH4 0x71D4ED8D PUSH1 0xE1 SHL DUP2 MSTORE PUSH1 0x1 PUSH1 0x1 PUSH1 0xA0 SHL SUB DUP8 DUP2 AND PUSH1 0x4 DUP4 ADD MSTORE PUSH1 0x0 SWAP3 AND SWAP1 PUSH4 0xE3A9DB1A SWAP1 PUSH1 0x24 ADD PUSH1 0x20 PUSH1 0x40 MLOAD DUP1 DUP4 SUB DUP2 DUP7 GAS STATICCALL ISZERO DUP1 ISZERO PUSH2 0x21E6 JUMPI RETURNDATASIZE PUSH1 0x0 DUP1 RETURNDATACOPY RETURNDATASIZE PUSH1 0x0 REVERT JUMPDEST POP POP POP POP PUSH1 0x40 MLOAD RETURNDATASIZE PUSH1 0x1F NOT PUSH1 0x1F DUP3 ADD AND DUP3 ADD DUP1 PUSH1 0x40 MSTORE POP DUP2 ADD SWAP1 PUSH2 0x220A SWAP2 SWAP1 PUSH2 0x2EAF JUMP JUMPDEST PUSH1 0x40 DUP1 MLOAD PUSH1 0x0 DUP2 MSTORE PUSH1 0x20 DUP2 ADD DUP6 SWAP1 MSTORE SWAP1 DUP2 ADD DUP3 SWAP1 MSTORE SWAP1 SWAP2 POP PUSH1 0x1 PUSH1 0x1 PUSH1 0xA0 SHL SUB DUP1 DUP6 AND SWAP2 SWAP1 DUP9 AND SWAP1 PUSH32 0xD8C744A00B9E0131CBBABB5774CDF1DB85F1EE81C1AADA72B5C667B6168DA7B8 SWAP1 PUSH1 0x60 ADD PUSH1 0x40 MLOAD DUP1 SWAP2 SUB SWAP1 LOG3 POP PUSH2 0x199F JUMP JUMPDEST PUSH1 0x2 SLOAD PUSH1 0x40 MLOAD PUSH4 0xF98B2093 PUSH1 0xE0 SHL DUP2 MSTORE PUSH1 0x1 PUSH1 0x1 PUSH1 0xA0 SHL SUB DUP8 DUP2 AND PUSH1 0x4 DUP4 ADD MSTORE PUSH1 0x1 PUSH1 0x1 PUSH1 0xC0 SHL SUB DUP7 AND PUSH1 0x24 DUP4 ADD MSTORE SWAP1 SWAP2 AND SWAP1 PUSH4 0xF98B2093 SWAP1 PUSH1 0x44 ADD PUSH1 0x0 PUSH1 0x40 MLOAD DUP1 DUP4 SUB DUP2 PUSH1 0x0 DUP8 DUP1 EXTCODESIZE ISZERO DUP1 ISZERO PUSH2 0x22BB JUMPI PUSH1 0x0 DUP1 REVERT JUMPDEST POP GAS CALL SWAP3 POP POP POP DUP1 ISZERO PUSH2 0x22CC JUMPI POP PUSH1 0x1 JUMPDEST PUSH2 0x234E JUMPI DUP2 PUSH1 0x1 PUSH1 0x1 PUSH1 0xA0 SHL SUB AND DUP6 PUSH1 0x1 PUSH1 0x1 PUSH1 0xA0 SHL SUB AND PUSH32 0x1BEA1426429DD9B3DA9C9EA7BA8CBA69AC192C6431969D36B16F67DA9DD75022 DUP6 PUSH1 0x40 MLOAD PUSH2 0x218E SWAP2 SWAP1 PUSH1 0x1 PUSH1 0x1 PUSH1 0xC0 SHL SUB SWAP2 SWAP1 SWAP2 AND DUP2 MSTORE PUSH1 0x40 PUSH1 0x20 DUP3 ADD DUP2 SWAP1 MSTORE PUSH1 0x14 SWAP1 DUP3 ADD MSTORE PUSH20 0x496E73756666696369656E742062616C616E6365 PUSH1 0x60 SHL PUSH1 0x60 DUP3 ADD MSTORE PUSH1 0x80 ADD SWAP1 JUMP JUMPDEST PUSH1 0xC SLOAD PUSH1 0x40 MLOAD PUSH4 0xE4940157 PUSH1 0xE0 SHL DUP2 MSTORE PUSH1 0x1 PUSH1 0x1 PUSH1 0xA0 SHL SUB DUP5 DUP2 AND PUSH1 0x4 DUP4 ADD MSTORE SWAP1 SWAP2 AND SWAP1 PUSH4 0xE4940157 SWAP1 PUSH1 0x1 PUSH1 0x1 PUSH1 0xC0 SHL SUB DUP7 AND SWAP1 PUSH1 0x24 ADD PUSH1 0x0 PUSH1 0x40 MLOAD DUP1 DUP4 SUB DUP2 DUP6 DUP9 DUP1 EXTCODESIZE ISZERO DUP1 ISZERO PUSH2 0x239F JUMPI PUSH1 0x0 DUP1 REVERT JUMPDEST POP GAS CALL SWAP4 POP POP POP POP DUP1 ISZERO PUSH2 0x23B1 JUMPI POP PUSH1 0x1 JUMPDEST PUSH2 0x249D JUMPI PUSH1 0x2 SLOAD PUSH1 0x40 MLOAD PUSH4 0xF340FA01 PUSH1 0xE0 SHL DUP2 MSTORE PUSH1 0x1 PUSH1 0x1 PUSH1 0xA0 SHL SUB DUP8 DUP2 AND PUSH1 0x4 DUP4 ADD MSTORE SWAP1 SWAP2 AND SWAP1 PUSH4 0xF340FA01 SWAP1 PUSH1 0x1 PUSH1 0x1 PUSH1 0xC0 SHL SUB DUP7 AND SWAP1 PUSH1 0x24 ADD PUSH1 0x0 PUSH1 0x40 MLOAD DUP1 DUP4 SUB DUP2 DUP6 DUP9 DUP1 EXTCODESIZE ISZERO DUP1 ISZERO PUSH2 0x2406 JUMPI PUSH1 0x0 DUP1 REVERT JUMPDEST POP GAS CALL ISZERO DUP1 ISZERO PUSH2 0x241A JUMPI RETURNDATASIZE PUSH1 0x0 DUP1 RETURNDATACOPY RETURNDATASIZE PUSH1 0x0 REVERT JUMPDEST POP POP POP POP POP DUP2 PUSH1 0x1 PUSH1 0x1 PUSH1 0xA0 SHL SUB AND DUP6 PUSH1 0x1 PUSH1 0x1 PUSH1 0xA0 SHL SUB AND PUSH32 0x1BEA1426429DD9B3DA9C9EA7BA8CBA69AC192C6431969D36B16F67DA9DD75022 DUP6 PUSH1 0x40 MLOAD PUSH2 0x218E SWAP2 SWAP1 PUSH1 0x1 PUSH1 0x1 PUSH1 0xC0 SHL SUB SWAP2 SWAP1 SWAP2 AND DUP2 MSTORE PUSH1 0x40 PUSH1 0x20 DUP3 ADD DUP2 SWAP1 MSTORE PUSH1 0x14 SWAP1 DUP3 ADD MSTORE PUSH20 0x109A59081C1B1858D95B595B9D0819985A5B1959 PUSH1 0x62 SHL PUSH1 0x60 DUP3 ADD MSTORE PUSH1 0x80 ADD SWAP1 JUMP JUMPDEST PUSH1 0x2 SLOAD PUSH1 0x40 MLOAD PUSH4 0x71D4ED8D PUSH1 0xE1 SHL DUP2 MSTORE PUSH1 0x1 PUSH1 0x1 PUSH1 0xA0 SHL SUB DUP8 DUP2 AND PUSH1 0x4 DUP4 ADD MSTORE PUSH1 0x0 SWAP3 AND SWAP1 PUSH4 0xE3A9DB1A SWAP1 PUSH1 0x24 ADD PUSH1 0x20 PUSH1 0x40 MLOAD DUP1 DUP4 SUB DUP2 DUP7 GAS STATICCALL ISZERO DUP1 ISZERO PUSH2 0x24E8 JUMPI RETURNDATASIZE PUSH1 0x0 DUP1 RETURNDATACOPY RETURNDATASIZE PUSH1 0x0 REVERT JUMPDEST POP POP POP POP PUSH1 0x40 MLOAD RETURNDATASIZE PUSH1 0x1F NOT PUSH1 0x1F DUP3 ADD AND DUP3 ADD DUP1 PUSH1 0x40 MSTORE POP DUP2 ADD SWAP1 PUSH2 0x250C SWAP2 SWAP1 PUSH2 0x2EAF JUMP JUMPDEST PUSH1 0x40 DUP1 MLOAD PUSH1 0x1 PUSH1 0x1 PUSH1 0xC0 SHL SUB DUP8 AND DUP2 MSTORE PUSH1 0x20 DUP2 ADD DUP6 SWAP1 MSTORE SWAP1 DUP2 ADD DUP3 SWAP1 MSTORE SWAP1 SWAP2 POP PUSH1 0x1 PUSH1 0x1 PUSH1 0xA0 SHL SUB DUP1 DUP6 AND SWAP2 SWAP1 DUP9 AND SWAP1 PUSH32 0xD8C744A00B9E0131CBBABB5774CDF1DB85F1EE81C1AADA72B5C667B6168DA7B8 SWAP1 PUSH1 0x60 ADD PUSH1 0x40 MLOAD DUP1 SWAP2 SUB SWAP1 LOG3 POP POP POP POP POP POP JUMP JUMPDEST PUSH1 0x2 SLOAD PUSH1 0x40 MLOAD PUSH4 0xF340FA01 PUSH1 0xE0 SHL DUP2 MSTORE PUSH1 0x1 PUSH1 0x1 PUSH1 0xA0 SHL SUB DUP5 DUP2 AND PUSH1 0x4 DUP4 ADD MSTORE SWAP1 SWAP2 AND SWAP1 PUSH4 0xF340FA01 SWAP1 DUP4 SWAP1 PUSH1 0x24 ADD PUSH1 0x0 PUSH1 0x40 MLOAD DUP1 DUP4 SUB DUP2 DUP6 DUP9 DUP1 EXTCODESIZE ISZERO DUP1 ISZERO PUSH2 0x25B9 JUMPI PUSH1 0x0 DUP1 REVERT JUMPDEST POP GAS CALL ISZERO DUP1 ISZERO PUSH2 0x25CD JUMPI RETURNDATASIZE PUSH1 0x0 DUP1 RETURNDATACOPY RETURNDATASIZE PUSH1 0x0 REVERT JUMPDEST POP POP PUSH1 0x2 SLOAD PUSH1 0x40 MLOAD PUSH4 0x71D4ED8D PUSH1 0xE1 SHL DUP2 MSTORE PUSH1 0x1 PUSH1 0x1 PUSH1 0xA0 SHL SUB DUP8 DUP2 AND PUSH1 0x4 DUP4 ADD DUP2 SWAP1 MSTORE SWAP6 POP PUSH32 0x8AD64A0AC7700DD8425AB0499F107CB6E2CD1581D803C5B8C1C79DCB8190B1AF SWAP5 POP SWAP1 SWAP2 AND SWAP2 POP PUSH4 0xE3A9DB1A SWAP1 PUSH1 0x24 ADD PUSH1 0x20 PUSH1 0x40 MLOAD DUP1 DUP4 SUB DUP2 DUP7 GAS STATICCALL ISZERO DUP1 ISZERO PUSH2 0x2641 JUMPI RETURNDATASIZE PUSH1 0x0 DUP1 RETURNDATACOPY RETURNDATASIZE PUSH1 0x0 REVERT JUMPDEST POP POP POP POP PUSH1 0x40 MLOAD RETURNDATASIZE PUSH1 0x1F NOT PUSH1 0x1F DUP3 ADD AND DUP3 ADD DUP1 PUSH1 0x40 MSTORE POP DUP2 ADD SWAP1 PUSH2 0x2665 SWAP2 SWAP1 PUSH2 0x2EAF JUMP JUMPDEST PUSH1 0x40 MLOAD SWAP1 DUP2 MSTORE PUSH1 0x20 ADD PUSH1 0x40 MLOAD DUP1 SWAP2 SUB SWAP1 LOG2 POP POP JUMP JUMPDEST PUSH1 0x0 PUSH2 0x1B28 DUP4 PUSH1 0x1 PUSH1 0x1 PUSH1 0xA0 SHL SUB DUP5 AND PUSH2 0x2A53 JUMP JUMPDEST PUSH1 0x0 PUSH2 0x1B28 DUP4 DUP4 PUSH2 0x2AA2 JUMP JUMPDEST PUSH1 0x2 PUSH1 0x1 SLOAD SUB PUSH2 0x26ED JUMPI PUSH1 0x40 MLOAD PUSH3 0x461BCD PUSH1 0xE5 SHL DUP2 MSTORE PUSH1 0x20 PUSH1 0x4 DUP3 ADD MSTORE PUSH1 0x1F PUSH1 0x24 DUP3 ADD MSTORE PUSH32 0x5265656E7472616E637947756172643A207265656E7472616E742063616C6C00 PUSH1 0x44 DUP3 ADD MSTORE PUSH1 0x64 ADD PUSH2 0x727 JUMP JUMPDEST PUSH1 0x2 PUSH1 0x1 SSTORE JUMP JUMPDEST PUSH1 0x0 DUP1 SLOAD PUSH1 0x1 PUSH1 0x1 PUSH1 0xA0 SHL SUB DUP4 DUP2 AND PUSH1 0x1 PUSH1 0x1 PUSH1 0xA0 SHL SUB NOT DUP4 AND DUP2 OR DUP5 SSTORE PUSH1 0x40 MLOAD SWAP2 SWAP1 SWAP3 AND SWAP3 DUP4 SWAP2 PUSH32 0x8BE0079C531659141344CD1FD0A4F28419497F9722A3DAAFE3B4186F6B6457E0 SWAP2 SWAP1 LOG3 POP POP JUMP JUMPDEST PUSH1 0x0 DUP2 DUP2 MSTORE PUSH1 0x1 DUP4 ADD PUSH1 0x20 MSTORE PUSH1 0x40 DUP2 KECCAK256 SLOAD DUP1 ISZERO PUSH2 0x282D JUMPI PUSH1 0x0 PUSH2 0x2768 PUSH1 0x1 DUP4 PUSH2 0x2EF1 JUMP JUMPDEST DUP6 SLOAD SWAP1 SWAP2 POP PUSH1 0x0 SWAP1 PUSH2 0x277C SWAP1 PUSH1 0x1 SWAP1 PUSH2 0x2EF1 JUMP JUMPDEST SWAP1 POP DUP2 DUP2 EQ PUSH2 0x27E1 JUMPI PUSH1 0x0 DUP7 PUSH1 0x0 ADD DUP3 DUP2 SLOAD DUP2 LT PUSH2 0x279C JUMPI PUSH2 0x279C PUSH2 0x2E18 JUMP JUMPDEST SWAP1 PUSH1 0x0 MSTORE PUSH1 0x20 PUSH1 0x0 KECCAK256 ADD SLOAD SWAP1 POP DUP1 DUP8 PUSH1 0x0 ADD DUP5 DUP2 SLOAD DUP2 LT PUSH2 0x27BF JUMPI PUSH2 0x27BF PUSH2 0x2E18 JUMP JUMPDEST PUSH1 0x0 SWAP2 DUP3 MSTORE PUSH1 0x20 DUP1 DUP4 KECCAK256 SWAP1 SWAP2 ADD SWAP3 SWAP1 SWAP3 SSTORE SWAP2 DUP3 MSTORE PUSH1 0x1 DUP9 ADD SWAP1 MSTORE PUSH1 0x40 SWAP1 KECCAK256 DUP4 SWAP1 SSTORE JUMPDEST DUP6 SLOAD DUP7 SWAP1 DUP1 PUSH2 0x27F2 JUMPI PUSH2 0x27F2 PUSH2 0x2F04 JUMP JUMPDEST PUSH1 0x1 SWAP1 SUB DUP2 DUP2 SWAP1 PUSH1 0x0 MSTORE PUSH1 0x20 PUSH1 0x0 KECCAK256 ADD PUSH1 0x0 SWAP1 SSTORE SWAP1 SSTORE DUP6 PUSH1 0x1 ADD PUSH1 0x0 DUP7 DUP2 MSTORE PUSH1 0x20 ADD SWAP1 DUP2 MSTORE PUSH1 0x20 ADD PUSH1 0x0 KECCAK256 PUSH1 0x0 SWAP1 SSTORE PUSH1 0x1 SWAP4 POP POP POP POP PUSH2 0x1AA9 JUMP JUMPDEST PUSH1 0x0 SWAP2 POP POP PUSH2 0x1AA9 JUMP JUMPDEST PUSH1 0xC SLOAD PUSH1 0x40 DUP1 MLOAD PUSH4 0x33A5327 PUSH1 0xE5 SHL DUP2 MSTORE SWAP1 MLOAD PUSH1 0x0 SWAP3 DUP4 SWAP3 PUSH1 0x1 PUSH1 0x1 PUSH1 0xA0 SHL SUB SWAP1 SWAP2 AND SWAP2 PUSH4 0x674A64E0 SWAP2 PUSH1 0x4 DUP1 DUP3 ADD SWAP3 PUSH1 0x20 SWAP3 SWAP1 SWAP2 SWAP1 DUP3 SWAP1 SUB ADD DUP2 DUP7 GAS STATICCALL SWAP3 POP POP POP DUP1 ISZERO PUSH2 0x28A2 JUMPI POP PUSH1 0x40 DUP1 MLOAD PUSH1 0x1F RETURNDATASIZE SWAP1 DUP2 ADD PUSH1 0x1F NOT AND DUP3 ADD SWAP1 SWAP3 MSTORE PUSH2 0x289F SWAP2 DUP2 ADD SWAP1 PUSH2 0x2F54 JUMP JUMPDEST PUSH1 0x1 JUMPDEST ISZERO PUSH2 0x295E JUMPI PUSH1 0xC PUSH1 0x0 SWAP1 SLOAD SWAP1 PUSH2 0x100 EXP SWAP1 DIV PUSH1 0x1 PUSH1 0x1 PUSH1 0xA0 SHL SUB AND PUSH1 0x1 PUSH1 0x1 PUSH1 0xA0 SHL SUB AND PUSH4 0xBAE6C2AD PUSH1 0x40 MLOAD DUP2 PUSH4 0xFFFFFFFF AND PUSH1 0xE0 SHL DUP2 MSTORE PUSH1 0x4 ADD PUSH1 0x20 PUSH1 0x40 MLOAD DUP1 DUP4 SUB DUP2 DUP7 GAS STATICCALL SWAP3 POP POP POP DUP1 ISZERO PUSH2 0x2916 JUMPI POP PUSH1 0x40 DUP1 MLOAD PUSH1 0x1F RETURNDATASIZE SWAP1 DUP2 ADD PUSH1 0x1F NOT AND DUP3 ADD SWAP1 SWAP3 MSTORE PUSH2 0x2913 SWAP2 DUP2 ADD SWAP1 PUSH2 0x2F54 JUMP JUMPDEST PUSH1 0x1 JUMPDEST ISZERO PUSH2 0x295C JUMPI PUSH8 0xFFFFFFFFFFFFFFFF DUP3 AND ISZERO PUSH2 0x295A JUMPI DUP2 PUSH8 0xFFFFFFFFFFFFFFFF AND DUP2 PUSH8 0xFFFFFFFFFFFFFFFF AND PUSH1 0x64 PUSH2 0x294D SWAP2 SWAP1 PUSH2 0x2F7E JUMP JUMPDEST PUSH2 0x2957 SWAP2 SWAP1 PUSH2 0x2F95 JUMP JUMPDEST SWAP3 POP JUMPDEST POP JUMPDEST POP JUMPDEST PUSH1 0x9 SLOAD DUP2 LT ISZERO PUSH2 0x2972 JUMPI PUSH1 0x0 SWAP2 POP POP PUSH2 0x1B28 JUMP JUMPDEST PUSH1 0xC SLOAD PUSH1 0x40 DUP1 MLOAD PUSH4 0x54FAC919 PUSH1 0xE0 SHL DUP2 MSTORE SWAP1 MLOAD PUSH1 0x0 SWAP3 PUSH1 0x1 PUSH1 0x1 PUSH1 0xA0 SHL SUB AND SWAP2 PUSH4 0x54FAC919 SWAP2 PUSH1 0x4 DUP1 DUP4 ADD SWAP3 PUSH1 0x20 SWAP3 SWAP2 SWAP1 DUP3 SWAP1 SUB ADD DUP2 DUP7 GAS STATICCALL SWAP3 POP POP POP DUP1 ISZERO PUSH2 0x29D8 JUMPI POP PUSH1 0x40 DUP1 MLOAD PUSH1 0x1F RETURNDATASIZE SWAP1 DUP2 ADD PUSH1 0x1F NOT AND DUP3 ADD SWAP1 SWAP3 MSTORE PUSH2 0x29D5 SWAP2 DUP2 ADD SWAP1 PUSH2 0x2F54 JUMP JUMPDEST PUSH1 0x1 JUMPDEST PUSH2 0x29E4 JUMPI POP PUSH1 0x0 PUSH2 0x29E7 JUMP JUMPDEST SWAP1 POP JUMPDEST PUSH1 0xB SLOAD PUSH1 0x0 SWAP1 PUSH2 0x2A00 SWAP1 PUSH1 0x1 PUSH1 0x1 PUSH1 0xC0 SHL SUB AND DUP8 PUSH2 0x2F7E JUMP JUMPDEST PUSH1 0xA SLOAD PUSH2 0x2A17 SWAP1 PUSH8 0xFFFFFFFFFFFFFFFF DUP6 AND PUSH2 0x2F7E JUMP JUMPDEST PUSH2 0x2A2A SWAP1 PUSH1 0x1 PUSH1 0x1 PUSH1 0xC0 SHL SUB DUP9 AND PUSH2 0x2EDE JUMP JUMPDEST PUSH2 0x2A34 SWAP2 SWAP1 PUSH2 0x2EDE JUMP JUMPDEST SWAP1 POP PUSH1 0x0 DUP8 DUP3 LT PUSH2 0x2A45 JUMPI DUP8 PUSH2 0x2A47 JUMP JUMPDEST DUP2 JUMPDEST SWAP9 SWAP8 POP POP POP POP POP POP POP POP JUMP JUMPDEST PUSH1 0x0 DUP2 DUP2 MSTORE PUSH1 0x1 DUP4 ADD PUSH1 0x20 MSTORE PUSH1 0x40 DUP2 KECCAK256 SLOAD PUSH2 0x2A9A JUMPI POP DUP2 SLOAD PUSH1 0x1 DUP2 DUP2 ADD DUP5 SSTORE PUSH1 0x0 DUP5 DUP2 MSTORE PUSH1 0x20 DUP1 DUP3 KECCAK256 SWAP1 SWAP4 ADD DUP5 SWAP1 SSTORE DUP5 SLOAD DUP5 DUP3 MSTORE DUP3 DUP7 ADD SWAP1 SWAP4 MSTORE PUSH1 0x40 SWAP1 KECCAK256 SWAP2 SWAP1 SWAP2 SSTORE PUSH2 0x1AA9 JUMP JUMPDEST POP PUSH1 0x0 PUSH2 0x1AA9 JUMP JUMPDEST PUSH1 0x0 DUP3 PUSH1 0x0 ADD DUP3 DUP2 SLOAD DUP2 LT PUSH2 0x2AB9 JUMPI PUSH2 0x2AB9 PUSH2 0x2E18 JUMP JUMPDEST SWAP1 PUSH1 0x0 MSTORE PUSH1 0x20 PUSH1 0x0 KECCAK256 ADD SLOAD SWAP1 POP SWAP3 SWAP2 POP POP JUMP JUMPDEST POP DUP1 SLOAD PUSH1 0x0 DUP3 SSTORE PUSH1 0x3 MUL SWAP1 PUSH1 0x0 MSTORE PUSH1 0x20 PUSH1 0x0 KECCAK256 SWAP1 DUP2 ADD SWAP1 PUSH2 0xBDB SWAP2 SWAP1 JUMPDEST DUP1 DUP3 GT ISZERO PUSH2 0x2B1A JUMPI DUP1 SLOAD PUSH1 0x1 PUSH1 0x1 PUSH1 0xA0 SHL SUB NOT AND DUP2 SSTORE PUSH1 0x0 PUSH1 0x1 DUP3 ADD SSTORE PUSH1 0x2 DUP2 ADD DUP1 SLOAD PUSH1 0xFF NOT AND SWAP1 SSTORE PUSH1 0x3 ADD PUSH2 0x2AE9 JUMP JUMPDEST POP SWAP1 JUMP JUMPDEST PUSH1 0x0 PUSH1 0x20 DUP3 DUP5 SUB SLT ISZERO PUSH2 0x2B30 JUMPI PUSH1 0x0 DUP1 REVERT JUMPDEST POP CALLDATALOAD SWAP2 SWAP1 POP JUMP JUMPDEST PUSH1 0x1 PUSH1 0x1 PUSH1 0xC0 SHL SUB DUP2 AND DUP2 EQ PUSH2 0xBDB JUMPI PUSH1 0x0 DUP1 REVERT JUMPDEST PUSH1 0x0 PUSH1 0x20 DUP3 DUP5 SUB SLT ISZERO PUSH2 0x2B5E JUMPI PUSH1 0x0 DUP1 REVERT JUMPDEST DUP2 CALLDATALOAD PUSH2 0x1B28 DUP2 PUSH2 0x2B37 JUMP JUMPDEST PUSH1 0x0 DUP1 PUSH1 0x20 DUP4 DUP6 SUB SLT ISZERO PUSH2 0x2B7C JUMPI PUSH1 0x0 DUP1 REVERT JUMPDEST DUP3 CALLDATALOAD PUSH8 0xFFFFFFFFFFFFFFFF DUP2 GT ISZERO PUSH2 0x2B93 JUMPI PUSH1 0x0 DUP1 REVERT JUMPDEST DUP4 ADD PUSH1 0x1F DUP2 ADD DUP6 SGT PUSH2 0x2BA4 JUMPI PUSH1 0x0 DUP1 REVERT JUMPDEST DUP1 CALLDATALOAD PUSH8 0xFFFFFFFFFFFFFFFF DUP2 GT ISZERO PUSH2 0x2BBB JUMPI PUSH1 0x0 DUP1 REVERT JUMPDEST DUP6 PUSH1 0x20 DUP3 PUSH1 0x6 SHL DUP5 ADD ADD GT ISZERO PUSH2 0x2BD0 JUMPI PUSH1 0x0 DUP1 REVERT JUMPDEST PUSH1 0x20 SWAP2 SWAP1 SWAP2 ADD SWAP6 SWAP1 SWAP5 POP SWAP3 POP POP POP JUMP JUMPDEST DUP1 CALLDATALOAD PUSH1 0x1 PUSH1 0x1 PUSH1 0xA0 SHL SUB DUP2 AND DUP2 EQ PUSH2 0x2BF7 JUMPI PUSH1 0x0 DUP1 REVERT JUMPDEST SWAP2 SWAP1 POP JUMP JUMPDEST DUP1 ISZERO ISZERO DUP2 EQ PUSH2 0xBDB JUMPI PUSH1 0x0 DUP1 REVERT JUMPDEST PUSH1 0x0 DUP1 PUSH1 0x0 PUSH1 0x60 DUP5 DUP7 SUB SLT ISZERO PUSH2 0x2C1F JUMPI PUSH1 0x0 DUP1 REVERT JUMPDEST PUSH2 0x2C28 DUP5 PUSH2 0x2BE0 JUMP JUMPDEST SWAP3 POP PUSH1 0x20 DUP5 ADD CALLDATALOAD SWAP2 POP PUSH1 0x40 DUP5 ADD CALLDATALOAD PUSH2 0x2C3F DUP2 PUSH2 0x2BFC JUMP JUMPDEST DUP1 SWAP2 POP POP SWAP3 POP SWAP3 POP SWAP3 JUMP JUMPDEST PUSH1 0x0 DUP1 PUSH1 0x40 DUP4 DUP6 SUB SLT ISZERO PUSH2 0x2C5D JUMPI PUSH1 0x0 DUP1 REVERT JUMPDEST POP POP DUP1 CALLDATALOAD SWAP3 PUSH1 0x20 SWAP1 SWAP2 ADD CALLDATALOAD SWAP2 POP JUMP JUMPDEST PUSH1 0x0 DUP3 DUP3 MLOAD DUP1 DUP6 MSTORE PUSH1 0x20 DUP6 ADD SWAP5 POP PUSH1 0x20 DUP2 PUSH1 0x5 SHL DUP4 ADD ADD PUSH1 0x20 DUP6 ADD PUSH1 0x0 JUMPDEST DUP4 DUP2 LT ISZERO PUSH2 0x2D29 JUMPI DUP5 DUP4 SUB PUSH1 0x1F NOT ADD DUP9 MSTORE DUP2 MLOAD DUP1 MLOAD PUSH1 0x1 PUSH1 0x1 PUSH1 0xA0 SHL SUB AND DUP5 MSTORE PUSH1 0x20 SWAP1 DUP2 ADD MLOAD PUSH1 0x40 DUP3 DUP7 ADD DUP2 SWAP1 MSTORE DUP2 MLOAD SWAP1 DUP7 ADD DUP2 SWAP1 MSTORE SWAP2 ADD SWAP1 PUSH1 0x0 SWAP1 PUSH1 0x60 DUP7 ADD SWAP1 JUMPDEST DUP1 DUP4 LT ISZERO PUSH2 0x2D10 JUMPI DUP4 MLOAD DUP1 MLOAD PUSH1 0x1 PUSH1 0x1 PUSH1 0xA0 SHL SUB AND DUP4 MSTORE PUSH1 0x20 DUP1 DUP3 ADD MLOAD SWAP1 DUP5 ADD MSTORE PUSH1 0x40 SWAP1 DUP2 ADD MLOAD ISZERO ISZERO SWAP1 DUP4 ADD MSTORE PUSH1 0x60 DUP3 ADD SWAP2 POP PUSH1 0x20 DUP5 ADD SWAP4 POP PUSH1 0x1 DUP4 ADD SWAP3 POP PUSH2 0x2CCC JUMP JUMPDEST POP PUSH1 0x20 SWAP11 DUP12 ADD SWAP11 SWAP1 SWAP6 POP SWAP4 SWAP1 SWAP4 ADD SWAP3 POP POP PUSH1 0x1 ADD PUSH2 0x2C8A JUMP JUMPDEST POP SWAP1 SWAP7 SWAP6 POP POP POP POP POP POP JUMP JUMPDEST PUSH1 0x40 DUP2 MSTORE PUSH1 0x0 PUSH2 0x2D48 PUSH1 0x40 DUP4 ADD DUP6 PUSH2 0x2C6C JUMP JUMPDEST SWAP1 POP DUP3 ISZERO ISZERO PUSH1 0x20 DUP4 ADD MSTORE SWAP4 SWAP3 POP POP POP JUMP JUMPDEST PUSH1 0x0 DUP1 PUSH1 0x40 DUP4 DUP6 SUB SLT ISZERO PUSH2 0x2D6C JUMPI PUSH1 0x0 DUP1 REVERT JUMPDEST PUSH2 0x2D75 DUP4 PUSH2 0x2BE0 JUMP JUMPDEST SWAP5 PUSH1 0x20 SWAP4 SWAP1 SWAP4 ADD CALLDATALOAD SWAP4 POP POP POP JUMP JUMPDEST PUSH1 0x0 PUSH1 0x20 DUP3 DUP5 SUB SLT ISZERO PUSH2 0x2D95 JUMPI PUSH1 0x0 DUP1 REVERT JUMPDEST PUSH2 0x1B28 DUP3 PUSH2 0x2BE0 JUMP JUMPDEST PUSH1 0x20 DUP2 MSTORE PUSH1 0x0 PUSH2 0x1B28 PUSH1 0x20 DUP4 ADD DUP5 PUSH2 0x2C6C JUMP JUMPDEST PUSH1 0x20 DUP1 DUP3 MSTORE DUP3 MLOAD DUP3 DUP3 ADD DUP2 SWAP1 MSTORE PUSH1 0x0 SWAP2 DUP5 ADD SWAP1 PUSH1 0x40 DUP5 ADD SWAP1 DUP4 JUMPDEST DUP2 DUP2 LT ISZERO PUSH2 0x2E0D JUMPI DUP4 MLOAD DUP1 MLOAD PUSH1 0x1 PUSH1 0x1 PUSH1 0xA0 SHL SUB AND DUP5 MSTORE PUSH1 0x20 DUP1 DUP3 ADD MLOAD SWAP1 DUP6 ADD MSTORE PUSH1 0x40 SWAP1 DUP2 ADD MLOAD ISZERO ISZERO SWAP1 DUP5 ADD MSTORE PUSH1 0x60 DUP4 ADD PUSH1 0x20 SWAP5 SWAP1 SWAP5 ADD SWAP4 SWAP3 POP PUSH1 0x1 ADD PUSH2 0x2DCB JUMP JUMPDEST POP SWAP1 SWAP6 SWAP5 POP POP POP POP POP JUMP JUMPDEST PUSH4 0x4E487B71 PUSH1 0xE0 SHL PUSH1 0x0 MSTORE PUSH1 0x32 PUSH1 0x4 MSTORE PUSH1 0x24 PUSH1 0x0 REVERT JUMPDEST PUSH4 0x4E487B71 PUSH1 0xE0 SHL PUSH1 0x0 MSTORE PUSH1 0x41 PUSH1 0x4 MSTORE PUSH1 0x24 PUSH1 0x0 REVERT JUMPDEST PUSH1 0x0 PUSH1 0x40 DUP3 DUP5 SUB SLT DUP1 ISZERO PUSH2 0x2E57 JUMPI PUSH1 0x0 DUP1 REVERT JUMPDEST POP PUSH1 0x40 DUP1 MLOAD SWAP1 DUP2 ADD PUSH8 0xFFFFFFFFFFFFFFFF DUP2 GT DUP3 DUP3 LT OR ISZERO PUSH2 0x2E89 JUMPI PUSH4 0x4E487B71 PUSH1 0xE0 SHL PUSH1 0x0 MSTORE PUSH1 0x41 PUSH1 0x4 MSTORE PUSH1 0x24 PUSH1 0x0 REVERT JUMPDEST PUSH1 0x40 MSTORE PUSH2 0x2E95 DUP4 PUSH2 0x2BE0 JUMP JUMPDEST DUP2 MSTORE PUSH2 0x2EA3 PUSH1 0x20 DUP5 ADD PUSH2 0x2BE0 JUMP JUMPDEST PUSH1 0x20 DUP3 ADD MSTORE SWAP4 SWAP3 POP POP POP JUMP JUMPDEST PUSH1 0x0 PUSH1 0x20 DUP3 DUP5 SUB SLT ISZERO PUSH2 0x2EC1 JUMPI PUSH1 0x0 DUP1 REVERT JUMPDEST POP MLOAD SWAP2 SWAP1 POP JUMP JUMPDEST PUSH4 0x4E487B71 PUSH1 0xE0 SHL PUSH1 0x0 MSTORE PUSH1 0x11 PUSH1 0x4 MSTORE PUSH1 0x24 PUSH1 0x0 REVERT JUMPDEST DUP1 DUP3 ADD DUP1 DUP3 GT ISZERO PUSH2 0x1AA9 JUMPI PUSH2 0x1AA9 PUSH2 0x2EC8 JUMP JUMPDEST DUP2 DUP2 SUB DUP2 DUP2 GT ISZERO PUSH2 0x1AA9 JUMPI PUSH2 0x1AA9 PUSH2 0x2EC8 JUMP JUMPDEST PUSH4 0x4E487B71 PUSH1 0xE0 SHL PUSH1 0x0 MSTORE PUSH1 0x31 PUSH1 0x4 MSTORE PUSH1 0x24 PUSH1 0x0 REVERT JUMPDEST PUSH1 0x0 PUSH1 0x20 DUP3 DUP5 SUB SLT ISZERO PUSH2 0x2F2C JUMPI PUSH1 0x0 DUP1 REVERT JUMPDEST DUP2 MLOAD PUSH2 0x1B28 DUP2 PUSH2 0x2BFC JUMP JUMPDEST PUSH1 0x0 PUSH1 0x20 DUP3 DUP5 SUB SLT ISZERO PUSH2 0x2F49 JUMPI PUSH1 0x0 DUP1 REVERT JUMPDEST DUP2 MLOAD PUSH2 0x1B28 DUP2 PUSH2 0x2B37 JUMP JUMPDEST PUSH1 0x0 PUSH1 0x20 DUP3 DUP5 SUB SLT ISZERO PUSH2 0x2F66 JUMPI PUSH1 0x0 DUP1 REVERT JUMPDEST DUP2 MLOAD PUSH8 0xFFFFFFFFFFFFFFFF DUP2 AND DUP2 EQ PUSH2 0x1B28 JUMPI PUSH1 0x0 DUP1 REVERT JUMPDEST DUP1 DUP3 MUL DUP2 ISZERO DUP3 DUP3 DIV DUP5 EQ OR PUSH2 0x1AA9 JUMPI PUSH2 0x1AA9 PUSH2 0x2EC8 JUMP JUMPDEST PUSH1 0x0 DUP3 PUSH2 0x2FB2 JUMPI PUSH4 0x4E487B71 PUSH1 0xE0 SHL PUSH1 0x0 MSTORE PUSH1 0x12 PUSH1 0x4 MSTORE PUSH1 0x24 PUSH1 0x0 REVERT JUMPDEST POP DIV SWAP1 JUMP INVALID LOG2 PUSH5 0x6970667358 0x22 SLT KECCAK256 GASLIMIT EXTCODEHASH SSTORE SLT SWAP8 0x23 0xCD 0xB2 EXTCODEHASH COINBASE PUSH15 0x71B25902FC1F7CF16140E4452D0209 0xB3 0xA6 DUP6 PUSH25 0x561064736F6C634300081E00336080604052348015600F5760 STOP DUP1 REVERT JUMPDEST POP PUSH1 0x17 CALLER PUSH1 0x1B JUMP JUMPDEST PUSH1 0x6B JUMP JUMPDEST PUSH1 0x0 DUP1 SLOAD PUSH1 0x1 PUSH1 0x1 PUSH1 0xA0 SHL SUB DUP4 DUP2 AND PUSH1 0x1 PUSH1 0x1 PUSH1 0xA0 SHL SUB NOT DUP4 AND DUP2 OR DUP5 SSTORE PUSH1 0x40 MLOAD SWAP2 SWAP1 SWAP3 AND SWAP3 DUP4 SWAP2 PUSH32 0x8BE0079C531659141344CD1FD0A4F28419497F9722A3DAAFE3B4186F6B6457E0 SWAP2 SWAP1 LOG3 POP POP JUMP JUMPDEST PUSH2 0x68A DUP1 PUSH2 0x7A PUSH1 0x0 CODECOPY PUSH1 0x0 RETURN INVALID PUSH1 0x80 PUSH1 0x40 MSTORE PUSH1 0x4 CALLDATASIZE LT PUSH2 0x70 JUMPI PUSH1 0x0 CALLDATALOAD PUSH1 0xE0 SHR DUP1 PUSH4 0xE3A9DB1A GT PUSH2 0x4E JUMPI DUP1 PUSH4 0xE3A9DB1A EQ PUSH2 0xD9 JUMPI DUP1 PUSH4 0xF2FDE38B EQ PUSH2 0x11D JUMPI DUP1 PUSH4 0xF340FA01 EQ PUSH2 0x13D JUMPI DUP1 PUSH4 0xF98B2093 EQ PUSH2 0x150 JUMPI PUSH1 0x0 DUP1 REVERT JUMPDEST DUP1 PUSH4 0x51CFF8D9 EQ PUSH2 0x75 JUMPI DUP1 PUSH4 0x715018A6 EQ PUSH2 0x97 JUMPI DUP1 PUSH4 0x8DA5CB5B EQ PUSH2 0xAC JUMPI JUMPDEST PUSH1 0x0 DUP1 REVERT JUMPDEST CALLVALUE DUP1 ISZERO PUSH2 0x81 JUMPI PUSH1 0x0 DUP1 REVERT JUMPDEST POP PUSH2 0x95 PUSH2 0x90 CALLDATASIZE PUSH1 0x4 PUSH2 0x5C2 JUMP JUMPDEST PUSH2 0x170 JUMP JUMPDEST STOP JUMPDEST CALLVALUE DUP1 ISZERO PUSH2 0xA3 JUMPI PUSH1 0x0 DUP1 REVERT JUMPDEST POP PUSH2 0x95 PUSH2 0x1E7 JUMP JUMPDEST CALLVALUE DUP1 ISZERO PUSH2 0xB8 JUMPI PUSH1 0x0 DUP1 REVERT JUMPDEST POP PUSH1 0x0 SLOAD PUSH1 0x40 MLOAD PUSH1 0x1 PUSH1 0x1 PUSH1 0xA0 SHL SUB SWAP1 SWAP2 AND DUP2 MSTORE PUSH1 0x20 ADD JUMPDEST PUSH1 0x40 MLOAD DUP1 SWAP2 SUB SWAP1 RETURN JUMPDEST CALLVALUE DUP1 ISZERO PUSH2 0xE5 JUMPI PUSH1 0x0 DUP1 REVERT JUMPDEST POP PUSH2 0x10F PUSH2 0xF4 CALLDATASIZE PUSH1 0x4 PUSH2 0x5C2 JUMP JUMPDEST PUSH1 0x1 PUSH1 0x1 PUSH1 0xA0 SHL SUB AND PUSH1 0x0 SWAP1 DUP2 MSTORE PUSH1 0x1 PUSH1 0x20 MSTORE PUSH1 0x40 SWAP1 KECCAK256 SLOAD SWAP1 JUMP JUMPDEST PUSH1 0x40 MLOAD SWAP1 DUP2 MSTORE PUSH1 0x20 ADD PUSH2 0xD0 JUMP JUMPDEST CALLVALUE DUP1 ISZERO PUSH2 0x129 JUMPI PUSH1 0x0 DUP1 REVERT JUMPDEST POP PUSH2 0x95 PUSH2 0x138 CALLDATASIZE PUSH1 0x4 PUSH2 0x5C2 JUMP JUMPDEST PUSH2 0x1FB JUMP JUMPDEST PUSH2 0x95 PUSH2 0x14B CALLDATASIZE PUSH1 0x4 PUSH2 0x5C2 JUMP JUMPDEST PUSH2 0x279 JUMP JUMPDEST CALLVALUE DUP1 ISZERO PUSH2 0x15C JUMPI PUSH1 0x0 DUP1 REVERT JUMPDEST POP PUSH2 0x95 PUSH2 0x16B CALLDATASIZE PUSH1 0x4 PUSH2 0x5E6 JUMP JUMPDEST PUSH2 0x2EB JUMP JUMPDEST PUSH2 0x178 PUSH2 0x3E5 JUMP JUMPDEST PUSH1 0x1 PUSH1 0x1 PUSH1 0xA0 SHL SUB DUP2 AND PUSH1 0x0 DUP2 DUP2 MSTORE PUSH1 0x1 PUSH1 0x20 MSTORE PUSH1 0x40 DUP2 KECCAK256 DUP1 SLOAD SWAP2 SWAP1 SSTORE SWAP1 PUSH2 0x1A0 SWAP1 DUP3 PUSH2 0x43F JUMP JUMPDEST DUP2 PUSH1 0x1 PUSH1 0x1 PUSH1 0xA0 SHL SUB AND PUSH32 0x7084F5476618D8E60B11EF0D7D3F06914655ADB8793E28FF7F018D4C76D505D5 DUP3 PUSH1 0x40 MLOAD PUSH2 0x1DB SWAP2 DUP2 MSTORE PUSH1 0x20 ADD SWAP1 JUMP JUMPDEST PUSH1 0x40 MLOAD DUP1 SWAP2 SUB SWAP1 LOG2 POP POP JUMP JUMPDEST PUSH2 0x1EF PUSH2 0x3E5 JUMP JUMPDEST PUSH2 0x1F9 PUSH1 0x0 PUSH2 0x55D JUMP JUMPDEST JUMP JUMPDEST PUSH2 0x203 PUSH2 0x3E5 JUMP JUMPDEST PUSH1 0x1 PUSH1 0x1 PUSH1 0xA0 SHL SUB DUP2 AND PUSH2 0x26D JUMPI PUSH1 0x40 MLOAD PUSH3 0x461BCD PUSH1 0xE5 SHL DUP2 MSTORE PUSH1 0x20 PUSH1 0x4 DUP3 ADD MSTORE PUSH1 0x26 PUSH1 0x24 DUP3 ADD MSTORE PUSH32 0x4F776E61626C653A206E6577206F776E657220697320746865207A65726F2061 PUSH1 0x44 DUP3 ADD MSTORE PUSH6 0x646472657373 PUSH1 0xD0 SHL PUSH1 0x64 DUP3 ADD MSTORE PUSH1 0x84 ADD JUMPDEST PUSH1 0x40 MLOAD DUP1 SWAP2 SUB SWAP1 REVERT JUMPDEST PUSH2 0x276 DUP2 PUSH2 0x55D JUMP JUMPDEST POP JUMP JUMPDEST PUSH2 0x281 PUSH2 0x3E5 JUMP JUMPDEST PUSH1 0x1 PUSH1 0x1 PUSH1 0xA0 SHL SUB DUP2 AND PUSH1 0x0 SWAP1 DUP2 MSTORE PUSH1 0x1 PUSH1 0x20 MSTORE PUSH1 0x40 DUP2 KECCAK256 DUP1 SLOAD CALLVALUE SWAP3 DUP4 SWAP3 SWAP2 PUSH2 0x2AB SWAP1 DUP5 SWAP1 PUSH2 0x628 JUMP JUMPDEST SWAP1 SWAP2 SSTORE POP POP PUSH1 0x40 MLOAD DUP2 DUP2 MSTORE PUSH1 0x1 PUSH1 0x1 PUSH1 0xA0 SHL SUB DUP4 AND SWAP1 PUSH32 0x2DA466A7B24304F47E87FA2E1E5A81B9831CE54FEC19055CE277CA2F39BA42C4 SWAP1 PUSH1 0x20 ADD PUSH2 0x1DB JUMP JUMPDEST PUSH2 0x2F3 PUSH2 0x3E5 JUMP JUMPDEST PUSH1 0x1 PUSH1 0x1 PUSH1 0xA0 SHL SUB DUP3 AND PUSH1 0x0 SWAP1 DUP2 MSTORE PUSH1 0x1 PUSH1 0x20 MSTORE PUSH1 0x40 SWAP1 KECCAK256 SLOAD DUP1 DUP3 GT ISZERO PUSH2 0x355 JUMPI PUSH1 0x40 MLOAD PUSH3 0x461BCD PUSH1 0xE5 SHL DUP2 MSTORE PUSH1 0x20 PUSH1 0x4 DUP3 ADD MSTORE PUSH1 0x16 PUSH1 0x24 DUP3 ADD MSTORE PUSH22 0x416D6F756E7420657863656564732062616C616E6365 PUSH1 0x50 SHL PUSH1 0x44 DUP3 ADD MSTORE PUSH1 0x64 ADD PUSH2 0x264 JUMP JUMPDEST PUSH2 0x35F DUP3 DUP3 PUSH2 0x641 JUMP JUMPDEST PUSH1 0x1 PUSH1 0x1 PUSH1 0xA0 SHL SUB DUP5 AND PUSH1 0x0 SWAP1 DUP2 MSTORE PUSH1 0x1 PUSH1 0x20 MSTORE PUSH1 0x40 SWAP1 KECCAK256 SSTORE PUSH2 0x39D DUP3 PUSH2 0x38E PUSH1 0x0 SLOAD PUSH1 0x1 PUSH1 0x1 PUSH1 0xA0 SHL SUB AND SWAP1 JUMP JUMPDEST PUSH1 0x1 PUSH1 0x1 PUSH1 0xA0 SHL SUB AND SWAP1 PUSH2 0x43F JUMP JUMPDEST DUP3 PUSH1 0x1 PUSH1 0x1 PUSH1 0xA0 SHL SUB AND PUSH32 0x7084F5476618D8E60B11EF0D7D3F06914655ADB8793E28FF7F018D4C76D505D5 DUP4 PUSH1 0x40 MLOAD PUSH2 0x3D8 SWAP2 DUP2 MSTORE PUSH1 0x20 ADD SWAP1 JUMP JUMPDEST PUSH1 0x40 MLOAD DUP1 SWAP2 SUB SWAP1 LOG2 POP POP POP JUMP JUMPDEST PUSH1 0x0 SLOAD PUSH1 0x1 PUSH1 0x1 PUSH1 0xA0 SHL SUB AND CALLER EQ PUSH2 0x1F9 JUMPI PUSH1 0x40 MLOAD PUSH3 0x461BCD PUSH1 0xE5 SHL DUP2 MSTORE PUSH1 0x20 PUSH1 0x4 DUP3 ADD DUP2 SWAP1 MSTORE PUSH1 0x24 DUP3 ADD MSTORE PUSH32 0x4F776E61626C653A2063616C6C6572206973206E6F7420746865206F776E6572 PUSH1 0x44 DUP3 ADD MSTORE PUSH1 0x64 ADD PUSH2 0x264 JUMP JUMPDEST DUP1 SELFBALANCE LT ISZERO PUSH2 0x48F JUMPI PUSH1 0x40 MLOAD PUSH3 0x461BCD PUSH1 0xE5 SHL DUP2 MSTORE PUSH1 0x20 PUSH1 0x4 DUP3 ADD MSTORE PUSH1 0x1D PUSH1 0x24 DUP3 ADD MSTORE PUSH32 0x416464726573733A20696E73756666696369656E742062616C616E6365000000 PUSH1 0x44 DUP3 ADD MSTORE PUSH1 0x64 ADD PUSH2 0x264 JUMP JUMPDEST PUSH1 0x0 DUP3 PUSH1 0x1 PUSH1 0x1 PUSH1 0xA0 SHL SUB AND DUP3 PUSH1 0x40 MLOAD PUSH1 0x0 PUSH1 0x40 MLOAD DUP1 DUP4 SUB DUP2 DUP6 DUP8 GAS CALL SWAP3 POP POP POP RETURNDATASIZE DUP1 PUSH1 0x0 DUP2 EQ PUSH2 0x4DC JUMPI PUSH1 0x40 MLOAD SWAP2 POP PUSH1 0x1F NOT PUSH1 0x3F RETURNDATASIZE ADD AND DUP3 ADD PUSH1 0x40 MSTORE RETURNDATASIZE DUP3 MSTORE RETURNDATASIZE PUSH1 0x0 PUSH1 0x20 DUP5 ADD RETURNDATACOPY PUSH2 0x4E1 JUMP JUMPDEST PUSH1 0x60 SWAP2 POP JUMPDEST POP POP SWAP1 POP DUP1 PUSH2 0x558 JUMPI PUSH1 0x40 MLOAD PUSH3 0x461BCD PUSH1 0xE5 SHL DUP2 MSTORE PUSH1 0x20 PUSH1 0x4 DUP3 ADD MSTORE PUSH1 0x3A PUSH1 0x24 DUP3 ADD MSTORE PUSH32 0x416464726573733A20756E61626C6520746F2073656E642076616C75652C2072 PUSH1 0x44 DUP3 ADD MSTORE PUSH32 0x6563697069656E74206D61792068617665207265766572746564000000000000 PUSH1 0x64 DUP3 ADD MSTORE PUSH1 0x84 ADD PUSH2 0x264 JUMP JUMPDEST POP POP POP JUMP JUMPDEST PUSH1 0x0 DUP1 SLOAD PUSH1 0x1 PUSH1 0x1 PUSH1 0xA0 SHL SUB DUP4 DUP2 AND PUSH1 0x1 PUSH1 0x1 PUSH1 0xA0 SHL SUB NOT DUP4 AND DUP2 OR DUP5 SSTORE PUSH1 0x40 MLOAD SWAP2 SWAP1 SWAP3 AND SWAP3 DUP4 SWAP2 PUSH32 0x8BE0079C531659141344CD1FD0A4F28419497F9722A3DAAFE3B4186F6B6457E0 SWAP2 SWAP1 LOG3 POP POP JUMP JUMPDEST PUSH1 0x1 PUSH1 0x1 PUSH1 0xA0 SHL SUB DUP2 AND DUP2 EQ PUSH2 0x276 JUMPI PUSH1 0x0 DUP1 REVERT JUMPDEST PUSH1 0x0 PUSH1 0x20 DUP3 DUP5 SUB SLT ISZERO PUSH2 0x5D4 JUMPI PUSH1 0x0 DUP1 REVERT JUMPDEST DUP2 CALLDATALOAD PUSH2 0x5DF DUP2 PUSH2 0x5AD JUMP JUMPDEST SWAP4 SWAP3 POP POP POP JUMP JUMPDEST PUSH1 0x0 DUP1 PUSH1 0x40 DUP4 DUP6 SUB SLT ISZERO PUSH2 0x5F9 JUMPI PUSH1 0x0 DUP1 REVERT JUMPDEST DUP3 CALLDATALOAD PUSH2 0x604 DUP2 PUSH2 0x5AD JUMP JUMPDEST SWAP5 PUSH1 0x20 SWAP4 SWAP1 SWAP4 ADD CALLDATALOAD SWAP4 POP POP POP JUMP JUMPDEST PUSH4 0x4E487B71 PUSH1 0xE0 SHL PUSH1 0x0 MSTORE PUSH1 0x11 PUSH1 0x4 MSTORE PUSH1 0x24 PUSH1 0x0 REVERT JUMPDEST DUP1 DUP3 ADD DUP1 DUP3 GT ISZERO PUSH2 0x63B JUMPI PUSH2 0x63B PUSH2 0x612 JUMP JUMPDEST SWAP3 SWAP2 POP POP JUMP JUMPDEST DUP2 DUP2 SUB DUP2 DUP2 GT ISZERO PUSH2 0x63B JUMPI PUSH2 0x63B PUSH2 0x612 JUMP INVALID LOG2 PUSH5 0x6970667358 0x22 SLT KECCAK256 XOR 0xC7 MSTORE 0xB4 BLOCKHASH 0xC8 SWAP1 0xC7 SWAP13 0xC7 PUSH23 0xD03196960293901A78FC2348FF89DC58681508AFB96473 PUSH16 0x6C634300081E00330000000000000000 "
        },
        "methodIdentifiers": {
          "arbWasmCache()": "e8cc05d7",
          "bidIncrement()": "b3cc167a",
          "cacheManager()": "59838a15",
          "cacheThreshold()": "f76dfcc7",
          "escrow()": "e2fdcc17",
          "fundBalance()": "3c067945",
          "getContracts()": "c3a2a93a",
          "getContractsPaginated(uint256,uint256)": "483ece06",
          "getTotalUsersCount()": "0561010c",
          "getUserAtIndex(uint256)": "ffcc7bbf",
          "getUserBalance()": "b7013dc1",
          "getUserContracts()": "dfc41f44",
          "horizonSeconds()": "25221a16",
          "insertContract(address,uint256,bool)": "467ea9f4",
          "maxBidsPerIteration()": "3d4d8388",
          "maxContractsPerUser()": "cf0649f0",
          "maxUserFunds()": "1fa4840d",
          "maxUsersPerPage()": "6fa1bb9e",
          "minFundAmount()": "ba4d35b3",
          "minMaxBidAmount()": "cd46d432",
          "owner()": "8da5cb5b",
          "placeBids((address,address)[])": "33932260",
          "removeAllContracts()": "3347f4c0",
          "removeContract(address)": "c375c2ef",
          "renounceOwnership()": "715018a6",
          "setBidIncrement(uint192)": "152533ad",
          "setCacheThreshold(uint256)": "9d0dd050",
          "setHorizonSeconds(uint256)": "081657b7",
          "setMaxBidsPerIteration(uint256)": "d1993526",
          "setMaxContractsPerUser(uint256)": "7f02fd94",
          "setMaxUserFunds(uint256)": "0208ef67",
          "setMaxUsersPerPage(uint256)": "fec4ea1b",
          "setMinFundAmount(uint256)": "26b2eb6e",
          "setMinMaxBidAmount(uint256)": "e6d5a326",
          "transferOwnership(address)": "f2fde38b",
          "updateContract(address,uint256,bool)": "fb5842f3",
          "userContracts(address,uint256)": "b789003d",
          "withdrawBalance()": "5fd8c710"
        }
      },
      "storageLayout": {
        "storage": [
          {
            "astId": 7,
            "contract": "contracts/core/CacheManagerAutomation.sol:CacheManagerAutomation",
            "label": "_owner",
            "offset": 0,
            "slot": "0",
            "type": "t_address"
          },
          {
            "astId": 123,
            "contract": "contracts/core/CacheManagerAutomation.sol:CacheManagerAutomation",
            "label": "_status",
            "offset": 0,
            "slot": "1",
            "type": "t_uint256"
          },
          {
            "astId": 1420,
            "contract": "contracts/core/CacheManagerAutomation.sol:CacheManagerAutomation",
            "label": "escrow",
            "offset": 0,
            "slot": "2",
            "type": "t_contract(BiddingEscrow)1394"
          },
          {
            "astId": 1422,
            "contract": "contracts/core/CacheManagerAutomation.sol:CacheManagerAutomation",
            "label": "maxContractsPerUser",
            "offset": 0,
            "slot": "3",
            "type": "t_uint256"
          },
          {
            "astId": 1424,
            "contract": "contracts/core/CacheManagerAutomation.sol:CacheManagerAutomation",
            "label": "minMaxBidAmount",
            "offset": 0,
            "slot": "4",
            "type": "t_uint256"
          },
          {
            "astId": 1426,
            "contract": "contracts/core/CacheManagerAutomation.sol:CacheManagerAutomation",
            "label": "minFundAmount",
            "offset": 0,
            "slot": "5",
            "type": "t_uint256"
          },
          {
            "astId": 1428,
            "contract": "contracts/core/CacheManagerAutomation.sol:CacheManagerAutomation",
            "label": "maxUserFunds",
            "offset": 0,
            "slot": "6",
            "type": "t_uint256"
          },
          {
            "astId": 1430,
            "contract": "contracts/core/CacheManagerAutomation.sol:CacheManagerAutomation",
            "label": "maxBidsPerIteration",
            "offset": 0,
            "slot": "7",
            "type": "t_uint256"
          },
          {
            "astId": 1432,
            "contract": "contracts/core/CacheManagerAutomation.sol:CacheManagerAutomation",
            "label": "maxUsersPerPage",
            "offset": 0,
            "slot": "8",
            "type": "t_uint256"
          },
          {
            "astId": 1434,
            "contract": "contracts/core/CacheManagerAutomation.sol:CacheManagerAutomation",
            "label": "cacheThreshold",
            "offset": 0,
            "slot": "9",
            "type": "t_uint256"
          },
          {
            "astId": 1436,
            "contract": "contracts/core/CacheManagerAutomation.sol:CacheManagerAutomation",
            "label": "horizonSeconds",
            "offset": 0,
            "slot": "10",
            "type": "t_uint256"
          },
          {
            "astId": 1438,
            "contract": "contracts/core/CacheManagerAutomation.sol:CacheManagerAutomation",
            "label": "bidIncrement",
            "offset": 0,
            "slot": "11",
            "type": "t_uint192"
          },
          {
            "astId": 1441,
            "contract": "contracts/core/CacheManagerAutomation.sol:CacheManagerAutomation",
            "label": "cacheManager",
            "offset": 0,
            "slot": "12",
            "type": "t_contract(ICacheManager)3357"
          },
          {
            "astId": 1444,
            "contract": "contracts/core/CacheManagerAutomation.sol:CacheManagerAutomation",
            "label": "arbWasmCache",
            "offset": 0,
            "slot": "13",
            "type": "t_contract(IArbWasmCache)3366"
          },
          {
            "astId": 1450,
            "contract": "contracts/core/CacheManagerAutomation.sol:CacheManagerAutomation",
            "label": "userContracts",
            "offset": 0,
            "slot": "14",
            "type": "t_mapping(t_address,t_array(t_struct(ContractConfig)2965_storage)dyn_storage)"
          },
          {
            "astId": 1453,
            "contract": "contracts/core/CacheManagerAutomation.sol:CacheManagerAutomation",
            "label": "usersWithContracts",
            "offset": 0,
            "slot": "15",
            "type": "t_struct(AddressSet)959_storage"
          }
        ],
        "types": {
          "t_address": {
            "encoding": "inplace",
            "label": "address",
            "numberOfBytes": "20"
          },
          "t_array(t_bytes32)dyn_storage": {
            "base": "t_bytes32",
            "encoding": "dynamic_array",
            "label": "bytes32[]",
            "numberOfBytes": "32"
          },
          "t_array(t_struct(ContractConfig)2965_storage)dyn_storage": {
            "base": "t_struct(ContractConfig)2965_storage",
            "encoding": "dynamic_array",
            "label": "struct ICacheManagerAutomation.ContractConfig[]",
            "numberOfBytes": "32"
          },
          "t_bool": {
            "encoding": "inplace",
            "label": "bool",
            "numberOfBytes": "1"
          },
          "t_bytes32": {
            "encoding": "inplace",
            "label": "bytes32",
            "numberOfBytes": "32"
          },
          "t_contract(BiddingEscrow)1394": {
            "encoding": "inplace",
            "label": "contract BiddingEscrow",
            "numberOfBytes": "20"
          },
          "t_contract(IArbWasmCache)3366": {
            "encoding": "inplace",
            "label": "contract IArbWasmCache",
            "numberOfBytes": "20"
          },
          "t_contract(ICacheManager)3357": {
            "encoding": "inplace",
            "label": "contract ICacheManager",
            "numberOfBytes": "20"
          },
          "t_mapping(t_address,t_array(t_struct(ContractConfig)2965_storage)dyn_storage)": {
            "encoding": "mapping",
            "key": "t_address",
            "label": "mapping(address => struct ICacheManagerAutomation.ContractConfig[])",
            "numberOfBytes": "32",
            "value": "t_array(t_struct(ContractConfig)2965_storage)dyn_storage"
          },
          "t_mapping(t_bytes32,t_uint256)": {
            "encoding": "mapping",
            "key": "t_bytes32",
            "label": "mapping(bytes32 => uint256)",
            "numberOfBytes": "32",
            "value": "t_uint256"
          },
          "t_struct(AddressSet)959_storage": {
            "encoding": "inplace",
            "label": "struct EnumerableSet.AddressSet",
            "members": [
              {
                "astId": 958,
                "contract": "contracts/core/CacheManagerAutomation.sol:CacheManagerAutomation",
                "label": "_inner",
                "offset": 0,
                "slot": "0",
                "type": "t_struct(Set)644_storage"
              }
            ],
            "numberOfBytes": "64"
          },
          "t_struct(ContractConfig)2965_storage": {
            "encoding": "inplace",
            "label": "struct ICacheManagerAutomation.ContractConfig",
            "members": [
              {
                "astId": 2960,
                "contract": "contracts/core/CacheManagerAutomation.sol:CacheManagerAutomation",
                "label": "contractAddress",
                "offset": 0,
                "slot": "0",
                "type": "t_address"
              },
              {
                "astId": 2962,
                "contract": "contracts/core/CacheManagerAutomation.sol:CacheManagerAutomation",
                "label": "maxBid",
                "offset": 0,
                "slot": "1",
                "type": "t_uint256"
              },
              {
                "astId": 2964,
                "contract": "contracts/core/CacheManagerAutomation.sol:CacheManagerAutomation",
                "label": "enabled",
                "offset": 0,
                "slot": "2",
                "type": "t_bool"
              }
            ],
            "numberOfBytes": "96"
          },
          "t_struct(Set)644_storage": {
            "encoding": "inplace",
            "label": "struct EnumerableSet.Set",
            "members": [
              {
                "astId": 639,
                "contract": "contracts/core/CacheManagerAutomation.sol:CacheManagerAutomation",
                "label": "_values",
                "offset": 0,
                "slot": "0",
                "type": "t_array(t_bytes32)dyn_storage"
              },
              {
                "astId": 643,
                "contract": "contracts/core/CacheManagerAutomation.sol:CacheManagerAutomation",
                "label": "_indexes",
                "offset": 0,
                "slot": "1",
                "type": "t_mapping(t_bytes32,t_uint256)"
              }
            ],
            "numberOfBytes": "64"
          },
          "t_uint192": {
            "encoding": "inplace",
            "label": "uint192",
            "numberOfBytes": "24"
          },
          "t_uint256": {
            "encoding": "inplace",
            "label": "uint256",
            "numberOfBytes": "32"
          }
        }
      }
    }
  }
}